Archive member included to satisfy reference by file (symbol)

e:/stm/systemworkbenchforstm/plugins/fr.ac6.mcu.externaltools.arm-none.win32_1.17.0.201812190825/tools/compiler/bin/../lib/gcc/arm-none-eabi/7.3.1/../../../../arm-none-eabi/lib/thumb/v7e-m/fpv4-sp/hard\libm.a(lib_a-w_sqrt.o)
                              Src/TFT.o (sqrt)
e:/stm/systemworkbenchforstm/plugins/fr.ac6.mcu.externaltools.arm-none.win32_1.17.0.201812190825/tools/compiler/bin/../lib/gcc/arm-none-eabi/7.3.1/../../../../arm-none-eabi/lib/thumb/v7e-m/fpv4-sp/hard\libm.a(lib_a-e_sqrt.o)
                              e:/stm/systemworkbenchforstm/plugins/fr.ac6.mcu.externaltools.arm-none.win32_1.17.0.201812190825/tools/compiler/bin/../lib/gcc/arm-none-eabi/7.3.1/../../../../arm-none-eabi/lib/thumb/v7e-m/fpv4-sp/hard\libm.a(lib_a-w_sqrt.o) (__ieee754_sqrt)
e:/stm/systemworkbenchforstm/plugins/fr.ac6.mcu.externaltools.arm-none.win32_1.17.0.201812190825/tools/compiler/bin/../lib/gcc/arm-none-eabi/7.3.1/../../../../arm-none-eabi/lib/thumb/v7e-m/fpv4-sp/hard\libm.a(lib_a-s_lib_ver.o)
                              e:/stm/systemworkbenchforstm/plugins/fr.ac6.mcu.externaltools.arm-none.win32_1.17.0.201812190825/tools/compiler/bin/../lib/gcc/arm-none-eabi/7.3.1/../../../../arm-none-eabi/lib/thumb/v7e-m/fpv4-sp/hard\libm.a(lib_a-w_sqrt.o) (__fdlib_version)
e:/stm/systemworkbenchforstm/plugins/fr.ac6.mcu.externaltools.arm-none.win32_1.17.0.201812190825/tools/compiler/bin/../lib/gcc/arm-none-eabi/7.3.1/../../../../arm-none-eabi/lib/thumb/v7e-m/fpv4-sp/hard\libm.a(lib_a-s_matherr.o)
                              e:/stm/systemworkbenchforstm/plugins/fr.ac6.mcu.externaltools.arm-none.win32_1.17.0.201812190825/tools/compiler/bin/../lib/gcc/arm-none-eabi/7.3.1/../../../../arm-none-eabi/lib/thumb/v7e-m/fpv4-sp/hard\libm.a(lib_a-w_sqrt.o) (matherr)
e:/stm/systemworkbenchforstm/plugins/fr.ac6.mcu.externaltools.arm-none.win32_1.17.0.201812190825/tools/compiler/bin/../lib/gcc/arm-none-eabi/7.3.1/thumb/v7e-m/fpv4-sp/hard\libgcc.a(_arm_addsubdf3.o)
                              e:/stm/systemworkbenchforstm/plugins/fr.ac6.mcu.externaltools.arm-none.win32_1.17.0.201812190825/tools/compiler/bin/../lib/gcc/arm-none-eabi/7.3.1/../../../../arm-none-eabi/lib/thumb/v7e-m/fpv4-sp/hard\libm.a(lib_a-e_sqrt.o) (__aeabi_dsub)
e:/stm/systemworkbenchforstm/plugins/fr.ac6.mcu.externaltools.arm-none.win32_1.17.0.201812190825/tools/compiler/bin/../lib/gcc/arm-none-eabi/7.3.1/thumb/v7e-m/fpv4-sp/hard\libgcc.a(_arm_muldivdf3.o)
                              e:/stm/systemworkbenchforstm/plugins/fr.ac6.mcu.externaltools.arm-none.win32_1.17.0.201812190825/tools/compiler/bin/../lib/gcc/arm-none-eabi/7.3.1/../../../../arm-none-eabi/lib/thumb/v7e-m/fpv4-sp/hard\libm.a(lib_a-e_sqrt.o) (__aeabi_dmul)
e:/stm/systemworkbenchforstm/plugins/fr.ac6.mcu.externaltools.arm-none.win32_1.17.0.201812190825/tools/compiler/bin/../lib/gcc/arm-none-eabi/7.3.1/thumb/v7e-m/fpv4-sp/hard\libgcc.a(_arm_cmpdf2.o)
                              Src/TFT.o (__aeabi_dcmplt)
e:/stm/systemworkbenchforstm/plugins/fr.ac6.mcu.externaltools.arm-none.win32_1.17.0.201812190825/tools/compiler/bin/../lib/gcc/arm-none-eabi/7.3.1/thumb/v7e-m/fpv4-sp/hard\libgcc.a(_arm_unorddf2.o)
                              e:/stm/systemworkbenchforstm/plugins/fr.ac6.mcu.externaltools.arm-none.win32_1.17.0.201812190825/tools/compiler/bin/../lib/gcc/arm-none-eabi/7.3.1/../../../../arm-none-eabi/lib/thumb/v7e-m/fpv4-sp/hard\libm.a(lib_a-w_sqrt.o) (__aeabi_dcmpun)
e:/stm/systemworkbenchforstm/plugins/fr.ac6.mcu.externaltools.arm-none.win32_1.17.0.201812190825/tools/compiler/bin/../lib/gcc/arm-none-eabi/7.3.1/thumb/v7e-m/fpv4-sp/hard\libgcc.a(_aeabi_uldivmod.o)
                              Drivers/STM32F4xx_HAL_Driver/Src/stm32f4xx_hal_rcc.o (__aeabi_uldivmod)
e:/stm/systemworkbenchforstm/plugins/fr.ac6.mcu.externaltools.arm-none.win32_1.17.0.201812190825/tools/compiler/bin/../lib/gcc/arm-none-eabi/7.3.1/thumb/v7e-m/fpv4-sp/hard\libgcc.a(_udivmoddi4.o)
                              e:/stm/systemworkbenchforstm/plugins/fr.ac6.mcu.externaltools.arm-none.win32_1.17.0.201812190825/tools/compiler/bin/../lib/gcc/arm-none-eabi/7.3.1/thumb/v7e-m/fpv4-sp/hard\libgcc.a(_aeabi_uldivmod.o) (__udivmoddi4)
e:/stm/systemworkbenchforstm/plugins/fr.ac6.mcu.externaltools.arm-none.win32_1.17.0.201812190825/tools/compiler/bin/../lib/gcc/arm-none-eabi/7.3.1/thumb/v7e-m/fpv4-sp/hard\libgcc.a(_dvmd_tls.o)
                              e:/stm/systemworkbenchforstm/plugins/fr.ac6.mcu.externaltools.arm-none.win32_1.17.0.201812190825/tools/compiler/bin/../lib/gcc/arm-none-eabi/7.3.1/thumb/v7e-m/fpv4-sp/hard\libgcc.a(_aeabi_uldivmod.o) (__aeabi_ldiv0)
e:/stm/systemworkbenchforstm/plugins/fr.ac6.mcu.externaltools.arm-none.win32_1.17.0.201812190825/tools/compiler/bin/../lib/gcc/arm-none-eabi/7.3.1/../../../../arm-none-eabi/lib/thumb/v7e-m/fpv4-sp/hard\libc_nano.a(lib_a-errno.o)
                              e:/stm/systemworkbenchforstm/plugins/fr.ac6.mcu.externaltools.arm-none.win32_1.17.0.201812190825/tools/compiler/bin/../lib/gcc/arm-none-eabi/7.3.1/../../../../arm-none-eabi/lib/thumb/v7e-m/fpv4-sp/hard\libm.a(lib_a-w_sqrt.o) (__errno)
e:/stm/systemworkbenchforstm/plugins/fr.ac6.mcu.externaltools.arm-none.win32_1.17.0.201812190825/tools/compiler/bin/../lib/gcc/arm-none-eabi/7.3.1/../../../../arm-none-eabi/lib/thumb/v7e-m/fpv4-sp/hard\libc_nano.a(lib_a-exit.o)
                              e:/stm/systemworkbenchforstm/plugins/fr.ac6.mcu.externaltools.arm-none.win32_1.17.0.201812190825/tools/compiler/bin/../lib/gcc/arm-none-eabi/7.3.1/../../../../arm-none-eabi/lib/thumb/v7e-m/fpv4-sp/hard/crt0.o (exit)
e:/stm/systemworkbenchforstm/plugins/fr.ac6.mcu.externaltools.arm-none.win32_1.17.0.201812190825/tools/compiler/bin/../lib/gcc/arm-none-eabi/7.3.1/../../../../arm-none-eabi/lib/thumb/v7e-m/fpv4-sp/hard\libc_nano.a(lib_a-impure.o)
                              e:/stm/systemworkbenchforstm/plugins/fr.ac6.mcu.externaltools.arm-none.win32_1.17.0.201812190825/tools/compiler/bin/../lib/gcc/arm-none-eabi/7.3.1/../../../../arm-none-eabi/lib/thumb/v7e-m/fpv4-sp/hard\libc_nano.a(lib_a-exit.o) (_global_impure_ptr)
e:/stm/systemworkbenchforstm/plugins/fr.ac6.mcu.externaltools.arm-none.win32_1.17.0.201812190825/tools/compiler/bin/../lib/gcc/arm-none-eabi/7.3.1/../../../../arm-none-eabi/lib/thumb/v7e-m/fpv4-sp/hard\libc_nano.a(lib_a-init.o)
                              e:/stm/systemworkbenchforstm/plugins/fr.ac6.mcu.externaltools.arm-none.win32_1.17.0.201812190825/tools/compiler/bin/../lib/gcc/arm-none-eabi/7.3.1/../../../../arm-none-eabi/lib/thumb/v7e-m/fpv4-sp/hard/crt0.o (__libc_init_array)
e:/stm/systemworkbenchforstm/plugins/fr.ac6.mcu.externaltools.arm-none.win32_1.17.0.201812190825/tools/compiler/bin/../lib/gcc/arm-none-eabi/7.3.1/../../../../arm-none-eabi/lib/thumb/v7e-m/fpv4-sp/hard\libc_nano.a(lib_a-malloc.o)
                              Middlewares/ST/STM32_USB_Device_Library/Class/CDC/Src/usbd_cdc.o (malloc)
e:/stm/systemworkbenchforstm/plugins/fr.ac6.mcu.externaltools.arm-none.win32_1.17.0.201812190825/tools/compiler/bin/../lib/gcc/arm-none-eabi/7.3.1/../../../../arm-none-eabi/lib/thumb/v7e-m/fpv4-sp/hard\libc_nano.a(lib_a-memset.o)
                              e:/stm/systemworkbenchforstm/plugins/fr.ac6.mcu.externaltools.arm-none.win32_1.17.0.201812190825/tools/compiler/bin/../lib/gcc/arm-none-eabi/7.3.1/../../../../arm-none-eabi/lib/thumb/v7e-m/fpv4-sp/hard/crt0.o (memset)
e:/stm/systemworkbenchforstm/plugins/fr.ac6.mcu.externaltools.arm-none.win32_1.17.0.201812190825/tools/compiler/bin/../lib/gcc/arm-none-eabi/7.3.1/../../../../arm-none-eabi/lib/thumb/v7e-m/fpv4-sp/hard\libc_nano.a(lib_a-nano-freer.o)
                              e:/stm/systemworkbenchforstm/plugins/fr.ac6.mcu.externaltools.arm-none.win32_1.17.0.201812190825/tools/compiler/bin/../lib/gcc/arm-none-eabi/7.3.1/../../../../arm-none-eabi/lib/thumb/v7e-m/fpv4-sp/hard\libc_nano.a(lib_a-malloc.o) (_free_r)
e:/stm/systemworkbenchforstm/plugins/fr.ac6.mcu.externaltools.arm-none.win32_1.17.0.201812190825/tools/compiler/bin/../lib/gcc/arm-none-eabi/7.3.1/../../../../arm-none-eabi/lib/thumb/v7e-m/fpv4-sp/hard\libc_nano.a(lib_a-nano-mallocr.o)
                              e:/stm/systemworkbenchforstm/plugins/fr.ac6.mcu.externaltools.arm-none.win32_1.17.0.201812190825/tools/compiler/bin/../lib/gcc/arm-none-eabi/7.3.1/../../../../arm-none-eabi/lib/thumb/v7e-m/fpv4-sp/hard\libc_nano.a(lib_a-malloc.o) (_malloc_r)
e:/stm/systemworkbenchforstm/plugins/fr.ac6.mcu.externaltools.arm-none.win32_1.17.0.201812190825/tools/compiler/bin/../lib/gcc/arm-none-eabi/7.3.1/../../../../arm-none-eabi/lib/thumb/v7e-m/fpv4-sp/hard\libc_nano.a(lib_a-sbrkr.o)
                              e:/stm/systemworkbenchforstm/plugins/fr.ac6.mcu.externaltools.arm-none.win32_1.17.0.201812190825/tools/compiler/bin/../lib/gcc/arm-none-eabi/7.3.1/../../../../arm-none-eabi/lib/thumb/v7e-m/fpv4-sp/hard\libc_nano.a(lib_a-nano-mallocr.o) (_sbrk_r)
e:/stm/systemworkbenchforstm/plugins/fr.ac6.mcu.externaltools.arm-none.win32_1.17.0.201812190825/tools/compiler/bin/../lib/gcc/arm-none-eabi/7.3.1/../../../../arm-none-eabi/lib/thumb/v7e-m/fpv4-sp/hard\libc_nano.a(lib_a-sprintf.o)
                              Src/Adafruit_GFX_AS.o (sprintf)
e:/stm/systemworkbenchforstm/plugins/fr.ac6.mcu.externaltools.arm-none.win32_1.17.0.201812190825/tools/compiler/bin/../lib/gcc/arm-none-eabi/7.3.1/../../../../arm-none-eabi/lib/thumb/v7e-m/fpv4-sp/hard\libc_nano.a(lib_a-mlock.o)
                              e:/stm/systemworkbenchforstm/plugins/fr.ac6.mcu.externaltools.arm-none.win32_1.17.0.201812190825/tools/compiler/bin/../lib/gcc/arm-none-eabi/7.3.1/../../../../arm-none-eabi/lib/thumb/v7e-m/fpv4-sp/hard\libc_nano.a(lib_a-nano-freer.o) (__malloc_lock)
e:/stm/systemworkbenchforstm/plugins/fr.ac6.mcu.externaltools.arm-none.win32_1.17.0.201812190825/tools/compiler/bin/../lib/gcc/arm-none-eabi/7.3.1/../../../../arm-none-eabi/lib/thumb/v7e-m/fpv4-sp/hard\libc_nano.a(lib_a-nano-svfprintf.o)
                              e:/stm/systemworkbenchforstm/plugins/fr.ac6.mcu.externaltools.arm-none.win32_1.17.0.201812190825/tools/compiler/bin/../lib/gcc/arm-none-eabi/7.3.1/../../../../arm-none-eabi/lib/thumb/v7e-m/fpv4-sp/hard\libc_nano.a(lib_a-sprintf.o) (_svfprintf_r)
e:/stm/systemworkbenchforstm/plugins/fr.ac6.mcu.externaltools.arm-none.win32_1.17.0.201812190825/tools/compiler/bin/../lib/gcc/arm-none-eabi/7.3.1/../../../../arm-none-eabi/lib/thumb/v7e-m/fpv4-sp/hard\libc_nano.a(lib_a-nano-vfprintf_i.o)
                              e:/stm/systemworkbenchforstm/plugins/fr.ac6.mcu.externaltools.arm-none.win32_1.17.0.201812190825/tools/compiler/bin/../lib/gcc/arm-none-eabi/7.3.1/../../../../arm-none-eabi/lib/thumb/v7e-m/fpv4-sp/hard\libc_nano.a(lib_a-nano-svfprintf.o) (_printf_i)
e:/stm/systemworkbenchforstm/plugins/fr.ac6.mcu.externaltools.arm-none.win32_1.17.0.201812190825/tools/compiler/bin/../lib/gcc/arm-none-eabi/7.3.1/../../../../arm-none-eabi/lib/thumb/v7e-m/fpv4-sp/hard\libc_nano.a(lib_a-reent.o)
                              e:/stm/systemworkbenchforstm/plugins/fr.ac6.mcu.externaltools.arm-none.win32_1.17.0.201812190825/tools/compiler/bin/../lib/gcc/arm-none-eabi/7.3.1/../../../../arm-none-eabi/lib/thumb/v7e-m/fpv4-sp/hard\libc_nano.a(lib_a-sbrkr.o) (errno)
e:/stm/systemworkbenchforstm/plugins/fr.ac6.mcu.externaltools.arm-none.win32_1.17.0.201812190825/tools/compiler/bin/../lib/gcc/arm-none-eabi/7.3.1/../../../../arm-none-eabi/lib/thumb/v7e-m/fpv4-sp/hard\libc_nano.a(lib_a-memchr.o)
                              e:/stm/systemworkbenchforstm/plugins/fr.ac6.mcu.externaltools.arm-none.win32_1.17.0.201812190825/tools/compiler/bin/../lib/gcc/arm-none-eabi/7.3.1/../../../../arm-none-eabi/lib/thumb/v7e-m/fpv4-sp/hard\libc_nano.a(lib_a-nano-svfprintf.o) (memchr)
e:/stm/systemworkbenchforstm/plugins/fr.ac6.mcu.externaltools.arm-none.win32_1.17.0.201812190825/tools/compiler/bin/../lib/gcc/arm-none-eabi/7.3.1/../../../../arm-none-eabi/lib/thumb/v7e-m/fpv4-sp/hard\libc_nano.a(lib_a-memcpy-stub.o)
                              e:/stm/systemworkbenchforstm/plugins/fr.ac6.mcu.externaltools.arm-none.win32_1.17.0.201812190825/tools/compiler/bin/../lib/gcc/arm-none-eabi/7.3.1/../../../../arm-none-eabi/lib/thumb/v7e-m/fpv4-sp/hard\libc_nano.a(lib_a-nano-svfprintf.o) (memcpy)
e:/stm/systemworkbenchforstm/plugins/fr.ac6.mcu.externaltools.arm-none.win32_1.17.0.201812190825/tools/compiler/bin/../lib/gcc/arm-none-eabi/7.3.1/../../../../arm-none-eabi/lib/thumb/v7e-m/fpv4-sp/hard\libc_nano.a(lib_a-memmove.o)
                              e:/stm/systemworkbenchforstm/plugins/fr.ac6.mcu.externaltools.arm-none.win32_1.17.0.201812190825/tools/compiler/bin/../lib/gcc/arm-none-eabi/7.3.1/../../../../arm-none-eabi/lib/thumb/v7e-m/fpv4-sp/hard\libc_nano.a(lib_a-nano-svfprintf.o) (memmove)
e:/stm/systemworkbenchforstm/plugins/fr.ac6.mcu.externaltools.arm-none.win32_1.17.0.201812190825/tools/compiler/bin/../lib/gcc/arm-none-eabi/7.3.1/../../../../arm-none-eabi/lib/thumb/v7e-m/fpv4-sp/hard\libc_nano.a(lib_a-nano-reallocr.o)
                              e:/stm/systemworkbenchforstm/plugins/fr.ac6.mcu.externaltools.arm-none.win32_1.17.0.201812190825/tools/compiler/bin/../lib/gcc/arm-none-eabi/7.3.1/../../../../arm-none-eabi/lib/thumb/v7e-m/fpv4-sp/hard\libc_nano.a(lib_a-nano-svfprintf.o) (_realloc_r)
e:/stm/systemworkbenchforstm/plugins/fr.ac6.mcu.externaltools.arm-none.win32_1.17.0.201812190825/tools/compiler/bin/../lib/gcc/arm-none-eabi/7.3.1/../../../../arm-none-eabi/lib/thumb/v7e-m/fpv4-sp/hard\libc_nano.a(lib_a-nano-msizer.o)
                              e:/stm/systemworkbenchforstm/plugins/fr.ac6.mcu.externaltools.arm-none.win32_1.17.0.201812190825/tools/compiler/bin/../lib/gcc/arm-none-eabi/7.3.1/../../../../arm-none-eabi/lib/thumb/v7e-m/fpv4-sp/hard\libc_nano.a(lib_a-nano-reallocr.o) (_malloc_usable_size_r)
e:/stm/systemworkbenchforstm/plugins/fr.ac6.mcu.externaltools.arm-none.win32_1.17.0.201812190825/tools/compiler/bin/../lib/gcc/arm-none-eabi/7.3.1/../../../../arm-none-eabi/lib/thumb/v7e-m/fpv4-sp/hard\libnosys.a(sbrk.o)
                              e:/stm/systemworkbenchforstm/plugins/fr.ac6.mcu.externaltools.arm-none.win32_1.17.0.201812190825/tools/compiler/bin/../lib/gcc/arm-none-eabi/7.3.1/../../../../arm-none-eabi/lib/thumb/v7e-m/fpv4-sp/hard\libc_nano.a(lib_a-sbrkr.o) (_sbrk)
e:/stm/systemworkbenchforstm/plugins/fr.ac6.mcu.externaltools.arm-none.win32_1.17.0.201812190825/tools/compiler/bin/../lib/gcc/arm-none-eabi/7.3.1/../../../../arm-none-eabi/lib/thumb/v7e-m/fpv4-sp/hard\libnosys.a(_exit.o)
                              e:/stm/systemworkbenchforstm/plugins/fr.ac6.mcu.externaltools.arm-none.win32_1.17.0.201812190825/tools/compiler/bin/../lib/gcc/arm-none-eabi/7.3.1/../../../../arm-none-eabi/lib/thumb/v7e-m/fpv4-sp/hard\libc_nano.a(lib_a-exit.o) (_exit)

Allocating common symbols
Common symbol       size              file

retSD               0x1               Src/fatfs.o
hUsbDeviceFS        0x224             Src/usb_device.o
DHT_response        0x1               Drivers/STM32F4xx_HAL_Driver/Src/stm32f4xx_hal.o
scr_refresh_enbl    0x4               Drivers/STM32F4xx_HAL_Driver/Src/stm32f4xx_hal.o
TVOC                0x4               Drivers/STM32F4xx_HAL_Driver/Src/stm32f4xx_hal.o
_freq               0x4               Src/Adafruit_GFX_AS.o
date_to_set         0x4               Drivers/STM32F4xx_HAL_Driver/Src/stm32f4xx_hal.o
save_val_enbl       0x4               Drivers/STM32F4xx_HAL_Driver/Src/stm32f4xx_hal.o
hspi2               0x58              Src/main.o
last24val           0x5a0             Drivers/STM32F4xx_HAL_Driver/Src/stm32f4xx_hal.o
crc_correct         0x4               Drivers/STM32F4xx_HAL_Driver/Src/stm32f4xx_hal.o
hourcnt             0x4               Src/main.o
errno               0x4               e:/stm/systemworkbenchforstm/plugins/fr.ac6.mcu.externaltools.arm-none.win32_1.17.0.201812190825/tools/compiler/bin/../lib/gcc/arm-none-eabi/7.3.1/../../../../arm-none-eabi/lib/thumb/v7e-m/fpv4-sp/hard\libc_nano.a(lib_a-reent.o)
_cs                 0x4               Src/Adafruit_GFX_AS.o
hadc2               0x48              Drivers/STM32F4xx_HAL_Driver/Src/stm32f4xx_hal.o
tabcolor            0x1               Src/Adafruit_GFX_AS.o
hi2c1               0x54              Drivers/STM32F4xx_HAL_Driver/Src/stm32f4xx_hal.o
hpcd_USB_OTG_FS     0x3f0             Src/usbd_conf.o
hi2c2               0x54              Src/main.o
misopinmask         0x4               Src/Adafruit_GFX_AS.o
time_to_set         0x14              Drivers/STM32F4xx_HAL_Driver/Src/stm32f4xx_hal.o
misoport            0x4               Src/Adafruit_GFX_AS.o
screen              0x1               Src/main.o
PMS                 0x7c              Src/main.o
_dc                 0x4               Src/Adafruit_GFX_AS.o
uwTick              0x4               Drivers/STM32F4xx_HAL_Driver/Src/stm32f4xx_hal.o
pFlash              0x20              Drivers/STM32F4xx_HAL_Driver/Src/stm32f4xx_hal_flash.o
UserRxBufferFS      0x800             Src/usbd_cdc_if.o
DetailedScreens     0x1248            Src/main.o
sec_counter         0x4               Drivers/STM32F4xx_HAL_Driver/Src/stm32f4xx_hal.o
_miso               0x4               Src/Adafruit_GFX_AS.o
AllValues           0xb4              Drivers/STM32F4xx_HAL_Driver/Src/stm32f4xx_hal.o
hadc1               0x48              Src/main.o
hadc3               0x48              Src/main.o
UserTxBufferFS      0x800             Src/usbd_cdc_if.o
SDPath              0x4               Src/fatfs.o
cspinmask           0x4               Src/Adafruit_GFX_AS.o
csport              0x4               Src/Adafruit_GFX_AS.o
hspi4               0x58              Drivers/STM32F4xx_HAL_Driver/Src/stm32f4xx_hal.o
CO2eq               0x4               Drivers/STM32F4xx_HAL_Driver/Src/stm32f4xx_hal.o
rotation            0x4               Src/Adafruit_HX8357.o
hrtc                0x20              Drivers/STM32F4xx_HAL_Driver/Src/stm32f4xx_hal.o
time_disp_enbl      0x4               Drivers/STM32F4xx_HAL_Driver/Src/stm32f4xx_hal.o
_rst                0x4               Src/Adafruit_GFX_AS.o
hsd                 0x84              Src/main.o
_sclk               0x4               Src/Adafruit_GFX_AS.o
huart8              0x40              Src/main.o
mosiport            0x4               Src/Adafruit_GFX_AS.o
_width              0x4               Src/Adafruit_HX8357.o
dcport              0x4               Src/Adafruit_GFX_AS.o
clkpinmask          0x4               Src/Adafruit_GFX_AS.o
last_val_save_enable
                    0x4               Drivers/STM32F4xx_HAL_Driver/Src/stm32f4xx_hal.o
htim2               0x3c              Src/main.o
dcpinmask           0x4               Src/Adafruit_GFX_AS.o
SDFile              0x30              Src/fatfs.o
textsize            0x2               Src/Adafruit_GFX_AS.o
_mosi               0x4               Src/Adafruit_GFX_AS.o
norms               0x3c              Src/main.o
_height             0x4               Src/Adafruit_HX8357.o
clkport             0x4               Src/Adafruit_GFX_AS.o
mosipinmask         0x4               Src/Adafruit_GFX_AS.o
USBD_StrDesc        0x200             Src/usbd_desc.o
SDFatFS             0x230             Src/fatfs.o
DHT_sensor          0x14              Drivers/STM32F4xx_HAL_Driver/Src/stm32f4xx_hal.o
textbgcolor         0x2               Src/Adafruit_GFX_AS.o
config              0x14              Src/main.o
textcolor           0x2               Src/Adafruit_GFX_AS.o

Discarded input sections

 .text          0x00000000        0x0 e:/stm/systemworkbenchforstm/plugins/fr.ac6.mcu.externaltools.arm-none.win32_1.17.0.201812190825/tools/compiler/bin/../lib/gcc/arm-none-eabi/7.3.1/thumb/v7e-m/fpv4-sp/hard/crti.o
 .data          0x00000000        0x0 e:/stm/systemworkbenchforstm/plugins/fr.ac6.mcu.externaltools.arm-none.win32_1.17.0.201812190825/tools/compiler/bin/../lib/gcc/arm-none-eabi/7.3.1/thumb/v7e-m/fpv4-sp/hard/crti.o
 .bss           0x00000000        0x0 e:/stm/systemworkbenchforstm/plugins/fr.ac6.mcu.externaltools.arm-none.win32_1.17.0.201812190825/tools/compiler/bin/../lib/gcc/arm-none-eabi/7.3.1/thumb/v7e-m/fpv4-sp/hard/crti.o
 .data          0x00000000        0x4 e:/stm/systemworkbenchforstm/plugins/fr.ac6.mcu.externaltools.arm-none.win32_1.17.0.201812190825/tools/compiler/bin/../lib/gcc/arm-none-eabi/7.3.1/thumb/v7e-m/fpv4-sp/hard/crtbegin.o
 .text          0x00000000       0x74 e:/stm/systemworkbenchforstm/plugins/fr.ac6.mcu.externaltools.arm-none.win32_1.17.0.201812190825/tools/compiler/bin/../lib/gcc/arm-none-eabi/7.3.1/../../../../arm-none-eabi/lib/thumb/v7e-m/fpv4-sp/hard/crt0.o
 .data          0x00000000        0x0 e:/stm/systemworkbenchforstm/plugins/fr.ac6.mcu.externaltools.arm-none.win32_1.17.0.201812190825/tools/compiler/bin/../lib/gcc/arm-none-eabi/7.3.1/../../../../arm-none-eabi/lib/thumb/v7e-m/fpv4-sp/hard/crt0.o
 .bss           0x00000000        0x0 e:/stm/systemworkbenchforstm/plugins/fr.ac6.mcu.externaltools.arm-none.win32_1.17.0.201812190825/tools/compiler/bin/../lib/gcc/arm-none-eabi/7.3.1/../../../../arm-none-eabi/lib/thumb/v7e-m/fpv4-sp/hard/crt0.o
 .ARM.extab     0x00000000        0x0 e:/stm/systemworkbenchforstm/plugins/fr.ac6.mcu.externaltools.arm-none.win32_1.17.0.201812190825/tools/compiler/bin/../lib/gcc/arm-none-eabi/7.3.1/../../../../arm-none-eabi/lib/thumb/v7e-m/fpv4-sp/hard/crt0.o
 .ARM.exidx     0x00000000        0x8 e:/stm/systemworkbenchforstm/plugins/fr.ac6.mcu.externaltools.arm-none.win32_1.17.0.201812190825/tools/compiler/bin/../lib/gcc/arm-none-eabi/7.3.1/../../../../arm-none-eabi/lib/thumb/v7e-m/fpv4-sp/hard/crt0.o
 .ARM.attributes
                0x00000000       0x20 e:/stm/systemworkbenchforstm/plugins/fr.ac6.mcu.externaltools.arm-none.win32_1.17.0.201812190825/tools/compiler/bin/../lib/gcc/arm-none-eabi/7.3.1/../../../../arm-none-eabi/lib/thumb/v7e-m/fpv4-sp/hard/crt0.o
 .group         0x00000000        0xc Drivers/STM32F4xx_HAL_Driver/Src/stm32f4xx_hal.o
 .group         0x00000000        0xc Drivers/STM32F4xx_HAL_Driver/Src/stm32f4xx_hal.o
 .group         0x00000000        0xc Drivers/STM32F4xx_HAL_Driver/Src/stm32f4xx_hal.o
 .group         0x00000000        0xc Drivers/STM32F4xx_HAL_Driver/Src/stm32f4xx_hal.o
 .group         0x00000000        0xc Drivers/STM32F4xx_HAL_Driver/Src/stm32f4xx_hal.o
 .group         0x00000000        0xc Drivers/STM32F4xx_HAL_Driver/Src/stm32f4xx_hal.o
 .group         0x00000000        0xc Drivers/STM32F4xx_HAL_Driver/Src/stm32f4xx_hal.o
Memory Configuration

Name             Origin             Length             Attributes
RAM              0x20000000         0x00030000         xrw
CCMRAM           0x10000000         0x00010000         rw
FLASH            0x08000000         0x00100000         xr
*default*        0x00000000         0xffffffff

Linker script and memory map

LOAD e:/stm/systemworkbenchforstm/plugins/fr.ac6.mcu.externaltools.arm-none.win32_1.17.0.201812190825/tools/compiler/bin/../lib/gcc/arm-none-eabi/7.3.1/thumb/v7e-m/fpv4-sp/hard/crti.o
LOAD e:/stm/systemworkbenchforstm/plugins/fr.ac6.mcu.externaltools.arm-none.win32_1.17.0.201812190825/tools/compiler/bin/../lib/gcc/arm-none-eabi/7.3.1/thumb/v7e-m/fpv4-sp/hard/crtbegin.o
LOAD e:/stm/systemworkbenchforstm/plugins/fr.ac6.mcu.externaltools.arm-none.win32_1.17.0.201812190825/tools/compiler/bin/../lib/gcc/arm-none-eabi/7.3.1/../../../../arm-none-eabi/lib/thumb/v7e-m/fpv4-sp/hard/crt0.o
LOAD Drivers/STM32F4xx_HAL_Driver/Src/stm32f4xx_hal.o
LOAD Drivers/STM32F4xx_HAL_Driver/Src/stm32f4xx_hal_adc.o
LOAD Drivers/STM32F4xx_HAL_Driver/Src/stm32f4xx_hal_adc_ex.o
LOAD Drivers/STM32F4xx_HAL_Driver/Src/stm32f4xx_hal_cortex.o
LOAD Drivers/STM32F4xx_HAL_Driver/Src/stm32f4xx_hal_dma.o
LOAD Drivers/STM32F4xx_HAL_Driver/Src/stm32f4xx_hal_dma_ex.o
LOAD Drivers/STM32F4xx_HAL_Driver/Src/stm32f4xx_hal_flash.o
LOAD Drivers/STM32F4xx_HAL_Driver/Src/stm32f4xx_hal_flash_ex.o
LOAD Drivers/STM32F4xx_HAL_Driver/Src/stm32f4xx_hal_flash_ramfunc.o
LOAD Drivers/STM32F4xx_HAL_Driver/Src/stm32f4xx_hal_gpio.o
LOAD Drivers/STM32F4xx_HAL_Driver/Src/stm32f4xx_hal_i2c.o
LOAD Drivers/STM32F4xx_HAL_Driver/Src/stm32f4xx_hal_i2c_ex.o
LOAD Drivers/STM32F4xx_HAL_Driver/Src/stm32f4xx_hal_pcd.o
LOAD Drivers/STM32F4xx_HAL_Driver/Src/stm32f4xx_hal_pcd_ex.o
LOAD Drivers/STM32F4xx_HAL_Driver/Src/stm32f4xx_hal_pwr.o
LOAD Drivers/STM32F4xx_HAL_Driver/Src/stm32f4xx_hal_pwr_ex.o
LOAD Drivers/STM32F4xx_HAL_Driver/Src/stm32f4xx_hal_rcc.o
LOAD Drivers/STM32F4xx_HAL_Driver/Src/stm32f4xx_hal_rcc_ex.o
LOAD Drivers/STM32F4xx_HAL_Driver/Src/stm32f4xx_hal_rtc.o
LOAD Drivers/STM32F4xx_HAL_Driver/Src/stm32f4xx_hal_rtc_ex.o
LOAD Drivers/STM32F4xx_HAL_Driver/Src/stm32f4xx_hal_sd.o
LOAD Drivers/STM32F4xx_HAL_Driver/Src/stm32f4xx_hal_spi.o
LOAD Drivers/STM32F4xx_HAL_Driver/Src/stm32f4xx_hal_tim.o
LOAD Drivers/STM32F4xx_HAL_Driver/Src/stm32f4xx_hal_tim_ex.o
LOAD Drivers/STM32F4xx_HAL_Driver/Src/stm32f4xx_hal_uart.o
LOAD Drivers/STM32F4xx_HAL_Driver/Src/stm32f4xx_ll_sdmmc.o
LOAD Drivers/STM32F4xx_HAL_Driver/Src/stm32f4xx_ll_usb.o
LOAD Middlewares/ST/STM32_USB_Device_Library/Class/CDC/Src/usbd_cdc.o
LOAD Middlewares/ST/STM32_USB_Device_Library/Core/Src/usbd_core.o
LOAD Middlewares/ST/STM32_USB_Device_Library/Core/Src/usbd_ctlreq.o
LOAD Middlewares/ST/STM32_USB_Device_Library/Core/Src/usbd_ioreq.o
LOAD Middlewares/Third_Party/FatFs/src/diskio.o
LOAD Middlewares/Third_Party/FatFs/src/ff.o
LOAD Middlewares/Third_Party/FatFs/src/ff_gen_drv.o
LOAD Middlewares/Third_Party/FatFs/src/option/syscall.o
LOAD Src/Adafruit_GFX_AS.o
LOAD Src/Adafruit_HX8357.o
LOAD Src/DHT22.o
LOAD Src/Font16.o
LOAD Src/Font32.o
LOAD Src/Font64.o
LOAD Src/Font7s.o
LOAD Src/PMS5003ST.o
LOAD Src/TFT.o
LOAD Src/TouchScreen.o
LOAD Src/bsp_driver_sd.o
LOAD Src/dwt_stm32_delay.o
LOAD Src/fatfs.o
LOAD Src/glcdfont.o
LOAD Src/main.o
LOAD Src/sd_diskio.o
LOAD Src/sd_functions.o
LOAD Src/sensors_I2C.o
LOAD Src/stm32f4xx_hal_msp.o
LOAD Src/stm32f4xx_it.o
LOAD Src/system_stm32f4xx.o
LOAD Src/usb_device.o
LOAD Src/usbd_cdc_if.o
LOAD Src/usbd_conf.o
LOAD Src/usbd_desc.o
LOAD startup/startup_stm32f427xx.o
LOAD e:/stm/systemworkbenchforstm/plugins/fr.ac6.mcu.externaltools.arm-none.win32_1.17.0.201812190825/tools/compiler/bin/../lib/gcc/arm-none-eabi/7.3.1/../../../../arm-none-eabi/lib/thumb/v7e-m/fpv4-sp/hard\libm.a
START GROUP
LOAD e:/stm/systemworkbenchforstm/plugins/fr.ac6.mcu.externaltools.arm-none.win32_1.17.0.201812190825/tools/compiler/bin/../lib/gcc/arm-none-eabi/7.3.1/thumb/v7e-m/fpv4-sp/hard\libgcc.a
LOAD e:/stm/systemworkbenchforstm/plugins/fr.ac6.mcu.externaltools.arm-none.win32_1.17.0.201812190825/tools/compiler/bin/../lib/gcc/arm-none-eabi/7.3.1/../../../../arm-none-eabi/lib/thumb/v7e-m/fpv4-sp/hard\libc_nano.a
END GROUP
START GROUP
LOAD e:/stm/systemworkbenchforstm/plugins/fr.ac6.mcu.externaltools.arm-none.win32_1.17.0.201812190825/tools/compiler/bin/../lib/gcc/arm-none-eabi/7.3.1/thumb/v7e-m/fpv4-sp/hard\libgcc.a
LOAD e:/stm/systemworkbenchforstm/plugins/fr.ac6.mcu.externaltools.arm-none.win32_1.17.0.201812190825/tools/compiler/bin/../lib/gcc/arm-none-eabi/7.3.1/../../../../arm-none-eabi/lib/thumb/v7e-m/fpv4-sp/hard\libc_nano.a
LOAD e:/stm/systemworkbenchforstm/plugins/fr.ac6.mcu.externaltools.arm-none.win32_1.17.0.201812190825/tools/compiler/bin/../lib/gcc/arm-none-eabi/7.3.1/../../../../arm-none-eabi/lib/thumb/v7e-m/fpv4-sp/hard\libnosys.a
END GROUP
START GROUP
LOAD e:/stm/systemworkbenchforstm/plugins/fr.ac6.mcu.externaltools.arm-none.win32_1.17.0.201812190825/tools/compiler/bin/../lib/gcc/arm-none-eabi/7.3.1/thumb/v7e-m/fpv4-sp/hard\libgcc.a
LOAD e:/stm/systemworkbenchforstm/plugins/fr.ac6.mcu.externaltools.arm-none.win32_1.17.0.201812190825/tools/compiler/bin/../lib/gcc/arm-none-eabi/7.3.1/../../../../arm-none-eabi/lib/thumb/v7e-m/fpv4-sp/hard\libc_nano.a
LOAD e:/stm/systemworkbenchforstm/plugins/fr.ac6.mcu.externaltools.arm-none.win32_1.17.0.201812190825/tools/compiler/bin/../lib/gcc/arm-none-eabi/7.3.1/../../../../arm-none-eabi/lib/thumb/v7e-m/fpv4-sp/hard\libnosys.a
END GROUP
LOAD e:/stm/systemworkbenchforstm/plugins/fr.ac6.mcu.externaltools.arm-none.win32_1.17.0.201812190825/tools/compiler/bin/../lib/gcc/arm-none-eabi/7.3.1/thumb/v7e-m/fpv4-sp/hard/crtend.o
LOAD e:/stm/systemworkbenchforstm/plugins/fr.ac6.mcu.externaltools.arm-none.win32_1.17.0.201812190825/tools/compiler/bin/../lib/gcc/arm-none-eabi/7.3.1/thumb/v7e-m/fpv4-sp/hard/crtn.o
                0x20030000                _estack = 0x20030000
                0x00000200                _Min_Heap_Size = 0x200
                0x00000400                _Min_Stack_Size = 0x400

.isr_vector     0x08000000      0x1ac
                0x08000000                . = ALIGN (0x4)
 *(.isr_vector)
 .isr_vector    0x08000000      0x1ac startup/startup_stm32f427xx.o
                0x08000000                g_pfnVectors
                0x080001ac                . = ALIGN (0x4)

.text           0x080001b0    0x18264
                0x080001b0                . = ALIGN (0x4)
 *(.text)
 .text          0x080001b0       0x40 e:/stm/systemworkbenchforstm/plugins/fr.ac6.mcu.externaltools.arm-none.win32_1.17.0.201812190825/tools/compiler/bin/../lib/gcc/arm-none-eabi/7.3.1/thumb/v7e-m/fpv4-sp/hard/crtbegin.o
 .text          0x080001f0      0x378 e:/stm/systemworkbenchforstm/plugins/fr.ac6.mcu.externaltools.arm-none.win32_1.17.0.201812190825/tools/compiler/bin/../lib/gcc/arm-none-eabi/7.3.1/thumb/v7e-m/fpv4-sp/hard\libgcc.a(_arm_addsubdf3.o)
                0x080001f0                __aeabi_drsub
                0x080001f8                __aeabi_dsub
                0x080001f8                __subdf3
                0x080001fc                __aeabi_dadd
                0x080001fc                __adddf3
                0x08000474                __floatunsidf
                0x08000474                __aeabi_ui2d
                0x08000494                __floatsidf
                0x08000494                __aeabi_i2d
                0x080004b8                __aeabi_f2d
                0x080004b8                __extendsfdf2
                0x080004fc                __floatundidf
                0x080004fc                __aeabi_ul2d
                0x0800050c                __floatdidf
                0x0800050c                __aeabi_l2d
 .text          0x08000568      0x424 e:/stm/systemworkbenchforstm/plugins/fr.ac6.mcu.externaltools.arm-none.win32_1.17.0.201812190825/tools/compiler/bin/../lib/gcc/arm-none-eabi/7.3.1/thumb/v7e-m/fpv4-sp/hard\libgcc.a(_arm_muldivdf3.o)
                0x08000568                __aeabi_dmul
                0x08000568                __muldf3
                0x080007bc                __divdf3
                0x080007bc                __aeabi_ddiv
 .text          0x0800098c      0x110 e:/stm/systemworkbenchforstm/plugins/fr.ac6.mcu.externaltools.arm-none.win32_1.17.0.201812190825/tools/compiler/bin/../lib/gcc/arm-none-eabi/7.3.1/thumb/v7e-m/fpv4-sp/hard\libgcc.a(_arm_cmpdf2.o)
                0x0800098c                __gtdf2
                0x0800098c                __gedf2
                0x08000994                __ltdf2
                0x08000994                __ledf2
                0x0800099c                __nedf2
                0x0800099c                __eqdf2
                0x0800099c                __cmpdf2
                0x08000a18                __aeabi_cdrcmple
                0x08000a28                __aeabi_cdcmpeq
                0x08000a28                __aeabi_cdcmple
                0x08000a38                __aeabi_dcmpeq
                0x08000a4c                __aeabi_dcmplt
                0x08000a60                __aeabi_dcmple
                0x08000a74                __aeabi_dcmpge
                0x08000a88                __aeabi_dcmpgt
 .text          0x08000a9c       0x2c e:/stm/systemworkbenchforstm/plugins/fr.ac6.mcu.externaltools.arm-none.win32_1.17.0.201812190825/tools/compiler/bin/../lib/gcc/arm-none-eabi/7.3.1/thumb/v7e-m/fpv4-sp/hard\libgcc.a(_arm_unorddf2.o)
                0x08000a9c                __unorddf2
                0x08000a9c                __aeabi_dcmpun
 .text          0x08000ac8       0x30 e:/stm/systemworkbenchforstm/plugins/fr.ac6.mcu.externaltools.arm-none.win32_1.17.0.201812190825/tools/compiler/bin/../lib/gcc/arm-none-eabi/7.3.1/thumb/v7e-m/fpv4-sp/hard\libgcc.a(_aeabi_uldivmod.o)
                0x08000ac8                __aeabi_uldivmod
 .text          0x08000af8      0x2cc e:/stm/systemworkbenchforstm/plugins/fr.ac6.mcu.externaltools.arm-none.win32_1.17.0.201812190825/tools/compiler/bin/../lib/gcc/arm-none-eabi/7.3.1/thumb/v7e-m/fpv4-sp/hard\libgcc.a(_udivmoddi4.o)
                0x08000af8                __udivmoddi4
 .text          0x08000dc4        0x4 e:/stm/systemworkbenchforstm/plugins/fr.ac6.mcu.externaltools.arm-none.win32_1.17.0.201812190825/tools/compiler/bin/../lib/gcc/arm-none-eabi/7.3.1/thumb/v7e-m/fpv4-sp/hard\libgcc.a(_dvmd_tls.o)
                0x08000dc4                __aeabi_idiv0
                0x08000dc4                __aeabi_ldiv0
 *fill*         0x08000dc8        0x8 
 .text          0x08000dd0       0xa0 e:/stm/systemworkbenchforstm/plugins/fr.ac6.mcu.externaltools.arm-none.win32_1.17.0.201812190825/tools/compiler/bin/../lib/gcc/arm-none-eabi/7.3.1/../../../../arm-none-eabi/lib/thumb/v7e-m/fpv4-sp/hard\libc_nano.a(lib_a-memchr.o)
                0x08000dd0                memchr
 *(.text*)
 .text.HAL_Init
                0x08000e70       0x44 Drivers/STM32F4xx_HAL_Driver/Src/stm32f4xx_hal.o
                0x08000e70                HAL_Init
 .text.HAL_InitTick
                0x08000eb4       0x60 Drivers/STM32F4xx_HAL_Driver/Src/stm32f4xx_hal.o
                0x08000eb4                HAL_InitTick
 .text.HAL_IncTick
                0x08000f14       0x28 Drivers/STM32F4xx_HAL_Driver/Src/stm32f4xx_hal.o
                0x08000f14                HAL_IncTick
 .text.HAL_GetTick
                0x08000f3c       0x18 Drivers/STM32F4xx_HAL_Driver/Src/stm32f4xx_hal.o
                0x08000f3c                HAL_GetTick
 .text.HAL_Delay
                0x08000f54       0x44 Drivers/STM32F4xx_HAL_Driver/Src/stm32f4xx_hal.o
                0x08000f54                HAL_Delay
 .text.HAL_ADC_Init
                0x08000f98       0x86 Drivers/STM32F4xx_HAL_Driver/Src/stm32f4xx_hal_adc.o
                0x08000f98                HAL_ADC_Init
 *fill*         0x0800101e        0x2 
 .text.HAL_ADC_Start
                0x08001020      0x14c Drivers/STM32F4xx_HAL_Driver/Src/stm32f4xx_hal_adc.o
                0x08001020                HAL_ADC_Start
 .text.HAL_ADC_PollForConversion
                0x0800116c      0x104 Drivers/STM32F4xx_HAL_Driver/Src/stm32f4xx_hal_adc.o
                0x0800116c                HAL_ADC_PollForConversion
 .text.HAL_ADC_Start_IT
                0x08001270      0x160 Drivers/STM32F4xx_HAL_Driver/Src/stm32f4xx_hal_adc.o
                0x08001270                HAL_ADC_Start_IT
 .text.HAL_ADC_IRQHandler
                0x080013d0      0x282 Drivers/STM32F4xx_HAL_Driver/Src/stm32f4xx_hal_adc.o
                0x080013d0                HAL_ADC_IRQHandler
 .text.HAL_ADC_GetValue
                0x08001652       0x1a Drivers/STM32F4xx_HAL_Driver/Src/stm32f4xx_hal_adc.o
                0x08001652                HAL_ADC_GetValue
 .text.HAL_ADC_LevelOutOfWindowCallback
                0x0800166c       0x14 Drivers/STM32F4xx_HAL_Driver/Src/stm32f4xx_hal_adc.o
                0x0800166c                HAL_ADC_LevelOutOfWindowCallback
 .text.HAL_ADC_ErrorCallback
                0x08001680       0x14 Drivers/STM32F4xx_HAL_Driver/Src/stm32f4xx_hal_adc.o
                0x08001680                HAL_ADC_ErrorCallback
 .text.HAL_ADC_ConfigChannel
                0x08001694      0x24c Drivers/STM32F4xx_HAL_Driver/Src/stm32f4xx_hal_adc.o
                0x08001694                HAL_ADC_ConfigChannel
 .text.ADC_Init
                0x080018e0      0x1f4 Drivers/STM32F4xx_HAL_Driver/Src/stm32f4xx_hal_adc.o
 .text.HAL_ADCEx_InjectedConvCpltCallback
                0x08001ad4       0x14 Drivers/STM32F4xx_HAL_Driver/Src/stm32f4xx_hal_adc_ex.o
                0x08001ad4                HAL_ADCEx_InjectedConvCpltCallback
 .text.NVIC_SetPriorityGrouping
                0x08001ae8       0x48 Drivers/STM32F4xx_HAL_Driver/Src/stm32f4xx_hal_cortex.o
 .text.NVIC_GetPriorityGrouping
                0x08001b30       0x1c Drivers/STM32F4xx_HAL_Driver/Src/stm32f4xx_hal_cortex.o
 .text.NVIC_EnableIRQ
                0x08001b4c       0x34 Drivers/STM32F4xx_HAL_Driver/Src/stm32f4xx_hal_cortex.o
 .text.NVIC_SetPriority
                0x08001b80       0x54 Drivers/STM32F4xx_HAL_Driver/Src/stm32f4xx_hal_cortex.o
 .text.NVIC_EncodePriority
                0x08001bd4       0x66 Drivers/STM32F4xx_HAL_Driver/Src/stm32f4xx_hal_cortex.o
 *fill*         0x08001c3a        0x2 
 .text.SysTick_Config
                0x08001c3c       0x44 Drivers/STM32F4xx_HAL_Driver/Src/stm32f4xx_hal_cortex.o
 .text.HAL_NVIC_SetPriorityGrouping
                0x08001c80       0x16 Drivers/STM32F4xx_HAL_Driver/Src/stm32f4xx_hal_cortex.o
                0x08001c80                HAL_NVIC_SetPriorityGrouping
 .text.HAL_NVIC_SetPriority
                0x08001c96       0x38 Drivers/STM32F4xx_HAL_Driver/Src/stm32f4xx_hal_cortex.o
                0x08001c96                HAL_NVIC_SetPriority
 .text.HAL_NVIC_EnableIRQ
                0x08001cce       0x1c Drivers/STM32F4xx_HAL_Driver/Src/stm32f4xx_hal_cortex.o
                0x08001cce                HAL_NVIC_EnableIRQ
 .text.HAL_SYSTICK_Config
                0x08001cea       0x18 Drivers/STM32F4xx_HAL_Driver/Src/stm32f4xx_hal_cortex.o
                0x08001cea                HAL_SYSTICK_Config
 *fill*         0x08001d02        0x2 
 .text.HAL_SYSTICK_CLKSourceConfig
                0x08001d04       0x38 Drivers/STM32F4xx_HAL_Driver/Src/stm32f4xx_hal_cortex.o
                0x08001d04                HAL_SYSTICK_CLKSourceConfig
 .text.HAL_SYSTICK_IRQHandler
                0x08001d3c        0xc Drivers/STM32F4xx_HAL_Driver/Src/stm32f4xx_hal_cortex.o
                0x08001d3c                HAL_SYSTICK_IRQHandler
 .text.HAL_SYSTICK_Callback
                0x08001d48        0xe Drivers/STM32F4xx_HAL_Driver/Src/stm32f4xx_hal_cortex.o
                0x08001d48                HAL_SYSTICK_Callback
 .text.HAL_DMA_Abort_IT
                0x08001d56       0x44 Drivers/STM32F4xx_HAL_Driver/Src/stm32f4xx_hal_dma.o
                0x08001d56                HAL_DMA_Abort_IT
 *fill*         0x08001d9a        0x2 
 .text.HAL_GPIO_Init
                0x08001d9c      0x354 Drivers/STM32F4xx_HAL_Driver/Src/stm32f4xx_hal_gpio.o
                0x08001d9c                HAL_GPIO_Init
 .text.HAL_GPIO_ReadPin
                0x080020f0       0x30 Drivers/STM32F4xx_HAL_Driver/Src/stm32f4xx_hal_gpio.o
                0x080020f0                HAL_GPIO_ReadPin
 .text.HAL_GPIO_WritePin
                0x08002120       0x32 Drivers/STM32F4xx_HAL_Driver/Src/stm32f4xx_hal_gpio.o
                0x08002120                HAL_GPIO_WritePin
 *fill*         0x08002152        0x2 
 .text.HAL_I2C_Init
                0x08002154      0x1c0 Drivers/STM32F4xx_HAL_Driver/Src/stm32f4xx_hal_i2c.o
                0x08002154                HAL_I2C_Init
 .text.HAL_I2C_Master_Transmit
                0x08002314      0x21c Drivers/STM32F4xx_HAL_Driver/Src/stm32f4xx_hal_i2c.o
                0x08002314                HAL_I2C_Master_Transmit
 .text.HAL_I2C_Master_Receive
                0x08002530      0x464 Drivers/STM32F4xx_HAL_Driver/Src/stm32f4xx_hal_i2c.o
                0x08002530                HAL_I2C_Master_Receive
 .text.I2C_MasterRequestWrite
                0x08002994      0x104 Drivers/STM32F4xx_HAL_Driver/Src/stm32f4xx_hal_i2c.o
 .text.I2C_MasterRequestRead
                0x08002a98      0x190 Drivers/STM32F4xx_HAL_Driver/Src/stm32f4xx_hal_i2c.o
 .text.I2C_WaitOnFlagUntilTimeout
                0x08002c28       0xa2 Drivers/STM32F4xx_HAL_Driver/Src/stm32f4xx_hal_i2c.o
 .text.I2C_WaitOnMasterAddressFlagUntilTimeout
                0x08002cca       0xdc Drivers/STM32F4xx_HAL_Driver/Src/stm32f4xx_hal_i2c.o
 .text.I2C_WaitOnTXEFlagUntilTimeout
                0x08002da6       0x7a Drivers/STM32F4xx_HAL_Driver/Src/stm32f4xx_hal_i2c.o
 .text.I2C_WaitOnBTFFlagUntilTimeout
                0x08002e20       0x7a Drivers/STM32F4xx_HAL_Driver/Src/stm32f4xx_hal_i2c.o
 .text.I2C_WaitOnRXNEFlagUntilTimeout
                0x08002e9a       0x94 Drivers/STM32F4xx_HAL_Driver/Src/stm32f4xx_hal_i2c.o
 .text.I2C_IsAcknowledgeFailed
                0x08002f2e       0x50 Drivers/STM32F4xx_HAL_Driver/Src/stm32f4xx_hal_i2c.o
 .text.HAL_PCD_Init
                0x08002f7e      0x20e Drivers/STM32F4xx_HAL_Driver/Src/stm32f4xx_hal_pcd.o
                0x08002f7e                HAL_PCD_Init
 .text.HAL_PCD_Start
                0x0800318c       0x44 Drivers/STM32F4xx_HAL_Driver/Src/stm32f4xx_hal_pcd.o
                0x0800318c                HAL_PCD_Start
 .text.HAL_PCD_IRQHandler
                0x080031d0      0x904 Drivers/STM32F4xx_HAL_Driver/Src/stm32f4xx_hal_pcd.o
                0x080031d0                HAL_PCD_IRQHandler
 .text.HAL_PCD_SetAddress
                0x08003ad4       0x42 Drivers/STM32F4xx_HAL_Driver/Src/stm32f4xx_hal_pcd.o
                0x08003ad4                HAL_PCD_SetAddress
 .text.HAL_PCD_EP_Open
                0x08003b16       0xd0 Drivers/STM32F4xx_HAL_Driver/Src/stm32f4xx_hal_pcd.o
                0x08003b16                HAL_PCD_EP_Open
 .text.HAL_PCD_EP_Close
                0x08003be6       0x94 Drivers/STM32F4xx_HAL_Driver/Src/stm32f4xx_hal_pcd.o
                0x08003be6                HAL_PCD_EP_Close
 .text.HAL_PCD_EP_Receive
                0x08003c7a       0x94 Drivers/STM32F4xx_HAL_Driver/Src/stm32f4xx_hal_pcd.o
                0x08003c7a                HAL_PCD_EP_Receive
 .text.HAL_PCD_EP_GetRxCount
                0x08003d0e       0x32 Drivers/STM32F4xx_HAL_Driver/Src/stm32f4xx_hal_pcd.o
                0x08003d0e                HAL_PCD_EP_GetRxCount
 .text.HAL_PCD_EP_Transmit
                0x08003d40       0x92 Drivers/STM32F4xx_HAL_Driver/Src/stm32f4xx_hal_pcd.o
                0x08003d40                HAL_PCD_EP_Transmit
 .text.HAL_PCD_EP_SetStall
                0x08003dd2       0xb6 Drivers/STM32F4xx_HAL_Driver/Src/stm32f4xx_hal_pcd.o
                0x08003dd2                HAL_PCD_EP_SetStall
 .text.HAL_PCD_EP_ClrStall
                0x08003e88       0x96 Drivers/STM32F4xx_HAL_Driver/Src/stm32f4xx_hal_pcd.o
                0x08003e88                HAL_PCD_EP_ClrStall
 .text.PCD_WriteEmptyTxFifo
                0x08003f1e      0x102 Drivers/STM32F4xx_HAL_Driver/Src/stm32f4xx_hal_pcd.o
 .text.HAL_PCDEx_SetTxFiFo
                0x08004020       0x96 Drivers/STM32F4xx_HAL_Driver/Src/stm32f4xx_hal_pcd_ex.o
                0x08004020                HAL_PCDEx_SetTxFiFo
 .text.HAL_PCDEx_SetRxFiFo
                0x080040b6       0x22 Drivers/STM32F4xx_HAL_Driver/Src/stm32f4xx_hal_pcd_ex.o
                0x080040b6                HAL_PCDEx_SetRxFiFo
 .text.HAL_RCC_OscConfig
                0x080040d8      0x484 Drivers/STM32F4xx_HAL_Driver/Src/stm32f4xx_hal_rcc.o
                0x080040d8                HAL_RCC_OscConfig
 .text.HAL_RCC_ClockConfig
                0x0800455c      0x1c4 Drivers/STM32F4xx_HAL_Driver/Src/stm32f4xx_hal_rcc.o
                0x0800455c                HAL_RCC_ClockConfig
 .text.HAL_RCC_GetSysClockFreq
                0x08004720      0x164 Drivers/STM32F4xx_HAL_Driver/Src/stm32f4xx_hal_rcc.o
                0x08004720                HAL_RCC_GetSysClockFreq
 .text.HAL_RCC_GetHCLKFreq
                0x08004884       0x18 Drivers/STM32F4xx_HAL_Driver/Src/stm32f4xx_hal_rcc.o
                0x08004884                HAL_RCC_GetHCLKFreq
 .text.HAL_RCC_GetPCLK1Freq
                0x0800489c       0x28 Drivers/STM32F4xx_HAL_Driver/Src/stm32f4xx_hal_rcc.o
                0x0800489c                HAL_RCC_GetPCLK1Freq
 .text.HAL_RCC_GetPCLK2Freq
                0x080048c4       0x28 Drivers/STM32F4xx_HAL_Driver/Src/stm32f4xx_hal_rcc.o
                0x080048c4                HAL_RCC_GetPCLK2Freq
 .text.HAL_RCCEx_PeriphCLKConfig
                0x080048ec      0x348 Drivers/STM32F4xx_HAL_Driver/Src/stm32f4xx_hal_rcc_ex.o
                0x080048ec                HAL_RCCEx_PeriphCLKConfig
 .text.HAL_RTC_Init
                0x08004c34      0x122 Drivers/STM32F4xx_HAL_Driver/Src/stm32f4xx_hal_rtc.o
                0x08004c34                HAL_RTC_Init
 .text.HAL_RTC_SetTime
                0x08004d56      0x18a Drivers/STM32F4xx_HAL_Driver/Src/stm32f4xx_hal_rtc.o
                0x08004d56                HAL_RTC_SetTime
 .text.HAL_RTC_GetTime
                0x08004ee0       0xbc Drivers/STM32F4xx_HAL_Driver/Src/stm32f4xx_hal_rtc.o
                0x08004ee0                HAL_RTC_GetTime
 .text.HAL_RTC_SetDate
                0x08004f9c      0x14e Drivers/STM32F4xx_HAL_Driver/Src/stm32f4xx_hal_rtc.o
                0x08004f9c                HAL_RTC_SetDate
 .text.HAL_RTC_GetDate
                0x080050ea       0x9e Drivers/STM32F4xx_HAL_Driver/Src/stm32f4xx_hal_rtc.o
                0x080050ea                HAL_RTC_GetDate
 .text.HAL_RTC_SetAlarm_IT
                0x08005188      0x2a8 Drivers/STM32F4xx_HAL_Driver/Src/stm32f4xx_hal_rtc.o
                0x08005188                HAL_RTC_SetAlarm_IT
 .text.HAL_RTC_AlarmIRQHandler
                0x08005430       0x8c Drivers/STM32F4xx_HAL_Driver/Src/stm32f4xx_hal_rtc.o
                0x08005430                HAL_RTC_AlarmIRQHandler
 .text.HAL_RTC_AlarmAEventCallback
                0x080054bc       0x14 Drivers/STM32F4xx_HAL_Driver/Src/stm32f4xx_hal_rtc.o
                0x080054bc                HAL_RTC_AlarmAEventCallback
 .text.HAL_RTC_WaitForSynchro
                0x080054d0       0x50 Drivers/STM32F4xx_HAL_Driver/Src/stm32f4xx_hal_rtc.o
                0x080054d0                HAL_RTC_WaitForSynchro
 .text.RTC_EnterInitMode
                0x08005520       0x58 Drivers/STM32F4xx_HAL_Driver/Src/stm32f4xx_hal_rtc.o
                0x08005520                RTC_EnterInitMode
 .text.RTC_ByteToBcd2
                0x08005578       0x3c Drivers/STM32F4xx_HAL_Driver/Src/stm32f4xx_hal_rtc.o
                0x08005578                RTC_ByteToBcd2
 .text.RTC_Bcd2ToByte
                0x080055b4       0x3c Drivers/STM32F4xx_HAL_Driver/Src/stm32f4xx_hal_rtc.o
                0x080055b4                RTC_Bcd2ToByte
 .text.HAL_RTCEx_AlarmBEventCallback
                0x080055f0       0x14 Drivers/STM32F4xx_HAL_Driver/Src/stm32f4xx_hal_rtc_ex.o
                0x080055f0                HAL_RTCEx_AlarmBEventCallback
 .text.HAL_SD_Init
                0x08005604       0x56 Drivers/STM32F4xx_HAL_Driver/Src/stm32f4xx_hal_sd.o
                0x08005604                HAL_SD_Init
 *fill*         0x0800565a        0x2 
 .text.HAL_SD_InitCard
                0x0800565c       0xb8 Drivers/STM32F4xx_HAL_Driver/Src/stm32f4xx_hal_sd.o
                0x0800565c                HAL_SD_InitCard
 .text.HAL_SD_ReadBlocks
                0x08005714      0x32e Drivers/STM32F4xx_HAL_Driver/Src/stm32f4xx_hal_sd.o
                0x08005714                HAL_SD_ReadBlocks
 .text.HAL_SD_WriteBlocks
                0x08005a42      0x2d0 Drivers/STM32F4xx_HAL_Driver/Src/stm32f4xx_hal_sd.o
                0x08005a42                HAL_SD_WriteBlocks
 .text.HAL_SD_GetCardCSD
                0x08005d12      0x452 Drivers/STM32F4xx_HAL_Driver/Src/stm32f4xx_hal_sd.o
                0x08005d12                HAL_SD_GetCardCSD
 .text.HAL_SD_GetCardInfo
                0x08006164       0x58 Drivers/STM32F4xx_HAL_Driver/Src/stm32f4xx_hal_sd.o
                0x08006164                HAL_SD_GetCardInfo
 .text.HAL_SD_ConfigWideBusOperation
                0x080061bc       0xf8 Drivers/STM32F4xx_HAL_Driver/Src/stm32f4xx_hal_sd.o
                0x080061bc                HAL_SD_ConfigWideBusOperation
 .text.HAL_SD_GetCardState
                0x080062b4       0x4a Drivers/STM32F4xx_HAL_Driver/Src/stm32f4xx_hal_sd.o
                0x080062b4                HAL_SD_GetCardState
 .text.SD_InitCard
                0x080062fe      0x192 Drivers/STM32F4xx_HAL_Driver/Src/stm32f4xx_hal_sd.o
 .text.SD_PowerON
                0x08006490      0x150 Drivers/STM32F4xx_HAL_Driver/Src/stm32f4xx_hal_sd.o
 .text.SD_SendStatus
                0x080065e0       0x54 Drivers/STM32F4xx_HAL_Driver/Src/stm32f4xx_hal_sd.o
 .text.SD_WideBus_Enable
                0x08006634       0x9a Drivers/STM32F4xx_HAL_Driver/Src/stm32f4xx_hal_sd.o
 .text.SD_WideBus_Disable
                0x080066ce       0x9a Drivers/STM32F4xx_HAL_Driver/Src/stm32f4xx_hal_sd.o
 .text.SD_FindSCR
                0x08006768      0x192 Drivers/STM32F4xx_HAL_Driver/Src/stm32f4xx_hal_sd.o
 .text.HAL_SPI_Init
                0x080068fa       0xc8 Drivers/STM32F4xx_HAL_Driver/Src/stm32f4xx_hal_spi.o
                0x080068fa                HAL_SPI_Init
 .text.HAL_SPI_Transmit
                0x080069c2      0x27a Drivers/STM32F4xx_HAL_Driver/Src/stm32f4xx_hal_spi.o
                0x080069c2                HAL_SPI_Transmit
 .text.SPI_WaitFlagStateUntilTimeout
                0x08006c3c       0xd2 Drivers/STM32F4xx_HAL_Driver/Src/stm32f4xx_hal_spi.o
 .text.SPI_CheckFlag_BSY
                0x08006d0e       0x3c Drivers/STM32F4xx_HAL_Driver/Src/stm32f4xx_hal_spi.o
 .text.HAL_TIM_Base_Init
                0x08006d4a       0x56 Drivers/STM32F4xx_HAL_Driver/Src/stm32f4xx_hal_tim.o
                0x08006d4a                HAL_TIM_Base_Init
 .text.HAL_TIM_PWM_Init
                0x08006da0       0x56 Drivers/STM32F4xx_HAL_Driver/Src/stm32f4xx_hal_tim.o
                0x08006da0                HAL_TIM_PWM_Init
 .text.HAL_TIM_PWM_MspInit
                0x08006df6       0x14 Drivers/STM32F4xx_HAL_Driver/Src/stm32f4xx_hal_tim.o
                0x08006df6                HAL_TIM_PWM_MspInit
 *fill*         0x08006e0a        0x2 
 .text.HAL_TIM_PWM_ConfigChannel
                0x08006e0c      0x18c Drivers/STM32F4xx_HAL_Driver/Src/stm32f4xx_hal_tim.o
                0x08006e0c                HAL_TIM_PWM_ConfigChannel
 .text.HAL_TIM_ConfigClockSource
                0x08006f98      0x1b6 Drivers/STM32F4xx_HAL_Driver/Src/stm32f4xx_hal_tim.o
                0x08006f98                HAL_TIM_ConfigClockSource
 *fill*         0x0800714e        0x2 
 .text.TIM_Base_SetConfig
                0x08007150      0x154 Drivers/STM32F4xx_HAL_Driver/Src/stm32f4xx_hal_tim.o
                0x08007150                TIM_Base_SetConfig
 .text.TIM_OC2_SetConfig
                0x080072a4       0xf0 Drivers/STM32F4xx_HAL_Driver/Src/stm32f4xx_hal_tim.o
                0x080072a4                TIM_OC2_SetConfig
 .text.TIM_OC1_SetConfig
                0x08007394       0xe8 Drivers/STM32F4xx_HAL_Driver/Src/stm32f4xx_hal_tim.o
 .text.TIM_OC3_SetConfig
                0x0800747c       0xf0 Drivers/STM32F4xx_HAL_Driver/Src/stm32f4xx_hal_tim.o
 .text.TIM_OC4_SetConfig
                0x0800756c       0xc0 Drivers/STM32F4xx_HAL_Driver/Src/stm32f4xx_hal_tim.o
 .text.TIM_TI1_ConfigInputStage
                0x0800762c       0x66 Drivers/STM32F4xx_HAL_Driver/Src/stm32f4xx_hal_tim.o
 .text.TIM_TI2_ConfigInputStage
                0x08007692       0x68 Drivers/STM32F4xx_HAL_Driver/Src/stm32f4xx_hal_tim.o
 .text.TIM_ITRx_SetConfig
                0x080076fa       0x40 Drivers/STM32F4xx_HAL_Driver/Src/stm32f4xx_hal_tim.o
 .text.TIM_ETR_SetConfig
                0x0800773a       0x44 Drivers/STM32F4xx_HAL_Driver/Src/stm32f4xx_hal_tim.o
 .text.HAL_TIMEx_MasterConfigSynchronization
                0x0800777e       0x8a Drivers/STM32F4xx_HAL_Driver/Src/stm32f4xx_hal_tim_ex.o
                0x0800777e                HAL_TIMEx_MasterConfigSynchronization
 .text.HAL_MultiProcessor_Init
                0x08007808       0xe0 Drivers/STM32F4xx_HAL_Driver/Src/stm32f4xx_hal_uart.o
                0x08007808                HAL_MultiProcessor_Init
 .text.HAL_UART_Receive_IT
                0x080078e8       0x9a Drivers/STM32F4xx_HAL_Driver/Src/stm32f4xx_hal_uart.o
                0x080078e8                HAL_UART_Receive_IT
 *fill*         0x08007982        0x2 
 .text.HAL_UART_IRQHandler
                0x08007984      0x1f8 Drivers/STM32F4xx_HAL_Driver/Src/stm32f4xx_hal_uart.o
                0x08007984                HAL_UART_IRQHandler
 .text.HAL_UART_TxCpltCallback
                0x08007b7c       0x14 Drivers/STM32F4xx_HAL_Driver/Src/stm32f4xx_hal_uart.o
                0x08007b7c                HAL_UART_TxCpltCallback
 .text.HAL_UART_ErrorCallback
                0x08007b90       0x14 Drivers/STM32F4xx_HAL_Driver/Src/stm32f4xx_hal_uart.o
                0x08007b90                HAL_UART_ErrorCallback
 .text.UART_EndRxTransfer
                0x08007ba4       0x3c Drivers/STM32F4xx_HAL_Driver/Src/stm32f4xx_hal_uart.o
 .text.UART_DMAAbortOnError
                0x08007be0       0x28 Drivers/STM32F4xx_HAL_Driver/Src/stm32f4xx_hal_uart.o
 .text.UART_Transmit_IT
                0x08007c08       0xac Drivers/STM32F4xx_HAL_Driver/Src/stm32f4xx_hal_uart.o
 .text.UART_EndTransmit_IT
                0x08007cb4       0x30 Drivers/STM32F4xx_HAL_Driver/Src/stm32f4xx_hal_uart.o
 .text.UART_Receive_IT
                0x08007ce4       0xf2 Drivers/STM32F4xx_HAL_Driver/Src/stm32f4xx_hal_uart.o
 *fill*         0x08007dd6        0x2 
 .text.UART_SetConfig
                0x08007dd8      0x438 Drivers/STM32F4xx_HAL_Driver/Src/stm32f4xx_hal_uart.o
 .text.SDIO_Init
                0x08008210       0x56 Drivers/STM32F4xx_HAL_Driver/Src/stm32f4xx_ll_sdmmc.o
                0x08008210                SDIO_Init
 .text.SDIO_ReadFIFO
                0x08008266       0x1a Drivers/STM32F4xx_HAL_Driver/Src/stm32f4xx_ll_sdmmc.o
                0x08008266                SDIO_ReadFIFO
 .text.SDIO_WriteFIFO
                0x08008280       0x22 Drivers/STM32F4xx_HAL_Driver/Src/stm32f4xx_ll_sdmmc.o
                0x08008280                SDIO_WriteFIFO
 .text.SDIO_PowerState_ON
                0x080082a2       0x1c Drivers/STM32F4xx_HAL_Driver/Src/stm32f4xx_ll_sdmmc.o
                0x080082a2                SDIO_PowerState_ON
 .text.SDIO_GetPowerState
                0x080082be       0x1c Drivers/STM32F4xx_HAL_Driver/Src/stm32f4xx_ll_sdmmc.o
                0x080082be                SDIO_GetPowerState
 .text.SDIO_SendCommand
                0x080082da       0x54 Drivers/STM32F4xx_HAL_Driver/Src/stm32f4xx_ll_sdmmc.o
                0x080082da                SDIO_SendCommand
 .text.SDIO_GetCommandResponse
                0x0800832e       0x1a Drivers/STM32F4xx_HAL_Driver/Src/stm32f4xx_ll_sdmmc.o
                0x0800832e                SDIO_GetCommandResponse
 .text.SDIO_GetResponse
                0x08008348       0x2a Drivers/STM32F4xx_HAL_Driver/Src/stm32f4xx_ll_sdmmc.o
                0x08008348                SDIO_GetResponse
 .text.SDIO_ConfigData
                0x08008372       0x58 Drivers/STM32F4xx_HAL_Driver/Src/stm32f4xx_ll_sdmmc.o
                0x08008372                SDIO_ConfigData
 .text.SDMMC_CmdBlockLength
                0x080083ca       0x48 Drivers/STM32F4xx_HAL_Driver/Src/stm32f4xx_ll_sdmmc.o
                0x080083ca                SDMMC_CmdBlockLength
 .text.SDMMC_CmdReadSingleBlock
                0x08008412       0x48 Drivers/STM32F4xx_HAL_Driver/Src/stm32f4xx_ll_sdmmc.o
                0x08008412                SDMMC_CmdReadSingleBlock
 .text.SDMMC_CmdReadMultiBlock
                0x0800845a       0x48 Drivers/STM32F4xx_HAL_Driver/Src/stm32f4xx_ll_sdmmc.o
                0x0800845a                SDMMC_CmdReadMultiBlock
 .text.SDMMC_CmdWriteSingleBlock
                0x080084a2       0x48 Drivers/STM32F4xx_HAL_Driver/Src/stm32f4xx_ll_sdmmc.o
                0x080084a2                SDMMC_CmdWriteSingleBlock
 .text.SDMMC_CmdWriteMultiBlock
                0x080084ea       0x48 Drivers/STM32F4xx_HAL_Driver/Src/stm32f4xx_ll_sdmmc.o
                0x080084ea                SDMMC_CmdWriteMultiBlock
 *fill*         0x08008532        0x2 
 .text.SDMMC_CmdStopTransfer
                0x08008534       0x48 Drivers/STM32F4xx_HAL_Driver/Src/stm32f4xx_ll_sdmmc.o
                0x08008534                SDMMC_CmdStopTransfer
 .text.SDMMC_CmdSelDesel
                0x0800857c       0x4a Drivers/STM32F4xx_HAL_Driver/Src/stm32f4xx_ll_sdmmc.o
                0x0800857c                SDMMC_CmdSelDesel
 .text.SDMMC_CmdGoIdleState
                0x080085c6       0x40 Drivers/STM32F4xx_HAL_Driver/Src/stm32f4xx_ll_sdmmc.o
                0x080085c6                SDMMC_CmdGoIdleState
 .text.SDMMC_CmdOperCond
                0x08008606       0x42 Drivers/STM32F4xx_HAL_Driver/Src/stm32f4xx_ll_sdmmc.o
                0x08008606                SDMMC_CmdOperCond
 .text.SDMMC_CmdAppCommand
                0x08008648       0x48 Drivers/STM32F4xx_HAL_Driver/Src/stm32f4xx_ll_sdmmc.o
                0x08008648                SDMMC_CmdAppCommand
 .text.SDMMC_CmdAppOperCommand
                0x08008690       0x4a Drivers/STM32F4xx_HAL_Driver/Src/stm32f4xx_ll_sdmmc.o
                0x08008690                SDMMC_CmdAppOperCommand
 .text.SDMMC_CmdBusWidth
                0x080086da       0x48 Drivers/STM32F4xx_HAL_Driver/Src/stm32f4xx_ll_sdmmc.o
                0x080086da                SDMMC_CmdBusWidth
 .text.SDMMC_CmdSendSCR
                0x08008722       0x46 Drivers/STM32F4xx_HAL_Driver/Src/stm32f4xx_ll_sdmmc.o
                0x08008722                SDMMC_CmdSendSCR
 .text.SDMMC_CmdSendCID
                0x08008768       0x40 Drivers/STM32F4xx_HAL_Driver/Src/stm32f4xx_ll_sdmmc.o
                0x08008768                SDMMC_CmdSendCID
 .text.SDMMC_CmdSendCSD
                0x080087a8       0x42 Drivers/STM32F4xx_HAL_Driver/Src/stm32f4xx_ll_sdmmc.o
                0x080087a8                SDMMC_CmdSendCSD
 .text.SDMMC_CmdSetRelAdd
                0x080087ea       0x46 Drivers/STM32F4xx_HAL_Driver/Src/stm32f4xx_ll_sdmmc.o
                0x080087ea                SDMMC_CmdSetRelAdd
 .text.SDMMC_CmdSendStatus
                0x08008830       0x48 Drivers/STM32F4xx_HAL_Driver/Src/stm32f4xx_ll_sdmmc.o
                0x08008830                SDMMC_CmdSendStatus
 .text.SDMMC_GetCmdError
                0x08008878       0x54 Drivers/STM32F4xx_HAL_Driver/Src/stm32f4xx_ll_sdmmc.o
 .text.SDMMC_GetCmdResp1
                0x080088cc      0x1cc Drivers/STM32F4xx_HAL_Driver/Src/stm32f4xx_ll_sdmmc.o
 .text.SDMMC_GetCmdResp2
                0x08008a98       0x80 Drivers/STM32F4xx_HAL_Driver/Src/stm32f4xx_ll_sdmmc.o
 .text.SDMMC_GetCmdResp3
                0x08008b18       0x68 Drivers/STM32F4xx_HAL_Driver/Src/stm32f4xx_ll_sdmmc.o
 .text.SDMMC_GetCmdResp6
                0x08008b80       0xdc Drivers/STM32F4xx_HAL_Driver/Src/stm32f4xx_ll_sdmmc.o
 .text.SDMMC_GetCmdResp7
                0x08008c5c       0x74 Drivers/STM32F4xx_HAL_Driver/Src/stm32f4xx_ll_sdmmc.o
 .text.USB_CoreInit
                0x08008cd0       0xa2 Drivers/STM32F4xx_HAL_Driver/Src/stm32f4xx_ll_usb.o
                0x08008cd0                USB_CoreInit
 .text.USB_EnableGlobalInt
                0x08008d72       0x22 Drivers/STM32F4xx_HAL_Driver/Src/stm32f4xx_ll_usb.o
                0x08008d72                USB_EnableGlobalInt
 .text.USB_DisableGlobalInt
                0x08008d94       0x22 Drivers/STM32F4xx_HAL_Driver/Src/stm32f4xx_ll_usb.o
                0x08008d94                USB_DisableGlobalInt
 .text.USB_SetCurrentMode
                0x08008db6       0x4e Drivers/STM32F4xx_HAL_Driver/Src/stm32f4xx_ll_usb.o
                0x08008db6                USB_SetCurrentMode
 .text.USB_DevInit
                0x08008e04      0x264 Drivers/STM32F4xx_HAL_Driver/Src/stm32f4xx_ll_usb.o
                0x08008e04                USB_DevInit
 .text.USB_FlushTxFifo
                0x08009068       0x4c Drivers/STM32F4xx_HAL_Driver/Src/stm32f4xx_ll_usb.o
                0x08009068                USB_FlushTxFifo
 .text.USB_FlushRxFifo
                0x080090b4       0x44 Drivers/STM32F4xx_HAL_Driver/Src/stm32f4xx_ll_usb.o
                0x080090b4                USB_FlushRxFifo
 .text.USB_SetDevSpeed
                0x080090f8       0x2e Drivers/STM32F4xx_HAL_Driver/Src/stm32f4xx_ll_usb.o
                0x080090f8                USB_SetDevSpeed
 .text.USB_GetDevSpeed
                0x08009126       0x6a Drivers/STM32F4xx_HAL_Driver/Src/stm32f4xx_ll_usb.o
                0x08009126                USB_GetDevSpeed
 .text.USB_ActivateEndpoint
                0x08009190      0x10a Drivers/STM32F4xx_HAL_Driver/Src/stm32f4xx_ll_usb.o
                0x08009190                USB_ActivateEndpoint
 *fill*         0x0800929a        0x2 
 .text.USB_DeactivateEndpoint
                0x0800929c      0x178 Drivers/STM32F4xx_HAL_Driver/Src/stm32f4xx_ll_usb.o
                0x0800929c                USB_DeactivateEndpoint
 .text.USB_EPStartXfer
                0x08009414      0x45c Drivers/STM32F4xx_HAL_Driver/Src/stm32f4xx_ll_usb.o
                0x08009414                USB_EPStartXfer
 .text.USB_EP0StartXfer
                0x08009870      0x2a2 Drivers/STM32F4xx_HAL_Driver/Src/stm32f4xx_ll_usb.o
                0x08009870                USB_EP0StartXfer
 .text.USB_WritePacket
                0x08009b12       0x6a Drivers/STM32F4xx_HAL_Driver/Src/stm32f4xx_ll_usb.o
                0x08009b12                USB_WritePacket
 .text.USB_ReadPacket
                0x08009b7c       0x4e Drivers/STM32F4xx_HAL_Driver/Src/stm32f4xx_ll_usb.o
                0x08009b7c                USB_ReadPacket
 .text.USB_EPSetStall
                0x08009bca       0xda Drivers/STM32F4xx_HAL_Driver/Src/stm32f4xx_ll_usb.o
                0x08009bca                USB_EPSetStall
 .text.USB_EPClearStall
                0x08009ca4       0xd2 Drivers/STM32F4xx_HAL_Driver/Src/stm32f4xx_ll_usb.o
                0x08009ca4                USB_EPClearStall
 .text.USB_SetDevAddress
                0x08009d76       0x48 Drivers/STM32F4xx_HAL_Driver/Src/stm32f4xx_ll_usb.o
                0x08009d76                USB_SetDevAddress
 .text.USB_DevConnect
                0x08009dbe       0x2c Drivers/STM32F4xx_HAL_Driver/Src/stm32f4xx_ll_usb.o
                0x08009dbe                USB_DevConnect
 .text.USB_DevDisconnect
                0x08009dea       0x2c Drivers/STM32F4xx_HAL_Driver/Src/stm32f4xx_ll_usb.o
                0x08009dea                USB_DevDisconnect
 .text.USB_ReadInterrupts
                0x08009e16       0x2a Drivers/STM32F4xx_HAL_Driver/Src/stm32f4xx_ll_usb.o
                0x08009e16                USB_ReadInterrupts
 .text.USB_ReadDevAllOutEpInterrupt
                0x08009e40       0x30 Drivers/STM32F4xx_HAL_Driver/Src/stm32f4xx_ll_usb.o
                0x08009e40                USB_ReadDevAllOutEpInterrupt
 .text.USB_ReadDevAllInEpInterrupt
                0x08009e70       0x30 Drivers/STM32F4xx_HAL_Driver/Src/stm32f4xx_ll_usb.o
                0x08009e70                USB_ReadDevAllInEpInterrupt
 .text.USB_ReadDevOutEPInterrupt
                0x08009ea0       0x38 Drivers/STM32F4xx_HAL_Driver/Src/stm32f4xx_ll_usb.o
                0x08009ea0                USB_ReadDevOutEPInterrupt
 .text.USB_ReadDevInEPInterrupt
                0x08009ed8       0x54 Drivers/STM32F4xx_HAL_Driver/Src/stm32f4xx_ll_usb.o
                0x08009ed8                USB_ReadDevInEPInterrupt
 .text.USB_GetMode
                0x08009f2c       0x1c Drivers/STM32F4xx_HAL_Driver/Src/stm32f4xx_ll_usb.o
                0x08009f2c                USB_GetMode
 .text.USB_ActivateSetup
                0x08009f48       0x66 Drivers/STM32F4xx_HAL_Driver/Src/stm32f4xx_ll_usb.o
                0x08009f48                USB_ActivateSetup
 .text.USB_EP0_OutStart
                0x08009fae       0x84 Drivers/STM32F4xx_HAL_Driver/Src/stm32f4xx_ll_usb.o
                0x08009fae                USB_EP0_OutStart
 *fill*         0x0800a032        0x2 
 .text.USB_CoreReset
                0x0800a034       0x68 Drivers/STM32F4xx_HAL_Driver/Src/stm32f4xx_ll_usb.o
 .text.USBD_CDC_Init
                0x0800a09c       0xd4 Middlewares/ST/STM32_USB_Device_Library/Class/CDC/Src/usbd_cdc.o
 .text.USBD_CDC_DeInit
                0x0800a170       0x5a Middlewares/ST/STM32_USB_Device_Library/Class/CDC/Src/usbd_cdc.o
 *fill*         0x0800a1ca        0x2 
 .text.USBD_CDC_Setup
                0x0800a1cc       0xbc Middlewares/ST/STM32_USB_Device_Library/Class/CDC/Src/usbd_cdc.o
 .text.USBD_CDC_DataIn
                0x0800a288       0x38 Middlewares/ST/STM32_USB_Device_Library/Class/CDC/Src/usbd_cdc.o
 .text.USBD_CDC_DataOut
                0x0800a2c0       0x56 Middlewares/ST/STM32_USB_Device_Library/Class/CDC/Src/usbd_cdc.o
 .text.USBD_CDC_EP0_RxReady
                0x0800a316       0x50 Middlewares/ST/STM32_USB_Device_Library/Class/CDC/Src/usbd_cdc.o
 *fill*         0x0800a366        0x2 
 .text.USBD_CDC_GetFSCfgDesc
                0x0800a368       0x20 Middlewares/ST/STM32_USB_Device_Library/Class/CDC/Src/usbd_cdc.o
 .text.USBD_CDC_GetHSCfgDesc
                0x0800a388       0x20 Middlewares/ST/STM32_USB_Device_Library/Class/CDC/Src/usbd_cdc.o
 .text.USBD_CDC_GetOtherSpeedCfgDesc
                0x0800a3a8       0x20 Middlewares/ST/STM32_USB_Device_Library/Class/CDC/Src/usbd_cdc.o
 .text.USBD_CDC_GetDeviceQualifierDescriptor
                0x0800a3c8       0x20 Middlewares/ST/STM32_USB_Device_Library/Class/CDC/Src/usbd_cdc.o
                0x0800a3c8                USBD_CDC_GetDeviceQualifierDescriptor
 .text.USBD_CDC_RegisterInterface
                0x0800a3e8       0x2e Middlewares/ST/STM32_USB_Device_Library/Class/CDC/Src/usbd_cdc.o
                0x0800a3e8                USBD_CDC_RegisterInterface
 .text.USBD_CDC_SetTxBuffer
                0x0800a416       0x34 Middlewares/ST/STM32_USB_Device_Library/Class/CDC/Src/usbd_cdc.o
                0x0800a416                USBD_CDC_SetTxBuffer
 .text.USBD_CDC_SetRxBuffer
                0x0800a44a       0x28 Middlewares/ST/STM32_USB_Device_Library/Class/CDC/Src/usbd_cdc.o
                0x0800a44a                USBD_CDC_SetRxBuffer
 .text.USBD_CDC_ReceivePacket
                0x0800a472       0x54 Middlewares/ST/STM32_USB_Device_Library/Class/CDC/Src/usbd_cdc.o
                0x0800a472                USBD_CDC_ReceivePacket
 .text.USBD_Init
                0x0800a4c6       0x56 Middlewares/ST/STM32_USB_Device_Library/Core/Src/usbd_core.o
                0x0800a4c6                USBD_Init
 .text.USBD_RegisterClass
                0x0800a51c       0x34 Middlewares/ST/STM32_USB_Device_Library/Core/Src/usbd_core.o
                0x0800a51c                USBD_RegisterClass
 .text.USBD_Start
                0x0800a550       0x18 Middlewares/ST/STM32_USB_Device_Library/Core/Src/usbd_core.o
                0x0800a550                USBD_Start
 .text.USBD_RunTestMode
                0x0800a568       0x16 Middlewares/ST/STM32_USB_Device_Library/Core/Src/usbd_core.o
                0x0800a568                USBD_RunTestMode
 .text.USBD_SetClassConfig
                0x0800a57e       0x3e Middlewares/ST/STM32_USB_Device_Library/Core/Src/usbd_core.o
                0x0800a57e                USBD_SetClassConfig
 .text.USBD_ClrClassConfig
                0x0800a5bc       0x26 Middlewares/ST/STM32_USB_Device_Library/Core/Src/usbd_core.o
                0x0800a5bc                USBD_ClrClassConfig
 .text.USBD_LL_SetupStage
                0x0800a5e2       0x94 Middlewares/ST/STM32_USB_Device_Library/Core/Src/usbd_core.o
                0x0800a5e2                USBD_LL_SetupStage
 .text.USBD_LL_DataOutStage
                0x0800a676       0xb6 Middlewares/ST/STM32_USB_Device_Library/Core/Src/usbd_core.o
                0x0800a676                USBD_LL_DataOutStage
 .text.USBD_LL_DataInStage
                0x0800a72c      0x11e Middlewares/ST/STM32_USB_Device_Library/Core/Src/usbd_core.o
                0x0800a72c                USBD_LL_DataInStage
 .text.USBD_LL_Reset
                0x0800a84a       0x5e Middlewares/ST/STM32_USB_Device_Library/Core/Src/usbd_core.o
                0x0800a84a                USBD_LL_Reset
 .text.USBD_LL_SetSpeed
                0x0800a8a8       0x20 Middlewares/ST/STM32_USB_Device_Library/Core/Src/usbd_core.o
                0x0800a8a8                USBD_LL_SetSpeed
 .text.USBD_LL_Suspend
                0x0800a8c8       0x2a Middlewares/ST/STM32_USB_Device_Library/Core/Src/usbd_core.o
                0x0800a8c8                USBD_LL_Suspend
 .text.USBD_LL_Resume
                0x0800a8f2       0x22 Middlewares/ST/STM32_USB_Device_Library/Core/Src/usbd_core.o
                0x0800a8f2                USBD_LL_Resume
 .text.USBD_LL_SOF
                0x0800a914       0x34 Middlewares/ST/STM32_USB_Device_Library/Core/Src/usbd_core.o
                0x0800a914                USBD_LL_SOF
 .text.USBD_LL_IsoINIncomplete
                0x0800a948       0x1a Middlewares/ST/STM32_USB_Device_Library/Core/Src/usbd_core.o
                0x0800a948                USBD_LL_IsoINIncomplete
 .text.USBD_LL_IsoOUTIncomplete
                0x0800a962       0x1a Middlewares/ST/STM32_USB_Device_Library/Core/Src/usbd_core.o
                0x0800a962                USBD_LL_IsoOUTIncomplete
 .text.USBD_LL_DevConnected
                0x0800a97c       0x16 Middlewares/ST/STM32_USB_Device_Library/Core/Src/usbd_core.o
                0x0800a97c                USBD_LL_DevConnected
 .text.USBD_LL_DevDisconnected
                0x0800a992       0x2e Middlewares/ST/STM32_USB_Device_Library/Core/Src/usbd_core.o
                0x0800a992                USBD_LL_DevDisconnected
 .text.USBD_StdDevReq
                0x0800a9c0       0xa0 Middlewares/ST/STM32_USB_Device_Library/Core/Src/usbd_ctlreq.o
                0x0800a9c0                USBD_StdDevReq
 .text.USBD_StdItfReq
                0x0800aa60       0x66 Middlewares/ST/STM32_USB_Device_Library/Core/Src/usbd_ctlreq.o
                0x0800aa60                USBD_StdItfReq
 .text.USBD_StdEPReq
                0x0800aac6      0x1b0 Middlewares/ST/STM32_USB_Device_Library/Core/Src/usbd_ctlreq.o
                0x0800aac6                USBD_StdEPReq
 *fill*         0x0800ac76        0x2 
 .text.USBD_GetDescriptor
                0x0800ac78      0x1e8 Middlewares/ST/STM32_USB_Device_Library/Core/Src/usbd_ctlreq.o
 .text.USBD_SetAddress
                0x0800ae60       0x7c Middlewares/ST/STM32_USB_Device_Library/Core/Src/usbd_ctlreq.o
 .text.USBD_SetConfig
                0x0800aedc      0x110 Middlewares/ST/STM32_USB_Device_Library/Core/Src/usbd_ctlreq.o
 .text.USBD_GetConfig
                0x0800afec       0x64 Middlewares/ST/STM32_USB_Device_Library/Core/Src/usbd_ctlreq.o
 .text.USBD_GetStatus
                0x0800b050       0x54 Middlewares/ST/STM32_USB_Device_Library/Core/Src/usbd_ctlreq.o
 .text.USBD_SetFeature
                0x0800b0a4       0x36 Middlewares/ST/STM32_USB_Device_Library/Core/Src/usbd_ctlreq.o
 .text.USBD_ClrFeature
                0x0800b0da       0x50 Middlewares/ST/STM32_USB_Device_Library/Core/Src/usbd_ctlreq.o
 .text.USBD_ParseSetupRequest
                0x0800b12a       0x7a Middlewares/ST/STM32_USB_Device_Library/Core/Src/usbd_ctlreq.o
                0x0800b12a                USBD_ParseSetupRequest
 .text.USBD_CtlError
                0x0800b1a4       0x22 Middlewares/ST/STM32_USB_Device_Library/Core/Src/usbd_ctlreq.o
                0x0800b1a4                USBD_CtlError
 .text.USBD_GetString
                0x0800b1c6       0x86 Middlewares/ST/STM32_USB_Device_Library/Core/Src/usbd_ctlreq.o
                0x0800b1c6                USBD_GetString
 .text.USBD_GetLen
                0x0800b24c       0x30 Middlewares/ST/STM32_USB_Device_Library/Core/Src/usbd_ctlreq.o
 .text.USBD_CtlSendData
                0x0800b27c       0x38 Middlewares/ST/STM32_USB_Device_Library/Core/Src/usbd_ioreq.o
                0x0800b27c                USBD_CtlSendData
 .text.USBD_CtlContinueSendData
                0x0800b2b4       0x24 Middlewares/ST/STM32_USB_Device_Library/Core/Src/usbd_ioreq.o
                0x0800b2b4                USBD_CtlContinueSendData
 .text.USBD_CtlPrepareRx
                0x0800b2d8       0x3c Middlewares/ST/STM32_USB_Device_Library/Core/Src/usbd_ioreq.o
                0x0800b2d8                USBD_CtlPrepareRx
 .text.USBD_CtlContinueRx
                0x0800b314       0x24 Middlewares/ST/STM32_USB_Device_Library/Core/Src/usbd_ioreq.o
                0x0800b314                USBD_CtlContinueRx
 .text.USBD_CtlSendStatus
                0x0800b338       0x26 Middlewares/ST/STM32_USB_Device_Library/Core/Src/usbd_ioreq.o
                0x0800b338                USBD_CtlSendStatus
 .text.USBD_CtlReceiveStatus
                0x0800b35e       0x26 Middlewares/ST/STM32_USB_Device_Library/Core/Src/usbd_ioreq.o
                0x0800b35e                USBD_CtlReceiveStatus
 .text.disk_status
                0x0800b384       0x34 Middlewares/Third_Party/FatFs/src/diskio.o
                0x0800b384                disk_status
 .text.disk_initialize
                0x0800b3b8       0x4c Middlewares/Third_Party/FatFs/src/diskio.o
                0x0800b3b8                disk_initialize
 .text.disk_read
                0x0800b404       0x40 Middlewares/Third_Party/FatFs/src/diskio.o
                0x0800b404                disk_read
 .text.disk_write
                0x0800b444       0x40 Middlewares/Third_Party/FatFs/src/diskio.o
                0x0800b444                disk_write
 .text.disk_ioctl
                0x0800b484       0x3c Middlewares/Third_Party/FatFs/src/diskio.o
                0x0800b484                disk_ioctl
 .text.ld_word  0x0800b4c0       0x30 Middlewares/Third_Party/FatFs/src/ff.o
 .text.ld_dword
                0x0800b4f0       0x46 Middlewares/Third_Party/FatFs/src/ff.o
 .text.st_word  0x0800b536       0x36 Middlewares/Third_Party/FatFs/src/ff.o
 .text.st_dword
                0x0800b56c       0x58 Middlewares/Third_Party/FatFs/src/ff.o
 .text.mem_cpy  0x0800b5c4       0x42 Middlewares/Third_Party/FatFs/src/ff.o
 .text.mem_set  0x0800b606       0x34 Middlewares/Third_Party/FatFs/src/ff.o
 .text.mem_cmp  0x0800b63a       0x4e Middlewares/Third_Party/FatFs/src/ff.o
 .text.chk_chr  0x0800b688       0x36 Middlewares/Third_Party/FatFs/src/ff.o
 *fill*         0x0800b6be        0x2 
 .text.chk_lock
                0x0800b6c0       0xb8 Middlewares/Third_Party/FatFs/src/ff.o
 .text.enq_lock
                0x0800b778       0x44 Middlewares/Third_Party/FatFs/src/ff.o
 .text.inc_lock
                0x0800b7bc      0x11c Middlewares/Third_Party/FatFs/src/ff.o
 .text.dec_lock
                0x0800b8d8       0x78 Middlewares/Third_Party/FatFs/src/ff.o
 .text.clear_lock
                0x0800b950       0x48 Middlewares/Third_Party/FatFs/src/ff.o
 .text.sync_window
                0x0800b998       0x88 Middlewares/Third_Party/FatFs/src/ff.o
 .text.move_window
                0x0800ba20       0x5a Middlewares/Third_Party/FatFs/src/ff.o
 *fill*         0x0800ba7a        0x2 
 .text.sync_fs  0x0800ba7c       0xdc Middlewares/Third_Party/FatFs/src/ff.o
 .text.clust2sect
                0x0800bb58       0x3e Middlewares/Third_Party/FatFs/src/ff.o
 .text.get_fat  0x0800bb96      0x14a Middlewares/Third_Party/FatFs/src/ff.o
 .text.put_fat  0x0800bce0      0x1ce Middlewares/Third_Party/FatFs/src/ff.o
 .text.remove_chain
                0x0800beae       0xca Middlewares/Third_Party/FatFs/src/ff.o
 .text.create_chain
                0x0800bf78      0x130 Middlewares/Third_Party/FatFs/src/ff.o
 .text.clmt_clust
                0x0800c0a8       0x68 Middlewares/Third_Party/FatFs/src/ff.o
 .text.dir_sdi  0x0800c110       0xf6 Middlewares/Third_Party/FatFs/src/ff.o
 .text.dir_next
                0x0800c206      0x18a Middlewares/Third_Party/FatFs/src/ff.o
 .text.dir_alloc
                0x0800c390       0x8e Middlewares/Third_Party/FatFs/src/ff.o
 .text.ld_clust
                0x0800c41e       0x3e Middlewares/Third_Party/FatFs/src/ff.o
 .text.st_clust
                0x0800c45c       0x40 Middlewares/Third_Party/FatFs/src/ff.o
 .text.dir_find
                0x0800c49c       0xaa Middlewares/Third_Party/FatFs/src/ff.o
 .text.dir_register
                0x0800c546       0x64 Middlewares/Third_Party/FatFs/src/ff.o
 *fill*         0x0800c5aa        0x2 
 .text.create_name
                0x0800c5ac      0x128 Middlewares/Third_Party/FatFs/src/ff.o
 .text.follow_path
                0x0800c6d4       0xe2 Middlewares/Third_Party/FatFs/src/ff.o
 .text.get_ldnumber
                0x0800c7b6       0x88 Middlewares/Third_Party/FatFs/src/ff.o
 *fill*         0x0800c83e        0x2 
 .text.check_fs
                0x0800c840       0xac Middlewares/Third_Party/FatFs/src/ff.o
 .text.find_volume
                0x0800c8ec      0x498 Middlewares/Third_Party/FatFs/src/ff.o
 .text.validate
                0x0800cd84       0x68 Middlewares/Third_Party/FatFs/src/ff.o
 .text.f_mount  0x0800cdec       0x8c Middlewares/Third_Party/FatFs/src/ff.o
                0x0800cdec                f_mount
 .text.f_open   0x0800ce78      0x34a Middlewares/Third_Party/FatFs/src/ff.o
                0x0800ce78                f_open
 .text.f_write  0x0800d1c2      0x2d2 Middlewares/Third_Party/FatFs/src/ff.o
                0x0800d1c2                f_write
 .text.f_sync   0x0800d494       0xc6 Middlewares/Third_Party/FatFs/src/ff.o
                0x0800d494                f_sync
 .text.f_close  0x0800d55a       0x54 Middlewares/Third_Party/FatFs/src/ff.o
                0x0800d55a                f_close
 .text.f_lseek  0x0800d5ae      0x356 Middlewares/Third_Party/FatFs/src/ff.o
                0x0800d5ae                f_lseek
 .text.putc_bfd
                0x0800d904       0x7a Middlewares/Third_Party/FatFs/src/ff.o
 .text.putc_flush
                0x0800d97e       0x4c Middlewares/Third_Party/FatFs/src/ff.o
 .text.putc_init
                0x0800d9ca       0x2a Middlewares/Third_Party/FatFs/src/ff.o
 .text.f_puts   0x0800d9f4       0x48 Middlewares/Third_Party/FatFs/src/ff.o
                0x0800d9f4                f_puts
 .text.FATFS_LinkDriverEx
                0x0800da3c       0x98 Middlewares/Third_Party/FatFs/src/ff_gen_drv.o
                0x0800da3c                FATFS_LinkDriverEx
 .text.FATFS_LinkDriver
                0x0800dad4       0x1e Middlewares/Third_Party/FatFs/src/ff_gen_drv.o
                0x0800dad4                FATFS_LinkDriver
 *fill*         0x0800daf2        0x2 
 .text.drawUnicode
                0x0800daf4      0x594 Src/Adafruit_GFX_AS.o
                0x0800daf4                drawUnicode
 .text.drawNumber
                0x0800e088       0x6c Src/Adafruit_GFX_AS.o
                0x0800e088                drawNumber
 .text.drawChar
                0x0800e0f4       0x44 Src/Adafruit_GFX_AS.o
                0x0800e0f4                drawChar
 .text.drawString
                0x0800e138       0x6e Src/Adafruit_GFX_AS.o
                0x0800e138                drawString
 *fill*         0x0800e1a6        0x2 
 .text.drawFloat
                0x0800e1a8      0x1e8 Src/Adafruit_GFX_AS.o
                0x0800e1a8                drawFloat
 .text.drawCircleHelper
                0x0800e390      0x1a6 Src/Adafruit_GFX_AS.o
                0x0800e390                drawCircleHelper
 .text.fillCircleHelper
                0x0800e536      0x162 Src/Adafruit_GFX_AS.o
                0x0800e536                fillCircleHelper
 .text.fillRoundRect
                0x0800e698       0xd2 Src/Adafruit_GFX_AS.o
                0x0800e698                fillRoundRect
 .text.drawRoundRect
                0x0800e76a      0x17a Src/Adafruit_GFX_AS.o
                0x0800e76a                drawRoundRect
 .text.drawLine
                0x0800e8e4       0xcc Src/Adafruit_GFX_AS.o
                0x0800e8e4                drawLine
 .text.writeLine
                0x0800e9b0      0x142 Src/Adafruit_GFX_AS.o
                0x0800e9b0                writeLine
 .text.drawCircle
                0x0800eaf2      0x1de Src/Adafruit_GFX_AS.o
                0x0800eaf2                drawCircle
 .text.fillCircle
                0x0800ecd0       0x68 Src/Adafruit_GFX_AS.o
                0x0800ecd0                fillCircle
 .text.color565
                0x0800ed38       0x4c Src/Adafruit_HX8357.o
                0x0800ed38                color565
 .text.begin    0x0800ed84      0x43c Src/Adafruit_HX8357.o
                0x0800ed84                begin
 .text.setRotation
                0x0800f1c0       0xb8 Src/Adafruit_HX8357.o
                0x0800f1c0                setRotation
 .text.setAddrWindow
                0x0800f278       0x64 Src/Adafruit_HX8357.o
                0x0800f278                setAddrWindow
 .text.writePixelSend
                0x0800f2dc       0x1a Src/Adafruit_HX8357.o
                0x0800f2dc                writePixelSend
 .text.writeColor
                0x0800f2f6       0x42 Src/Adafruit_HX8357.o
                0x0800f2f6                writeColor
 .text.writePixel
                0x0800f338       0x60 Src/Adafruit_HX8357.o
                0x0800f338                writePixel
 .text.writeFillRect
                0x0800f398       0xfc Src/Adafruit_HX8357.o
                0x0800f398                writeFillRect
 .text.writeFastVLine
                0x0800f494       0x3e Src/Adafruit_HX8357.o
                0x0800f494                writeFastVLine
 .text.writeFastHLine
                0x0800f4d2       0x3c Src/Adafruit_HX8357.o
                0x0800f4d2                writeFastHLine
 .text.drawPixel
                0x0800f50e       0x32 Src/Adafruit_HX8357.o
                0x0800f50e                drawPixel
 .text.drawFastVLine
                0x0800f540       0x40 Src/Adafruit_HX8357.o
                0x0800f540                drawFastVLine
 .text.drawFastHLine
                0x0800f580       0x40 Src/Adafruit_HX8357.o
                0x0800f580                drawFastHLine
 .text.fillRect
                0x0800f5c0       0x48 Src/Adafruit_HX8357.o
                0x0800f5c0                fillRect
 .text.fillScreen
                0x0800f608       0x34 Src/Adafruit_HX8357.o
                0x0800f608                fillScreen
 .text.spiWrite
                0x0800f63c       0x28 Src/Adafruit_HX8357.o
                0x0800f63c                spiWrite
 .text.startWrite
                0x0800f664       0x18 Src/Adafruit_HX8357.o
                0x0800f664                startWrite
 .text.endWrite
                0x0800f67c       0x18 Src/Adafruit_HX8357.o
                0x0800f67c                endWrite
 .text.writeCommand
                0x0800f694       0x34 Src/Adafruit_HX8357.o
                0x0800f694                writeCommand
 .text.SPI_WRITE32
                0x0800f6c8       0x3e Src/Adafruit_HX8357.o
                0x0800f6c8                SPI_WRITE32
 .text.SPI_WRITE16
                0x0800f706       0x2a Src/Adafruit_HX8357.o
                0x0800f706                SPI_WRITE16
 .text.DHT_set_configuration
                0x0800f730       0x26 Src/DHT22.o
                0x0800f730                DHT_set_configuration
 .text.DHT_set_gpio_output
                0x0800f756       0x36 Src/DHT22.o
                0x0800f756                DHT_set_gpio_output
 .text.DHT_set_gpio_input
                0x0800f78c       0x32 Src/DHT22.o
                0x0800f78c                DHT_set_gpio_input
 .text.DHT_start
                0x0800f7be       0x68 Src/DHT22.o
                0x0800f7be                DHT_start
 .text.DHT_check_response
                0x0800f826       0x7e Src/DHT22.o
                0x0800f826                DHT_check_response
 .text.DHT_read_byte
                0x0800f8a4       0xc0 Src/DHT22.o
                0x0800f8a4                DHT_read_byte
 .text.DHT_read_data
                0x0800f964       0xbe Src/DHT22.o
                0x0800f964                DHT_read_data
 .text.DHT_get_temperature
                0x0800fa22       0x1e Src/DHT22.o
                0x0800fa22                DHT_get_temperature
 .text.DHT_get_humidity
                0x0800fa40       0x1e Src/DHT22.o
                0x0800fa40                DHT_get_humidity
 .text.PMS_set_configuration
                0x0800fa5e       0x3a Src/PMS5003ST.o
                0x0800fa5e                PMS_set_configuration
 .text.PMS_initialize
                0x0800fa98       0x26 Src/PMS5003ST.o
                0x0800fa98                PMS_initialize
 .text.PMS_sleepOFF
                0x0800fabe       0x22 Src/PMS5003ST.o
                0x0800fabe                PMS_sleepOFF
 .text.PMS_get_PM1_0
                0x0800fae0       0x18 Src/PMS5003ST.o
                0x0800fae0                PMS_get_PM1_0
 .text.PMS_get_PM2_5
                0x0800faf8       0x18 Src/PMS5003ST.o
                0x0800faf8                PMS_get_PM2_5
 .text.PMS_get_PM10
                0x0800fb10       0x18 Src/PMS5003ST.o
                0x0800fb10                PMS_get_PM10
 .text.PMS_get_part_0_3
                0x0800fb28       0x18 Src/PMS5003ST.o
                0x0800fb28                PMS_get_part_0_3
 .text.PMS_get_part_0_5
                0x0800fb40       0x18 Src/PMS5003ST.o
                0x0800fb40                PMS_get_part_0_5
 .text.PMS_get_part_1_0
                0x0800fb58       0x18 Src/PMS5003ST.o
                0x0800fb58                PMS_get_part_1_0
 .text.PMS_get_part_2_5
                0x0800fb70       0x18 Src/PMS5003ST.o
                0x0800fb70                PMS_get_part_2_5
 .text.PMS_get_part_5_0
                0x0800fb88       0x18 Src/PMS5003ST.o
                0x0800fb88                PMS_get_part_5_0
 .text.PMS_get_part_10
                0x0800fba0       0x18 Src/PMS5003ST.o
                0x0800fba0                PMS_get_part_10
 .text.PMS_get_form
                0x0800fbb8       0x1e Src/PMS5003ST.o
                0x0800fbb8                PMS_get_form
 .text.PMS_get_temp
                0x0800fbd6       0x1e Src/PMS5003ST.o
                0x0800fbd6                PMS_get_temp
 .text.PMS_get_hum
                0x0800fbf4       0x1e Src/PMS5003ST.o
                0x0800fbf4                PMS_get_hum
 *fill*         0x0800fc12        0x2 
 .text.PMS_get_data
                0x0800fc14      0x14c Src/PMS5003ST.o
                0x0800fc14                PMS_get_data
 .text.MainScrTouchDetect
                0x0800fd60      0x228 Src/TFT.o
                0x0800fd60                MainScrTouchDetect
 .text.SecondScrTouchDetect
                0x0800ff88      0x228 Src/TFT.o
                0x0800ff88                SecondScrTouchDetect
 .text.DetailScrTouchDetect
                0x080101b0      0xae4 Src/TFT.o
                0x080101b0                DetailScrTouchDetect
 .text.ChartScrTouchDetect
                0x08010c94      0x2a2 Src/TFT.o
                0x08010c94                ChartScrTouchDetect
 *fill*         0x08010f36        0x2 
 .text.SettingsScrTouchDetect
                0x08010f38      0x644 Src/TFT.o
                0x08010f38                SettingsScrTouchDetect
 .text.InitMainScrArea
                0x0801157c       0xf8 Src/TFT.o
                0x0801157c                InitMainScrArea
 .text.InitCircleArea
                0x08011674      0x190 Src/TFT.o
                0x08011674                InitCircleArea
 .text.InitTitleScrArea
                0x08011804       0xae Src/TFT.o
                0x08011804                InitTitleScrArea
 *fill*         0x080118b2        0x2 
 .text.InitDetailedScreen
                0x080118b4      0x758 Src/TFT.o
                0x080118b4                InitDetailedScreen
 .text.InitMainScreen
                0x0801200c      0x1d4 Src/TFT.o
                0x0801200c                InitMainScreen
 .text.InitSecondScreen
                0x080121e0      0x1e0 Src/TFT.o
                0x080121e0                InitSecondScreen
 .text.DrawMainScrArea
                0x080123c0       0xd2 Src/TFT.o
                0x080123c0                DrawMainScrArea
 .text.DrawCircleArea
                0x08012492       0xa6 Src/TFT.o
                0x08012492                DrawCircleArea
 .text.DrawTitleArea
                0x08012538       0x4e Src/TFT.o
                0x08012538                DrawTitleArea
 *fill*         0x08012586        0x2 
 .text.DisplayMainScreen
                0x08012588       0xec Src/TFT.o
                0x08012588                DisplayMainScreen
 .text.DisplaySecondScreen
                0x08012674       0xec Src/TFT.o
                0x08012674                DisplaySecondScreen
 .text.DisplayDetailScreen
                0x08012760      0x1dc Src/TFT.o
                0x08012760                DisplayDetailScreen
 .text.DisplaySettingsScreen
                0x0801293c      0x3bc Src/TFT.o
                0x0801293c                DisplaySettingsScreen
 .text.charsInTable
                0x08012cf8       0x2e Src/TFT.o
                0x08012cf8                charsInTable
 .text.CopyCharTable
                0x08012d26       0x5e Src/TFT.o
                0x08012d26                CopyCharTable
 .text.ChangeMainScrAreaColor
                0x08012d84       0x28 Src/TFT.o
                0x08012d84                ChangeMainScrAreaColor
 *fill*         0x08012dac        0x4 
 .text.SetMainScrAreaValue
                0x08012db0      0x140 Src/TFT.o
                0x08012db0                SetMainScrAreaValue
 .text.DrawMainScrAreaValue
                0x08012ef0      0x46c Src/TFT.o
                0x08012ef0                DrawMainScrAreaValue
 *fill*         0x0801335c        0x4 
 .text.SetCircleScrAreaValue
                0x08013360       0x80 Src/TFT.o
                0x08013360                SetCircleScrAreaValue
 .text.DrawCircleAreaValue
                0x080133e0      0x3c4 Src/TFT.o
                0x080133e0                DrawCircleAreaValue
 .text.SetMainScrAreaThresholds
                0x080137a4       0x24 Src/TFT.o
                0x080137a4                SetMainScrAreaThresholds
 .text.SetMainScrAreaUnit
                0x080137c8       0x66 Src/TFT.o
                0x080137c8                SetMainScrAreaUnit
 *fill*         0x0801382e        0x2 
 .text.RefreshMainScreen
                0x08013830      0x230 Src/TFT.o
                0x08013830                RefreshMainScreen
 .text.RefreshDetailScreen
                0x08013a60       0x88 Src/TFT.o
                0x08013a60                RefreshDetailScreen
 .text.Max      0x08013ae8       0x4e Src/TFT.o
                0x08013ae8                Max
 *fill*         0x08013b36        0x2 
 .text.InitChart
                0x08013b38       0xcc Src/TFT.o
                0x08013b38                InitChart
 .text.DisplayLineChart
                0x08013c04      0x238 Src/TFT.o
                0x08013c04                DisplayLineChart
 .text.DisplayBarChart
                0x08013e3c      0x216 Src/TFT.o
                0x08013e3c                DisplayBarChart
 *fill*         0x08014052        0x2 
 .text.RecalculateValuetoChartPoint
                0x08014054       0x60 Src/TFT.o
                0x08014054                RecalculateValuetoChartPoint
 .text.InitButton
                0x080140b4       0x82 Src/TFT.o
                0x080140b4                InitButton
 .text.DisplayChartButton
                0x08014136       0x8a Src/TFT.o
                0x08014136                DisplayChartButton
 .text.SelectChartButton
                0x080141c0       0x78 Src/TFT.o
                0x080141c0                SelectChartButton
 .text.DisplayChartArea
                0x08014238      0x270 Src/TFT.o
                0x08014238                DisplayChartArea
 .text.ChartBackButtonPress
                0x080144a8      0x1b8 Src/TFT.o
                0x080144a8                ChartBackButtonPress
 .text.map      0x08014660       0x58 Src/TouchScreen.o
                0x08014660                map
 .text.adc_read
                0x080146b8       0x44 Src/TouchScreen.o
                0x080146b8                adc_read
 .text.pinMode  0x080146fc       0x4e Src/TouchScreen.o
                0x080146fc                pinMode
 *fill*         0x0801474a        0x2 
 .text.getPoint
                0x0801474c      0x24c Src/TouchScreen.o
                0x0801474c                getPoint
 .text.getScreenPoint
                0x08014998       0x5e Src/TouchScreen.o
                0x08014998                getScreenPoint
 *fill*         0x080149f6        0x2 
 .text.BSP_SD_Init
                0x080149f8       0x4c Src/bsp_driver_sd.o
                0x080149f8                BSP_SD_Init
 .text.BSP_SD_ReadBlocks
                0x08014a44       0x3c Src/bsp_driver_sd.o
                0x08014a44                BSP_SD_ReadBlocks
 .text.BSP_SD_WriteBlocks
                0x08014a80       0x3c Src/bsp_driver_sd.o
                0x08014a80                BSP_SD_WriteBlocks
 .text.BSP_SD_GetCardState
                0x08014abc       0x20 Src/bsp_driver_sd.o
                0x08014abc                BSP_SD_GetCardState
 .text.BSP_SD_GetCardInfo
                0x08014adc       0x1c Src/bsp_driver_sd.o
                0x08014adc                BSP_SD_GetCardInfo
 .text.BSP_SD_IsDetected
                0x08014af8       0x1a Src/bsp_driver_sd.o
                0x08014af8                BSP_SD_IsDetected
 *fill*         0x08014b12        0x2 
 .text.DWT_Init
                0x08014b14       0x40 Src/dwt_stm32_delay.o
                0x08014b14                DWT_Init
 .text.DWT_Delay
                0x08014b54       0x48 Src/dwt_stm32_delay.o
                0x08014b54                DWT_Delay
 .text.MX_FATFS_Init
                0x08014b9c       0x24 Src/fatfs.o
                0x08014b9c                MX_FATFS_Init
 .text.get_fattime
                0x08014bc0       0x10 Src/fatfs.o
                0x08014bc0                get_fattime
 .text.main     0x08014bd0      0x9f0 Src/main.o
                0x08014bd0                main
 .text.SystemClock_Config
                0x080155c0      0x118 Src/main.o
                0x080155c0                SystemClock_Config
 .text.MX_ADC1_Init
                0x080156d8       0xa4 Src/main.o
 .text.MX_ADC2_Init
                0x0801577c       0xa4 Src/main.o
 .text.MX_ADC3_Init
                0x08015820       0xa4 Src/main.o
 .text.MX_I2C1_Init
                0x080158c4       0x68 Src/main.o
 .text.MX_I2C2_Init
                0x0801592c       0x68 Src/main.o
 .text.MX_RTC_Init
                0x08015994      0x118 Src/main.o
 .text.MX_SDIO_SD_Init
                0x08015aac       0x40 Src/main.o
 .text.MX_SPI2_Init
                0x08015aec       0x74 Src/main.o
 .text.MX_SPI4_Init
                0x08015b60       0x78 Src/main.o
 .text.MX_TIM2_Init
                0x08015bd8       0xdc Src/main.o
 .text.MX_UART8_Init
                0x08015cb4       0x60 Src/main.o
 .text.MX_GPIO_Init
                0x08015d14      0x1e0 Src/main.o
 .text.HAL_UART_RxCpltCallback
                0x08015ef4       0x2c Src/main.o
                0x08015ef4                HAL_UART_RxCpltCallback
 .text.HAL_ADC_ConvCpltCallback
                0x08015f20       0x28 Src/main.o
                0x08015f20                HAL_ADC_ConvCpltCallback
 .text.SaveLastVal
                0x08015f48       0x78 Src/main.o
                0x08015f48                SaveLastVal
 .text.CalcDailyAverage
                0x08015fc0       0x84 Src/main.o
                0x08015fc0                CalcDailyAverage
 .text.ExcStandards
                0x08016044      0x150 Src/main.o
                0x08016044                ExcStandards
 .text.InitLast24values
                0x08016194       0x50 Src/main.o
                0x08016194                InitLast24values
 .text.InitAllValues
                0x080161e4       0x54 Src/main.o
                0x080161e4                InitAllValues
 .text._Error_Handler
                0x08016238        0xc Src/main.o
                0x08016238                _Error_Handler
 .text.SD_CheckStatus
                0x08016244       0x3c Src/sd_diskio.o
 .text.SD_initialize
                0x08016280       0x3c Src/sd_diskio.o
                0x08016280                SD_initialize
 .text.SD_status
                0x080162bc       0x1c Src/sd_diskio.o
                0x080162bc                SD_status
 .text.SD_read  0x080162d8       0x42 Src/sd_diskio.o
                0x080162d8                SD_read
 .text.SD_write
                0x0801631a       0x42 Src/sd_diskio.o
                0x0801631a                SD_write
 .text.SD_ioctl
                0x0801635c       0xb0 Src/sd_diskio.o
                0x0801635c                SD_ioctl
 .text.writeData
                0x0801640c      0x2e0 Src/sd_functions.o
                0x0801640c                writeData
 .text.open_append
                0x080166ec       0x44 Src/sd_functions.o
                0x080166ec                open_append
 .text.readCO2  0x08016730       0x70 Src/sensors_I2C.o
                0x08016730                readCO2
 .text.readTVOC
                0x080167a0       0x74 Src/sensors_I2C.o
                0x080167a0                readTVOC
 .text.initTVOC
                0x08016814       0x3c Src/sensors_I2C.o
                0x08016814                initTVOC
 .text.HAL_MspInit
                0x08016850       0xa4 Src/stm32f4xx_hal_msp.o
                0x08016850                HAL_MspInit
 .text.HAL_ADC_MspInit
                0x080168f4      0x130 Src/stm32f4xx_hal_msp.o
                0x080168f4                HAL_ADC_MspInit
 .text.HAL_I2C_MspInit
                0x08016a24       0xb0 Src/stm32f4xx_hal_msp.o
                0x08016a24                HAL_I2C_MspInit
 .text.HAL_RTC_MspInit
                0x08016ad4       0x38 Src/stm32f4xx_hal_msp.o
                0x08016ad4                HAL_RTC_MspInit
 .text.HAL_SD_MspInit
                0x08016b0c       0x88 Src/stm32f4xx_hal_msp.o
                0x08016b0c                HAL_SD_MspInit
 .text.HAL_SPI_MspInit
                0x08016b94       0xb4 Src/stm32f4xx_hal_msp.o
                0x08016b94                HAL_SPI_MspInit
 .text.HAL_TIM_Base_MspInit
                0x08016c48       0x40 Src/stm32f4xx_hal_msp.o
                0x08016c48                HAL_TIM_Base_MspInit
 .text.HAL_TIM_MspPostInit
                0x08016c88       0x40 Src/stm32f4xx_hal_msp.o
                0x08016c88                HAL_TIM_MspPostInit
 .text.HAL_UART_MspInit
                0x08016cc8       0x74 Src/stm32f4xx_hal_msp.o
                0x08016cc8                HAL_UART_MspInit
 .text.NMI_Handler
                0x08016d3c        0xe Src/stm32f4xx_it.o
                0x08016d3c                NMI_Handler
 .text.HardFault_Handler
                0x08016d4a        0x6 Src/stm32f4xx_it.o
                0x08016d4a                HardFault_Handler
 .text.MemManage_Handler
                0x08016d50        0x6 Src/stm32f4xx_it.o
                0x08016d50                MemManage_Handler
 .text.BusFault_Handler
                0x08016d56        0x6 Src/stm32f4xx_it.o
                0x08016d56                BusFault_Handler
 .text.UsageFault_Handler
                0x08016d5c        0x6 Src/stm32f4xx_it.o
                0x08016d5c                UsageFault_Handler
 .text.SVC_Handler
                0x08016d62        0xe Src/stm32f4xx_it.o
                0x08016d62                SVC_Handler
 .text.DebugMon_Handler
                0x08016d70        0xe Src/stm32f4xx_it.o
                0x08016d70                DebugMon_Handler
 .text.PendSV_Handler
                0x08016d7e        0xe Src/stm32f4xx_it.o
                0x08016d7e                PendSV_Handler
 .text.SysTick_Handler
                0x08016d8c       0x10 Src/stm32f4xx_it.o
                0x08016d8c                SysTick_Handler
 .text.ADC_IRQHandler
                0x08016d9c       0x28 Src/stm32f4xx_it.o
                0x08016d9c                ADC_IRQHandler
 .text.RTC_Alarm_IRQHandler
                0x08016dc4       0xb0 Src/stm32f4xx_it.o
                0x08016dc4                RTC_Alarm_IRQHandler
 .text.OTG_FS_IRQHandler
                0x08016e74       0x14 Src/stm32f4xx_it.o
                0x08016e74                OTG_FS_IRQHandler
 .text.UART8_IRQHandler
                0x08016e88       0x14 Src/stm32f4xx_it.o
                0x08016e88                UART8_IRQHandler
 .text.SystemInit
                0x08016e9c       0x6c Src/system_stm32f4xx.o
                0x08016e9c                SystemInit
 .text.MX_USB_DEVICE_Init
                0x08016f08       0x38 Src/usb_device.o
                0x08016f08                MX_USB_DEVICE_Init
 .text.CDC_Init_FS
                0x08016f40       0x28 Src/usbd_cdc_if.o
 .text.CDC_DeInit_FS
                0x08016f68       0x10 Src/usbd_cdc_if.o
 .text.CDC_Control_FS
                0x08016f78       0xbc Src/usbd_cdc_if.o
 .text.CDC_Receive_FS
                0x08017034       0x28 Src/usbd_cdc_if.o
 .text.HAL_PCD_MspInit
                0x0801705c       0x7c Src/usbd_conf.o
                0x0801705c                HAL_PCD_MspInit
 .text.HAL_PCD_SetupStageCallback
                0x080170d8       0x24 Src/usbd_conf.o
                0x080170d8                HAL_PCD_SetupStageCallback
 .text.HAL_PCD_DataOutStageCallback
                0x080170fc       0x36 Src/usbd_conf.o
                0x080170fc                HAL_PCD_DataOutStageCallback
 .text.HAL_PCD_DataInStageCallback
                0x08017132       0x34 Src/usbd_conf.o
                0x08017132                HAL_PCD_DataInStageCallback
 .text.HAL_PCD_SOFCallback
                0x08017166       0x1c Src/usbd_conf.o
                0x08017166                HAL_PCD_SOFCallback
 .text.HAL_PCD_ResetCallback
                0x08017182       0x50 Src/usbd_conf.o
                0x08017182                HAL_PCD_ResetCallback
 *fill*         0x080171d2        0x2 
 .text.HAL_PCD_SuspendCallback
                0x080171d4       0x4c Src/usbd_conf.o
                0x080171d4                HAL_PCD_SuspendCallback
 .text.HAL_PCD_ResumeCallback
                0x08017220       0x1c Src/usbd_conf.o
                0x08017220                HAL_PCD_ResumeCallback
 .text.HAL_PCD_ISOOUTIncompleteCallback
                0x0801723c       0x24 Src/usbd_conf.o
                0x0801723c                HAL_PCD_ISOOUTIncompleteCallback
 .text.HAL_PCD_ISOINIncompleteCallback
                0x08017260       0x24 Src/usbd_conf.o
                0x08017260                HAL_PCD_ISOINIncompleteCallback
 .text.HAL_PCD_ConnectCallback
                0x08017284       0x1c Src/usbd_conf.o
                0x08017284                HAL_PCD_ConnectCallback
 .text.HAL_PCD_DisconnectCallback
                0x080172a0       0x1c Src/usbd_conf.o
                0x080172a0                HAL_PCD_DisconnectCallback
 .text.USBD_LL_Init
                0x080172bc       0xa8 Src/usbd_conf.o
                0x080172bc                USBD_LL_Init
 .text.USBD_LL_Start
                0x08017364       0x64 Src/usbd_conf.o
                0x08017364                USBD_LL_Start
 .text.USBD_LL_OpenEP
                0x080173c8       0x7c Src/usbd_conf.o
                0x080173c8                USBD_LL_OpenEP
 .text.USBD_LL_CloseEP
                0x08017444       0x6c Src/usbd_conf.o
                0x08017444                USBD_LL_CloseEP
 .text.USBD_LL_StallEP
                0x080174b0       0x6c Src/usbd_conf.o
                0x080174b0                USBD_LL_StallEP
 .text.USBD_LL_ClearStallEP
                0x0801751c       0x6c Src/usbd_conf.o
                0x0801751c                USBD_LL_ClearStallEP
 .text.USBD_LL_IsStallEP
                0x08017588       0x58 Src/usbd_conf.o
                0x08017588                USBD_LL_IsStallEP
 .text.USBD_LL_SetUSBAddress
                0x080175e0       0x6c Src/usbd_conf.o
                0x080175e0                USBD_LL_SetUSBAddress
 .text.USBD_LL_Transmit
                0x0801764c       0x74 Src/usbd_conf.o
                0x0801764c                USBD_LL_Transmit
 .text.USBD_LL_PrepareReceive
                0x080176c0       0x74 Src/usbd_conf.o
                0x080176c0                USBD_LL_PrepareReceive
 .text.USBD_LL_GetRxDataSize
                0x08017734       0x26 Src/usbd_conf.o
                0x08017734                USBD_LL_GetRxDataSize
 *fill*         0x0801775a        0x2 
 .text.USBD_FS_DeviceDescriptor
                0x0801775c       0x24 Src/usbd_desc.o
                0x0801775c                USBD_FS_DeviceDescriptor
 .text.USBD_FS_LangIDStrDescriptor
                0x08017780       0x24 Src/usbd_desc.o
                0x08017780                USBD_FS_LangIDStrDescriptor
 .text.USBD_FS_ProductStrDescriptor
                0x080177a4       0x3c Src/usbd_desc.o
                0x080177a4                USBD_FS_ProductStrDescriptor
 .text.USBD_FS_ManufacturerStrDescriptor
                0x080177e0       0x28 Src/usbd_desc.o
                0x080177e0                USBD_FS_ManufacturerStrDescriptor
 .text.USBD_FS_SerialStrDescriptor
                0x08017808       0x3c Src/usbd_desc.o
                0x08017808                USBD_FS_SerialStrDescriptor
 .text.USBD_FS_ConfigStrDescriptor
                0x08017844       0x3c Src/usbd_desc.o
                0x08017844                USBD_FS_ConfigStrDescriptor
 .text.USBD_FS_InterfaceStrDescriptor
                0x08017880       0x3c Src/usbd_desc.o
                0x08017880                USBD_FS_InterfaceStrDescriptor
 .text.Reset_Handler
                0x080178bc       0x50 startup/startup_stm32f427xx.o
                0x080178bc                Reset_Handler
 .text.Default_Handler
                0x0801790c        0x2 startup/startup_stm32f427xx.o
                0x0801790c                HASH_RNG_IRQHandler
                0x0801790c                EXTI2_IRQHandler
                0x0801790c                TIM8_CC_IRQHandler
                0x0801790c                SPI4_IRQHandler
                0x0801790c                TIM1_CC_IRQHandler
                0x0801790c                DMA2_Stream5_IRQHandler
                0x0801790c                DMA1_Stream5_IRQHandler
                0x0801790c                PVD_IRQHandler
                0x0801790c                SDIO_IRQHandler
                0x0801790c                TAMP_STAMP_IRQHandler
                0x0801790c                CAN2_RX1_IRQHandler
                0x0801790c                EXTI3_IRQHandler
                0x0801790c                TIM8_TRG_COM_TIM14_IRQHandler
                0x0801790c                TIM1_UP_TIM10_IRQHandler
                0x0801790c                TIM8_UP_TIM13_IRQHandler
                0x0801790c                I2C3_ER_IRQHandler
                0x0801790c                EXTI0_IRQHandler
                0x0801790c                I2C2_EV_IRQHandler
                0x0801790c                DMA1_Stream2_IRQHandler
                0x0801790c                CAN1_RX0_IRQHandler
                0x0801790c                FPU_IRQHandler
                0x0801790c                OTG_HS_WKUP_IRQHandler
                0x0801790c                CAN2_SCE_IRQHandler
                0x0801790c                DMA2_Stream2_IRQHandler
                0x0801790c                SPI1_IRQHandler
                0x0801790c                TIM6_DAC_IRQHandler
                0x0801790c                TIM1_BRK_TIM9_IRQHandler
                0x0801790c                DCMI_IRQHandler
                0x0801790c                CAN2_RX0_IRQHandler
                0x0801790c                DMA2_Stream3_IRQHandler
                0x0801790c                USART6_IRQHandler
                0x0801790c                USART3_IRQHandler
                0x0801790c                CAN1_RX1_IRQHandler
                0x0801790c                UART5_IRQHandler
                0x0801790c                DMA2_Stream0_IRQHandler
                0x0801790c                TIM4_IRQHandler
                0x0801790c                I2C1_EV_IRQHandler
                0x0801790c                DMA1_Stream6_IRQHandler
                0x0801790c                DMA1_Stream1_IRQHandler
                0x0801790c                UART4_IRQHandler
                0x0801790c                TIM3_IRQHandler
                0x0801790c                RCC_IRQHandler
                0x0801790c                TIM8_BRK_TIM12_IRQHandler
                0x0801790c                Default_Handler
                0x0801790c                EXTI15_10_IRQHandler
                0x0801790c                DMA1_Stream7_IRQHandler
                0x0801790c                SPI5_IRQHandler
                0x0801790c                TIM7_IRQHandler
                0x0801790c                CAN2_TX_IRQHandler
                0x0801790c                TIM5_IRQHandler
                0x0801790c                DMA2_Stream7_IRQHandler
                0x0801790c                I2C3_EV_IRQHandler
                0x0801790c                EXTI9_5_IRQHandler
                0x0801790c                RTC_WKUP_IRQHandler
                0x0801790c                ETH_WKUP_IRQHandler
                0x0801790c                SPI2_IRQHandler
                0x0801790c                OTG_HS_EP1_IN_IRQHandler
                0x0801790c                DMA1_Stream0_IRQHandler
                0x0801790c                CAN1_TX_IRQHandler
                0x0801790c                EXTI4_IRQHandler
                0x0801790c                ETH_IRQHandler
                0x0801790c                OTG_HS_EP1_OUT_IRQHandler
                0x0801790c                WWDG_IRQHandler
                0x0801790c                SPI6_IRQHandler
                0x0801790c                TIM2_IRQHandler
                0x0801790c                OTG_FS_WKUP_IRQHandler
                0x0801790c                TIM1_TRG_COM_TIM11_IRQHandler
                0x0801790c                OTG_HS_IRQHandler
                0x0801790c                DMA2D_IRQHandler
                0x0801790c                EXTI1_IRQHandler
                0x0801790c                UART7_IRQHandler
                0x0801790c                USART2_IRQHandler
                0x0801790c                I2C2_ER_IRQHandler
                0x0801790c                DMA2_Stream1_IRQHandler
                0x0801790c                CAN1_SCE_IRQHandler
                0x0801790c                FLASH_IRQHandler
                0x0801790c                DMA2_Stream4_IRQHandler
                0x0801790c                USART1_IRQHandler
                0x0801790c                SPI3_IRQHandler
                0x0801790c                DMA1_Stream4_IRQHandler
                0x0801790c                I2C1_ER_IRQHandler
                0x0801790c                FMC_IRQHandler
                0x0801790c                DMA2_Stream6_IRQHandler
                0x0801790c                SAI1_IRQHandler
                0x0801790c                DMA1_Stream3_IRQHandler
 *fill*         0x0801790e        0x2 
 .text.sqrt     0x08017910       0xb8 e:/stm/systemworkbenchforstm/plugins/fr.ac6.mcu.externaltools.arm-none.win32_1.17.0.201812190825/tools/compiler/bin/../lib/gcc/arm-none-eabi/7.3.1/../../../../arm-none-eabi/lib/thumb/v7e-m/fpv4-sp/hard\libm.a(lib_a-w_sqrt.o)
                0x08017910                sqrt
 .text.__ieee754_sqrt
                0x080179c8      0x194 e:/stm/systemworkbenchforstm/plugins/fr.ac6.mcu.externaltools.arm-none.win32_1.17.0.201812190825/tools/compiler/bin/../lib/gcc/arm-none-eabi/7.3.1/../../../../arm-none-eabi/lib/thumb/v7e-m/fpv4-sp/hard\libm.a(lib_a-e_sqrt.o)
                0x080179c8                __ieee754_sqrt
 .text.matherr  0x08017b5c        0x4 e:/stm/systemworkbenchforstm/plugins/fr.ac6.mcu.externaltools.arm-none.win32_1.17.0.201812190825/tools/compiler/bin/../lib/gcc/arm-none-eabi/7.3.1/../../../../arm-none-eabi/lib/thumb/v7e-m/fpv4-sp/hard\libm.a(lib_a-s_matherr.o)
                0x08017b5c                matherr
 .text.__errno  0x08017b60        0xc e:/stm/systemworkbenchforstm/plugins/fr.ac6.mcu.externaltools.arm-none.win32_1.17.0.201812190825/tools/compiler/bin/../lib/gcc/arm-none-eabi/7.3.1/../../../../arm-none-eabi/lib/thumb/v7e-m/fpv4-sp/hard\libc_nano.a(lib_a-errno.o)
                0x08017b60                __errno
 .text.__libc_init_array
                0x08017b6c       0x48 e:/stm/systemworkbenchforstm/plugins/fr.ac6.mcu.externaltools.arm-none.win32_1.17.0.201812190825/tools/compiler/bin/../lib/gcc/arm-none-eabi/7.3.1/../../../../arm-none-eabi/lib/thumb/v7e-m/fpv4-sp/hard\libc_nano.a(lib_a-init.o)
                0x08017b6c                __libc_init_array
 .text.malloc   0x08017bb4       0x10 e:/stm/systemworkbenchforstm/plugins/fr.ac6.mcu.externaltools.arm-none.win32_1.17.0.201812190825/tools/compiler/bin/../lib/gcc/arm-none-eabi/7.3.1/../../../../arm-none-eabi/lib/thumb/v7e-m/fpv4-sp/hard\libc_nano.a(lib_a-malloc.o)
                0x08017bb4                malloc
 .text.free     0x08017bc4       0x10 e:/stm/systemworkbenchforstm/plugins/fr.ac6.mcu.externaltools.arm-none.win32_1.17.0.201812190825/tools/compiler/bin/../lib/gcc/arm-none-eabi/7.3.1/../../../../arm-none-eabi/lib/thumb/v7e-m/fpv4-sp/hard\libc_nano.a(lib_a-malloc.o)
                0x08017bc4                free
 .text._free_r  0x08017bd4       0x9c e:/stm/systemworkbenchforstm/plugins/fr.ac6.mcu.externaltools.arm-none.win32_1.17.0.201812190825/tools/compiler/bin/../lib/gcc/arm-none-eabi/7.3.1/../../../../arm-none-eabi/lib/thumb/v7e-m/fpv4-sp/hard\libc_nano.a(lib_a-nano-freer.o)
                0x08017bd4                _free_r
 .text._malloc_r
                0x08017c70       0xb4 e:/stm/systemworkbenchforstm/plugins/fr.ac6.mcu.externaltools.arm-none.win32_1.17.0.201812190825/tools/compiler/bin/../lib/gcc/arm-none-eabi/7.3.1/../../../../arm-none-eabi/lib/thumb/v7e-m/fpv4-sp/hard\libc_nano.a(lib_a-nano-mallocr.o)
                0x08017c70                _malloc_r
 .text._sbrk_r  0x08017d24       0x20 e:/stm/systemworkbenchforstm/plugins/fr.ac6.mcu.externaltools.arm-none.win32_1.17.0.201812190825/tools/compiler/bin/../lib/gcc/arm-none-eabi/7.3.1/../../../../arm-none-eabi/lib/thumb/v7e-m/fpv4-sp/hard\libc_nano.a(lib_a-sbrkr.o)
                0x08017d24                _sbrk_r
 .text.sprintf  0x08017d44       0x40 e:/stm/systemworkbenchforstm/plugins/fr.ac6.mcu.externaltools.arm-none.win32_1.17.0.201812190825/tools/compiler/bin/../lib/gcc/arm-none-eabi/7.3.1/../../../../arm-none-eabi/lib/thumb/v7e-m/fpv4-sp/hard\libc_nano.a(lib_a-sprintf.o)
                0x08017d44                siprintf
                0x08017d44                sprintf
 .text.__malloc_lock
                0x08017d84        0x2 e:/stm/systemworkbenchforstm/plugins/fr.ac6.mcu.externaltools.arm-none.win32_1.17.0.201812190825/tools/compiler/bin/../lib/gcc/arm-none-eabi/7.3.1/../../../../arm-none-eabi/lib/thumb/v7e-m/fpv4-sp/hard\libc_nano.a(lib_a-mlock.o)
                0x08017d84                __malloc_lock
 .text.__malloc_unlock
                0x08017d86        0x2 e:/stm/systemworkbenchforstm/plugins/fr.ac6.mcu.externaltools.arm-none.win32_1.17.0.201812190825/tools/compiler/bin/../lib/gcc/arm-none-eabi/7.3.1/../../../../arm-none-eabi/lib/thumb/v7e-m/fpv4-sp/hard\libc_nano.a(lib_a-mlock.o)
                0x08017d86                __malloc_unlock
 .text.__ssputs_r
                0x08017d88       0xb4 e:/stm/systemworkbenchforstm/plugins/fr.ac6.mcu.externaltools.arm-none.win32_1.17.0.201812190825/tools/compiler/bin/../lib/gcc/arm-none-eabi/7.3.1/../../../../arm-none-eabi/lib/thumb/v7e-m/fpv4-sp/hard\libc_nano.a(lib_a-nano-svfprintf.o)
                0x08017d88                __ssputs_r
 .text._svfprintf_r
                0x08017e3c      0x1f0 e:/stm/systemworkbenchforstm/plugins/fr.ac6.mcu.externaltools.arm-none.win32_1.17.0.201812190825/tools/compiler/bin/../lib/gcc/arm-none-eabi/7.3.1/../../../../arm-none-eabi/lib/thumb/v7e-m/fpv4-sp/hard\libc_nano.a(lib_a-nano-svfprintf.o)
                0x08017e3c                _svfiprintf_r
                0x08017e3c                _svfprintf_r
 .text._printf_common
                0x0801802c       0xea e:/stm/systemworkbenchforstm/plugins/fr.ac6.mcu.externaltools.arm-none.win32_1.17.0.201812190825/tools/compiler/bin/../lib/gcc/arm-none-eabi/7.3.1/../../../../arm-none-eabi/lib/thumb/v7e-m/fpv4-sp/hard\libc_nano.a(lib_a-nano-vfprintf_i.o)
                0x0801802c                _printf_common
 *fill*         0x08018116        0x2 
 .text._printf_i
                0x08018118      0x224 e:/stm/systemworkbenchforstm/plugins/fr.ac6.mcu.externaltools.arm-none.win32_1.17.0.201812190825/tools/compiler/bin/../lib/gcc/arm-none-eabi/7.3.1/../../../../arm-none-eabi/lib/thumb/v7e-m/fpv4-sp/hard\libc_nano.a(lib_a-nano-vfprintf_i.o)
                0x08018118                _printf_i
 .text.memcpy   0x0801833c       0x16 e:/stm/systemworkbenchforstm/plugins/fr.ac6.mcu.externaltools.arm-none.win32_1.17.0.201812190825/tools/compiler/bin/../lib/gcc/arm-none-eabi/7.3.1/../../../../arm-none-eabi/lib/thumb/v7e-m/fpv4-sp/hard\libc_nano.a(lib_a-memcpy-stub.o)
                0x0801833c                memcpy
 .text.memmove  0x08018352       0x32 e:/stm/systemworkbenchforstm/plugins/fr.ac6.mcu.externaltools.arm-none.win32_1.17.0.201812190825/tools/compiler/bin/../lib/gcc/arm-none-eabi/7.3.1/../../../../arm-none-eabi/lib/thumb/v7e-m/fpv4-sp/hard\libc_nano.a(lib_a-memmove.o)
                0x08018352                memmove
 .text._realloc_r
                0x08018384       0x4c e:/stm/systemworkbenchforstm/plugins/fr.ac6.mcu.externaltools.arm-none.win32_1.17.0.201812190825/tools/compiler/bin/../lib/gcc/arm-none-eabi/7.3.1/../../../../arm-none-eabi/lib/thumb/v7e-m/fpv4-sp/hard\libc_nano.a(lib_a-nano-reallocr.o)
                0x08018384                _realloc_r
 .text._malloc_usable_size_r
                0x080183d0       0x10 e:/stm/systemworkbenchforstm/plugins/fr.ac6.mcu.externaltools.arm-none.win32_1.17.0.201812190825/tools/compiler/bin/../lib/gcc/arm-none-eabi/7.3.1/../../../../arm-none-eabi/lib/thumb/v7e-m/fpv4-sp/hard\libc_nano.a(lib_a-nano-msizer.o)
                0x080183d0                _malloc_usable_size_r
 .text._sbrk    0x080183e0       0x1c e:/stm/systemworkbenchforstm/plugins/fr.ac6.mcu.externaltools.arm-none.win32_1.17.0.201812190825/tools/compiler/bin/../lib/gcc/arm-none-eabi/7.3.1/../../../../arm-none-eabi/lib/thumb/v7e-m/fpv4-sp/hard\libnosys.a(sbrk.o)
                0x080183e0                _sbrk
 *(.glue_7)
 .glue_7        0x080183fc        0x0 linker stubs
 *(.glue_7t)
 .glue_7t       0x080183fc        0x0 linker stubs
 *(.eh_frame)
 .eh_frame      0x080183fc        0x0 e:/stm/systemworkbenchforstm/plugins/fr.ac6.mcu.externaltools.arm-none.win32_1.17.0.201812190825/tools/compiler/bin/../lib/gcc/arm-none-eabi/7.3.1/thumb/v7e-m/fpv4-sp/hard/crtbegin.o
 *(.init)
 .init          0x080183fc        0x4 e:/stm/systemworkbenchforstm/plugins/fr.ac6.mcu.externaltools.arm-none.win32_1.17.0.201812190825/tools/compiler/bin/../lib/gcc/arm-none-eabi/7.3.1/thumb/v7e-m/fpv4-sp/hard/crti.o
                0x080183fc                _init
 .init          0x08018400        0x8 e:/stm/systemworkbenchforstm/plugins/fr.ac6.mcu.externaltools.arm-none.win32_1.17.0.201812190825/tools/compiler/bin/../lib/gcc/arm-none-eabi/7.3.1/thumb/v7e-m/fpv4-sp/hard/crtn.o
 *(.fini)
 .fini          0x08018408        0x4 e:/stm/systemworkbenchforstm/plugins/fr.ac6.mcu.externaltools.arm-none.win32_1.17.0.201812190825/tools/compiler/bin/../lib/gcc/arm-none-eabi/7.3.1/thumb/v7e-m/fpv4-sp/hard/crti.o
                0x08018408                _fini
 .fini          0x0801840c        0x8 e:/stm/systemworkbenchforstm/plugins/fr.ac6.mcu.externaltools.arm-none.win32_1.17.0.201812190825/tools/compiler/bin/../lib/gcc/arm-none-eabi/7.3.1/thumb/v7e-m/fpv4-sp/hard/crtn.o
                0x08018414                . = ALIGN (0x4)
                0x08018414                _etext = .

.vfp11_veneer   0x08018414        0x0
 .vfp11_veneer  0x08018414        0x0 linker stubs

.v4_bx          0x08018414        0x0
 .v4_bx         0x08018414        0x0 linker stubs

.iplt           0x08018414        0x0
 .iplt          0x08018414        0x0 e:/stm/systemworkbenchforstm/plugins/fr.ac6.mcu.externaltools.arm-none.win32_1.17.0.201812190825/tools/compiler/bin/../lib/gcc/arm-none-eabi/7.3.1/thumb/v7e-m/fpv4-sp/hard/crtbegin.o

.rodata         0x08018414     0x4914
                0x08018414                . = ALIGN (0x4)
 *(.rodata)
 .rodata        0x08018414       0xe2 Middlewares/Third_Party/FatFs/src/ff.o
 *fill*         0x080184f6        0x2 
 .rodata        0x080184f8      0x504 Src/Adafruit_GFX_AS.o
 .rodata        0x080189fc      0x820 Src/Font16.o
                0x080189fc                widtbl_f16
                0x08018a5c                chr_f16_20
                0x08018a6c                chr_f16_21
                0x08018a7c                chr_f16_22
                0x08018a8c                chr_f16_23
                0x08018a9c                chr_f16_24
                0x08018aac                chr_f16_25
                0x08018abc                chr_f16_26
                0x08018acc                chr_f16_27
                0x08018adc                chr_f16_28
                0x08018aec                chr_f16_29
                0x08018afc                chr_f16_2A
                0x08018b0c                chr_f16_2B
                0x08018b1c                chr_f16_2C
                0x08018b2c                chr_f16_2D
                0x08018b3c                chr_f16_2E
                0x08018b4c                chr_f16_2F
                0x08018b5c                chr_f16_30
                0x08018b6c                chr_f16_31
                0x08018b7c                chr_f16_32
                0x08018b8c                chr_f16_33
                0x08018b9c                chr_f16_34
                0x08018bac                chr_f16_35
                0x08018bbc                chr_f16_36
                0x08018bcc                chr_f16_37
                0x08018bdc                chr_f16_38
                0x08018bec                chr_f16_39
                0x08018bfc                chr_f16_3A
                0x08018c0c                chr_f16_3B
                0x08018c1c                chr_f16_3C
                0x08018c2c                chr_f16_3D
                0x08018c3c                chr_f16_3E
                0x08018c4c                chr_f16_3F
                0x08018c5c                chr_f16_40
                0x08018c6c                chr_f16_41
                0x08018c7c                chr_f16_42
                0x08018c8c                chr_f16_43
                0x08018c9c                chr_f16_44
                0x08018cac                chr_f16_45
                0x08018cbc                chr_f16_46
                0x08018ccc                chr_f16_47
                0x08018cdc                chr_f16_48
                0x08018cec                chr_f16_49
                0x08018cfc                chr_f16_4A
                0x08018d0c                chr_f16_4B
                0x08018d1c                chr_f16_4C
                0x08018d2c                chr_f16_4D
                0x08018d4c                chr_f16_4E
                0x08018d5c                chr_f16_4F
                0x08018d6c                chr_f16_50
                0x08018d7c                chr_f16_51
                0x08018d8c                chr_f16_52
                0x08018d9c                chr_f16_53
                0x08018dac                chr_f16_54
                0x08018dbc                chr_f16_55
                0x08018dcc                chr_f16_56
                0x08018ddc                chr_f16_57
                0x08018dfc                chr_f16_58
                0x08018e0c                chr_f16_59
                0x08018e1c                chr_f16_5A
                0x08018e2c                chr_f16_5B
                0x08018e3c                chr_f16_5C
                0x08018e4c                chr_f16_5D
                0x08018e5c                chr_f16_5E
                0x08018e7c                chr_f16_5F
                0x08018e9c                chr_f16_60
                0x08018eac                chr_f16_61
                0x08018ebc                chr_f16_62
                0x08018ecc                chr_f16_63
                0x08018edc                chr_f16_64
                0x08018eec                chr_f16_65
                0x08018efc                chr_f16_66
                0x08018f0c                chr_f16_67
                0x08018f1c                chr_f16_68
                0x08018f2c                chr_f16_69
                0x08018f3c                chr_f16_6A
                0x08018f4c                chr_f16_6B
                0x08018f5c                chr_f16_6C
                0x08018f6c                chr_f16_6D
                0x08018f7c                chr_f16_6E
                0x08018f8c                chr_f16_6F
                0x08018f9c                chr_f16_70
                0x08018fac                chr_f16_71
                0x08018fbc                chr_f16_72
                0x08018fcc                chr_f16_73
                0x08018fdc                chr_f16_74
                0x08018fec                chr_f16_75
                0x08018ffc                chr_f16_76
                0x0801900c                chr_f16_77
                0x0801901c                chr_f16_78
                0x0801902c                chr_f16_79
                0x0801903c                chr_f16_7A
                0x0801904c                chr_f16_7B
                0x0801905c                chr_f16_7C
                0x0801906c                chr_f16_7D
                0x0801907c                chr_f16_7E
                0x0801908c                chr_f16_7F
                0x0801909c                chrtbl_f16
 .rodata        0x0801921c     0x1b60 Src/Font32.o
                0x0801921c                widtbl_f32
                0x0801927c                chr_f32_20
                0x08019298                chr_f32_21
                0x080192cc                chr_f32_22
                0x08019300                chr_f32_23
                0x08019350                chr_f32_24
                0x080193a0                chr_f32_25
                0x080193f0                chr_f32_26
                0x08019440                chr_f32_27
                0x08019474                chr_f32_28
                0x080194a8                chr_f32_29
                0x080194dc                chr_f32_2A
                0x08019510                chr_f32_2B
                0x08019544                chr_f32_2C
                0x08019578                chr_f32_2D
                0x080195ac                chr_f32_2E
                0x080195e0                chr_f32_2F
                0x08019614                chr_f32_30
                0x08019664                chr_f32_31
                0x080196b4                chr_f32_32
                0x08019704                chr_f32_33
                0x08019754                chr_f32_34
                0x080197a4                chr_f32_35
                0x080197f4                chr_f32_36
                0x08019844                chr_f32_37
                0x08019894                chr_f32_38
                0x080198e4                chr_f32_39
                0x08019934                chr_f32_3A
                0x08019968                chr_f32_3B
                0x0801999c                chr_f32_3C
                0x080199ec                chr_f32_3D
                0x08019a20                chr_f32_3E
                0x08019a70                chr_f32_3F
                0x08019aa4                chr_f32_40
                0x08019b0c                chr_f32_41
                0x08019b5c                chr_f32_42
                0x08019bac                chr_f32_43
                0x08019bfc                chr_f32_44
                0x08019c4c                chr_f32_45
                0x08019c9c                chr_f32_46
                0x08019cec                chr_f32_47
                0x08019d3c                chr_f32_48
                0x08019d8c                chr_f32_49
                0x08019dc0                chr_f32_4A
                0x08019df4                chr_f32_4B
                0x08019e44                chr_f32_4C
                0x08019e78                chr_f32_4D
                0x08019ec8                chr_f32_4E
                0x08019f18                chr_f32_4F
                0x08019f68                chr_f32_50
                0x08019fb8                chr_f32_51
                0x0801a008                chr_f32_52
                0x0801a058                chr_f32_53
                0x0801a0a8                chr_f32_54
                0x0801a0f8                chr_f32_55
                0x0801a148                chr_f32_56
                0x0801a198                chr_f32_57
                0x0801a200                chr_f32_58
                0x0801a250                chr_f32_59
                0x0801a2a0                chr_f32_5A
                0x0801a2f0                chr_f32_5B
                0x0801a324                chr_f32_5C
                0x0801a358                chr_f32_5D
                0x0801a38c                chr_f32_5E
                0x0801a3c0                chr_f32_5F
                0x0801a3f4                chr_f32_60
                0x0801a428                chr_f32_61
                0x0801a478                chr_f32_62
                0x0801a4c8                chr_f32_63
                0x0801a4fc                chr_f32_64
                0x0801a54c                chr_f32_65
                0x0801a59c                chr_f32_66
                0x0801a5d0                chr_f32_67
                0x0801a620                chr_f32_68
                0x0801a670                chr_f32_69
                0x0801a6a4                chr_f32_6A
                0x0801a6d8                chr_f32_6B
                0x0801a70c                chr_f32_6C
                0x0801a740                chr_f32_6D
                0x0801a7a8                chr_f32_6E
                0x0801a7f8                chr_f32_6F
                0x0801a848                chr_f32_70
                0x0801a898                chr_f32_71
                0x0801a8e8                chr_f32_72
                0x0801a91c                chr_f32_73
                0x0801a950                chr_f32_74
                0x0801a984                chr_f32_75
                0x0801a9d4                chr_f32_76
                0x0801aa08                chr_f32_77
                0x0801aa58                chr_f32_78
                0x0801aa8c                chr_f32_79
                0x0801aac0                chr_f32_7A
                0x0801aaf4                chr_f32_7B
                0x0801ab28                chr_f32_7C
                0x0801ab5c                chr_f32_7D
                0x0801ab90                chr_f32_7E
                0x0801abe0                chr_f32_7F
                0x0801abfc                chrtbl_f32
 .rodata        0x0801ad7c      0xe10 Src/Font64.o
                0x0801ad7c                widtbl_f64
                0x0801addc                chr_f64_20
                0x0801ae3c                chr_f64_2D
                0x0801aecc                chr_f64_2E
                0x0801af5c                chr_f64_30
                0x0801b01c                chr_f64_31
                0x0801b0dc                chr_f64_32
                0x0801b19c                chr_f64_33
                0x0801b25c                chr_f64_34
                0x0801b31c                chr_f64_35
                0x0801b3dc                chr_f64_36
                0x0801b49c                chr_f64_37
                0x0801b55c                chr_f64_38
                0x0801b61c                chr_f64_39
                0x0801b6dc                chr_f64_3A
                0x0801b76c                chr_f64_61
                0x0801b82c                chr_f64_6D
                0x0801b94c                chr_f64_70
                0x0801ba0c                chrtbl_f64
 .rodata        0x0801bb8c      0xa80 Src/Font7s.o
                0x0801bb8c                widtbl_f7s
                0x0801bbec                chr_f7s_20
                0x0801bc4c                chr_f7s_2E
                0x0801bcac                chr_f7s_30
                0x0801bd6c                chr_f7s_31
                0x0801be2c                chr_f7s_32
                0x0801beec                chr_f7s_33
                0x0801bfac                chr_f7s_34
                0x0801c06c                chr_f7s_35
                0x0801c12c                chr_f7s_36
                0x0801c1ec                chr_f7s_37
                0x0801c2ac                chr_f7s_38
                0x0801c36c                chr_f7s_39
                0x0801c42c                chr_f7s_3A
                0x0801c48c                chrtbl_f7s
 .rodata        0x0801c60c      0x5a8 Src/TFT.o
 .rodata        0x0801cbb4       0x2a Src/main.o
 *fill*         0x0801cbde        0x2 
 .rodata        0x0801cbe0       0x14 Src/sd_diskio.o
                0x0801cbe0                SD_Driver
 .rodata        0x0801cbf4       0x72 Src/sd_functions.o
 *fill*         0x0801cc66        0x2 
 .rodata        0x0801cc68       0x18 Src/system_stm32f4xx.o
                0x0801cc68                AHBPrescTable
                0x0801cc78                APBPrescTable
 .rodata        0x0801cc80       0x13 Src/usbd_conf.o
 *fill*         0x0801cc93        0x1 
 .rodata        0x0801cc94       0x56 Src/usbd_desc.o
 *(.rodata*)
 *fill*         0x0801ccea        0x2 
 .rodata.sqrt.str1.4
                0x0801ccec        0x8 e:/stm/systemworkbenchforstm/plugins/fr.ac6.mcu.externaltools.arm-none.win32_1.17.0.201812190825/tools/compiler/bin/../lib/gcc/arm-none-eabi/7.3.1/../../../../arm-none-eabi/lib/thumb/v7e-m/fpv4-sp/hard\libm.a(lib_a-w_sqrt.o)
                                  0x5 (size before relaxing)
 .rodata._svfprintf_r.str1.1
                0x0801ccf4       0x11 e:/stm/systemworkbenchforstm/plugins/fr.ac6.mcu.externaltools.arm-none.win32_1.17.0.201812190825/tools/compiler/bin/../lib/gcc/arm-none-eabi/7.3.1/../../../../arm-none-eabi/lib/thumb/v7e-m/fpv4-sp/hard\libc_nano.a(lib_a-nano-svfprintf.o)
 .rodata._printf_i.str1.1
                0x0801cd05       0x22 e:/stm/systemworkbenchforstm/plugins/fr.ac6.mcu.externaltools.arm-none.win32_1.17.0.201812190825/tools/compiler/bin/../lib/gcc/arm-none-eabi/7.3.1/../../../../arm-none-eabi/lib/thumb/v7e-m/fpv4-sp/hard\libc_nano.a(lib_a-nano-vfprintf_i.o)
                0x0801cd28                . = ALIGN (0x4)
 *fill*         0x0801cd27        0x1 

.ARM.extab
 *(.ARM.extab* .gnu.linkonce.armextab.*)

.ARM            0x0801cd28        0x8
                0x0801cd28                __exidx_start = .
 *(.ARM.exidx*)
 .ARM.exidx     0x0801cd28        0x8 e:/stm/systemworkbenchforstm/plugins/fr.ac6.mcu.externaltools.arm-none.win32_1.17.0.201812190825/tools/compiler/bin/../lib/gcc/arm-none-eabi/7.3.1/thumb/v7e-m/fpv4-sp/hard\libgcc.a(_udivmoddi4.o)
                0x0801cd30                __exidx_end = .

.rel.dyn        0x0801cd30        0x0
 .rel.iplt      0x0801cd30        0x0 e:/stm/systemworkbenchforstm/plugins/fr.ac6.mcu.externaltools.arm-none.win32_1.17.0.201812190825/tools/compiler/bin/../lib/gcc/arm-none-eabi/7.3.1/thumb/v7e-m/fpv4-sp/hard/crtbegin.o

.preinit_array  0x0801cd30        0x0
                0x0801cd30                PROVIDE (__preinit_array_start = .)
 *(.preinit_array*)
                0x0801cd30                PROVIDE (__preinit_array_end = .)

.init_array     0x0801cd30        0x4
                0x0801cd30                PROVIDE (__init_array_start = .)
 *(SORT_BY_NAME(.init_array.*))
 *(.init_array*)
 .init_array    0x0801cd30        0x4 e:/stm/systemworkbenchforstm/plugins/fr.ac6.mcu.externaltools.arm-none.win32_1.17.0.201812190825/tools/compiler/bin/../lib/gcc/arm-none-eabi/7.3.1/thumb/v7e-m/fpv4-sp/hard/crtbegin.o
                0x0801cd34                PROVIDE (__init_array_end = .)

.fini_array     0x0801cd34        0x4
                [!provide]                PROVIDE (__fini_array_start = .)
 *(SORT_BY_NAME(.fini_array.*))
 *(.fini_array*)
 .fini_array    0x0801cd34        0x4 e:/stm/systemworkbenchforstm/plugins/fr.ac6.mcu.externaltools.arm-none.win32_1.17.0.201812190825/tools/compiler/bin/../lib/gcc/arm-none-eabi/7.3.1/thumb/v7e-m/fpv4-sp/hard/crtbegin.o
                [!provide]                PROVIDE (__fini_array_end = .)
                0x0801cd38                _sidata = LOADADDR (.data)

.data           0x20000000      0x1c8 load address 0x0801cd38
                0x20000000                . = ALIGN (0x4)
                0x20000000                _sdata = .
 *(.data)
 .data          0x20000000        0x5 Drivers/STM32F4xx_HAL_Driver/Src/stm32f4xx_hal.o
                0x20000000                uwTickPrio
                0x20000004                uwTickFreq
 *fill*         0x20000005        0x3 
 .data          0x20000008      0x10f Middlewares/ST/STM32_USB_Device_Library/Class/CDC/Src/usbd_cdc.o
                0x20000014                USBD_CDC
                0x2000004c                USBD_CDC_CfgHSDesc
                0x20000090                USBD_CDC_CfgFSDesc
                0x200000d4                USBD_CDC_OtherSpeedCfgDesc
 .data          0x20000117        0x1 Src/sd_diskio.o
 .data          0x20000118        0x4 Src/system_stm32f4xx.o
                0x20000118                SystemCoreClock
 .data          0x2000011c       0x10 Src/usbd_cdc_if.o
                0x2000011c                USBD_Interface_fops_FS
 .data          0x2000012c       0x34 Src/usbd_desc.o
                0x2000012c                FS_Desc
                0x20000148                USBD_FS_DeviceDesc
                0x2000015c                USBD_LangIDDesc
 *(.data*)
 .data.__fdlib_version
                0x20000160        0x1 e:/stm/systemworkbenchforstm/plugins/fr.ac6.mcu.externaltools.arm-none.win32_1.17.0.201812190825/tools/compiler/bin/../lib/gcc/arm-none-eabi/7.3.1/../../../../arm-none-eabi/lib/thumb/v7e-m/fpv4-sp/hard\libm.a(lib_a-s_lib_ver.o)
                0x20000160                __fdlib_version
 *fill*         0x20000161        0x3 
 .data._impure_ptr
                0x20000164        0x4 e:/stm/systemworkbenchforstm/plugins/fr.ac6.mcu.externaltools.arm-none.win32_1.17.0.201812190825/tools/compiler/bin/../lib/gcc/arm-none-eabi/7.3.1/../../../../arm-none-eabi/lib/thumb/v7e-m/fpv4-sp/hard\libc_nano.a(lib_a-impure.o)
                0x20000164                _impure_ptr
 .data.impure_data
                0x20000168       0x60 e:/stm/systemworkbenchforstm/plugins/fr.ac6.mcu.externaltools.arm-none.win32_1.17.0.201812190825/tools/compiler/bin/../lib/gcc/arm-none-eabi/7.3.1/../../../../arm-none-eabi/lib/thumb/v7e-m/fpv4-sp/hard\libc_nano.a(lib_a-impure.o)
                0x200001c8                . = ALIGN (0x4)
                0x200001c8                _edata = .
                0x0801cf00                _siccmram = LOADADDR (.ccmram)

.igot.plt       0x200001c8        0x0 load address 0x0801cf00
 .igot.plt      0x200001c8        0x0 e:/stm/systemworkbenchforstm/plugins/fr.ac6.mcu.externaltools.arm-none.win32_1.17.0.201812190825/tools/compiler/bin/../lib/gcc/arm-none-eabi/7.3.1/thumb/v7e-m/fpv4-sp/hard/crtbegin.o

.ccmram         0x10000000        0x0 load address 0x0801cf00
                0x10000000                . = ALIGN (0x4)
                0x10000000                _sccmram = .
 *(.ccmram)
 *(.ccmram*)
                0x10000000                . = ALIGN (0x4)
                0x10000000                _eccmram = .
                0x10000000                . = ALIGN (0x4)

.bss            0x200001c8     0x3858
                0x200001c8                _sbss = .
                0x200001c8                __bss_start__ = _sbss
 *(.bss)
 .bss           0x200001c8       0x1c e:/stm/systemworkbenchforstm/plugins/fr.ac6.mcu.externaltools.arm-none.win32_1.17.0.201812190825/tools/compiler/bin/../lib/gcc/arm-none-eabi/7.3.1/thumb/v7e-m/fpv4-sp/hard/crtbegin.o
 .bss           0x200001e4        0x1 Middlewares/ST/STM32_USB_Device_Library/Class/CDC/Src/usbd_cdc.o
 .bss           0x200001e5        0x1 Middlewares/ST/STM32_USB_Device_Library/Core/Src/usbd_ctlreq.o
 *fill*         0x200001e6        0x2 
 .bss           0x200001e8       0x28 Middlewares/Third_Party/FatFs/src/ff.o
 .bss           0x20000210        0xc Middlewares/Third_Party/FatFs/src/ff_gen_drv.o
                0x20000210                disk
 .bss           0x2000021c        0x8 Src/main.o
                0x2000021c                pms_data_ready
                0x20000220                MQval
 *(.bss*)
 .bss.__malloc_free_list
                0x20000224        0x4 e:/stm/systemworkbenchforstm/plugins/fr.ac6.mcu.externaltools.arm-none.win32_1.17.0.201812190825/tools/compiler/bin/../lib/gcc/arm-none-eabi/7.3.1/../../../../arm-none-eabi/lib/thumb/v7e-m/fpv4-sp/hard\libc_nano.a(lib_a-nano-mallocr.o)
                0x20000224                __malloc_free_list
 .bss.__malloc_sbrk_start
                0x20000228        0x4 e:/stm/systemworkbenchforstm/plugins/fr.ac6.mcu.externaltools.arm-none.win32_1.17.0.201812190825/tools/compiler/bin/../lib/gcc/arm-none-eabi/7.3.1/../../../../arm-none-eabi/lib/thumb/v7e-m/fpv4-sp/hard\libc_nano.a(lib_a-nano-mallocr.o)
                0x20000228                __malloc_sbrk_start
 .bss.heap_end.5377
                0x2000022c        0x4 e:/stm/systemworkbenchforstm/plugins/fr.ac6.mcu.externaltools.arm-none.win32_1.17.0.201812190825/tools/compiler/bin/../lib/gcc/arm-none-eabi/7.3.1/../../../../arm-none-eabi/lib/thumb/v7e-m/fpv4-sp/hard\libnosys.a(sbrk.o)
 *(COMMON)
 COMMON         0x20000230      0x7bc Drivers/STM32F4xx_HAL_Driver/Src/stm32f4xx_hal.o
                0x20000230                DHT_response
                0x20000234                scr_refresh_enbl
                0x20000238                TVOC
                0x2000023c                date_to_set
                0x20000240                save_val_enbl
                0x20000244                last24val
                0x200007e4                crc_correct
                0x200007e8                hadc2
                0x20000830                hi2c1
                0x20000884                time_to_set
                0x20000898                uwTick
                0x2000089c                sec_counter
                0x200008a0                AllValues
                0x20000954                hspi4
                0x200009ac                CO2eq
                0x200009b0                hrtc
                0x200009d0                time_disp_enbl
                0x200009d4                last_val_save_enable
                0x200009d8                DHT_sensor
 COMMON         0x200009ec       0x50 Src/Adafruit_GFX_AS.o
                0x200009ec                _freq
                0x200009f0                _cs
                0x200009f4                tabcolor
                0x200009f8                misopinmask
                0x200009fc                misoport
                0x20000a00                _dc
                0x20000a04                _miso
                0x20000a08                cspinmask
                0x20000a0c                csport
                0x20000a10                _rst
                0x20000a14                _sclk
                0x20000a18                mosiport
                0x20000a1c                dcport
                0x20000a20                clkpinmask
                0x20000a24                dcpinmask
                0x20000a28                textsize
                0x20000a2c                _mosi
                0x20000a30                clkport
                0x20000a34                mosipinmask
                0x20000a38                textbgcolor
                0x20000a3a                textcolor
 COMMON         0x20000a3c        0xc Src/Adafruit_HX8357.o
                0x20000a3c                rotation
                0x20000a40                _width
                0x20000a44                _height
 COMMON         0x20000a48      0x268 Src/fatfs.o
                0x20000a48                retSD
                0x20000a4c                SDPath
                0x20000a50                SDFile
                0x20000a80                SDFatFS
 COMMON         0x20000cb0     0x1558 Src/main.o
                0x20000cb0                hspi2
                0x20000d08                hourcnt
                0x20000d0c                hi2c2
                0x20000d60                screen
                0x20000d64                PMS
                0x20000de0                DetailedScreens
                0x20002028                hadc1
                0x20002070                hadc3
                0x200020b8                hsd
                0x2000213c                huart8
                0x2000217c                htim2
                0x200021b8                norms
                0x200021f4                config
 COMMON         0x20002208      0x224 Src/usb_device.o
                0x20002208                hUsbDeviceFS
 COMMON         0x2000242c     0x1000 Src/usbd_cdc_if.o
                0x2000242c                UserRxBufferFS
                0x20002c2c                UserTxBufferFS
 COMMON         0x2000342c      0x3f0 Src/usbd_conf.o
                0x2000342c                hpcd_USB_OTG_FS
 COMMON         0x2000381c      0x200 Src/usbd_desc.o
                0x2000381c                USBD_StrDesc
 COMMON         0x20003a1c        0x4 e:/stm/systemworkbenchforstm/plugins/fr.ac6.mcu.externaltools.arm-none.win32_1.17.0.201812190825/tools/compiler/bin/../lib/gcc/arm-none-eabi/7.3.1/../../../../arm-none-eabi/lib/thumb/v7e-m/fpv4-sp/hard\libc_nano.a(lib_a-reent.o)
                0x20003a1c                errno
                0x20003a20                . = ALIGN (0x4)
                0x20003a20                _ebss = .
                0x20003a20                __bss_end__ = _ebss

._user_heap_stack
                0x20003a20      0x600
                0x20003a20                . = ALIGN (0x8)
                0x20003a20                PROVIDE (end = .)
                [!provide]                PROVIDE (_end = .)
                0x20003c20                . = (. + _Min_Heap_Size)
 *fill*         0x20003a20      0x200 
                0x20004020                . = (. + _Min_Stack_Size)
 *fill*         0x20003c20      0x400 
                0x20004020                . = ALIGN (0x8)

/DISCARD/
 libc.a(*)
 libm.a(*)
 libgcc.a(*)

.ARM.attributes
                0x00000000       0x30
 *(.ARM.attributes)
 .ARM.attributes
                0x00000000       0x22 e:/stm/systemworkbenchforstm/plugins/fr.ac6.mcu.externaltools.arm-none.win32_1.17.0.201812190825/tools/compiler/bin/../lib/gcc/arm-none-eabi/7.3.1/thumb/v7e-m/fpv4-sp/hard/crti.o
 .ARM.attributes
                0x00000022       0x34 e:/stm/systemworkbenchforstm/plugins/fr.ac6.mcu.externaltools.arm-none.win32_1.17.0.201812190825/tools/compiler/bin/../lib/gcc/arm-none-eabi/7.3.1/thumb/v7e-m/fpv4-sp/hard/crtbegin.o
 .ARM.attributes
                0x00000056       0x39 Drivers/STM32F4xx_HAL_Driver/Src/stm32f4xx_hal.o
 .ARM.attributes
                0x0000008f       0x39 Drivers/STM32F4xx_HAL_Driver/Src/stm32f4xx_hal_adc.o
 .ARM.attributes
                0x000000c8       0x39 Drivers/STM32F4xx_HAL_Driver/Src/stm32f4xx_hal_adc_ex.o
 .ARM.attributes
                0x00000101       0x39 Drivers/STM32F4xx_HAL_Driver/Src/stm32f4xx_hal_cortex.o
 .ARM.attributes
                0x0000013a       0x39 Drivers/STM32F4xx_HAL_Driver/Src/stm32f4xx_hal_dma.o
 .ARM.attributes
                0x00000173       0x39 Drivers/STM32F4xx_HAL_Driver/Src/stm32f4xx_hal_gpio.o
 .ARM.attributes
                0x000001ac       0x39 Drivers/STM32F4xx_HAL_Driver/Src/stm32f4xx_hal_i2c.o
 .ARM.attributes
                0x000001e5       0x39 Drivers/STM32F4xx_HAL_Driver/Src/stm32f4xx_hal_pcd.o
 .ARM.attributes
                0x0000021e       0x39 Drivers/STM32F4xx_HAL_Driver/Src/stm32f4xx_hal_pcd_ex.o
 .ARM.attributes
                0x00000257       0x39 Drivers/STM32F4xx_HAL_Driver/Src/stm32f4xx_hal_rcc.o
 .ARM.attributes
                0x00000290       0x39 Drivers/STM32F4xx_HAL_Driver/Src/stm32f4xx_hal_rcc_ex.o
 .ARM.attributes
                0x000002c9       0x39 Drivers/STM32F4xx_HAL_Driver/Src/stm32f4xx_hal_rtc.o
 .ARM.attributes
                0x00000302       0x39 Drivers/STM32F4xx_HAL_Driver/Src/stm32f4xx_hal_rtc_ex.o
 .ARM.attributes
                0x0000033b       0x39 Drivers/STM32F4xx_HAL_Driver/Src/stm32f4xx_hal_sd.o
 .ARM.attributes
                0x00000374       0x39 Drivers/STM32F4xx_HAL_Driver/Src/stm32f4xx_hal_spi.o
 .ARM.attributes
                0x000003ad       0x39 Drivers/STM32F4xx_HAL_Driver/Src/stm32f4xx_hal_tim.o
 .ARM.attributes
                0x000003e6       0x39 Drivers/STM32F4xx_HAL_Driver/Src/stm32f4xx_hal_tim_ex.o
 .ARM.attributes
                0x0000041f       0x39 Drivers/STM32F4xx_HAL_Driver/Src/stm32f4xx_hal_uart.o
 .ARM.attributes
                0x00000458       0x39 Drivers/STM32F4xx_HAL_Driver/Src/stm32f4xx_ll_sdmmc.o
 .ARM.attributes
                0x00000491       0x39 Drivers/STM32F4xx_HAL_Driver/Src/stm32f4xx_ll_usb.o
 .ARM.attributes
                0x000004ca       0x39 Middlewares/ST/STM32_USB_Device_Library/Class/CDC/Src/usbd_cdc.o
 .ARM.attributes
                0x00000503       0x39 Middlewares/ST/STM32_USB_Device_Library/Core/Src/usbd_core.o
 .ARM.attributes
                0x0000053c       0x39 Middlewares/ST/STM32_USB_Device_Library/Core/Src/usbd_ctlreq.o
 .ARM.attributes
                0x00000575       0x39 Middlewares/ST/STM32_USB_Device_Library/Core/Src/usbd_ioreq.o
 .ARM.attributes
                0x000005ae       0x39 Middlewares/Third_Party/FatFs/src/diskio.o
 .ARM.attributes
                0x000005e7       0x39 Middlewares/Third_Party/FatFs/src/ff.o
 .ARM.attributes
                0x00000620       0x39 Middlewares/Third_Party/FatFs/src/ff_gen_drv.o
 .ARM.attributes
                0x00000659       0x39 Src/Adafruit_GFX_AS.o
 .ARM.attributes
                0x00000692       0x39 Src/Adafruit_HX8357.o
 .ARM.attributes
                0x000006cb       0x39 Src/DHT22.o
 .ARM.attributes
                0x00000704       0x39 Src/Font16.o
 .ARM.attributes
                0x0000073d       0x39 Src/Font32.o
 .ARM.attributes
                0x00000776       0x39 Src/Font64.o
 .ARM.attributes
                0x000007af       0x39 Src/Font7s.o
 .ARM.attributes
                0x000007e8       0x39 Src/PMS5003ST.o
 .ARM.attributes
                0x00000821       0x39 Src/TFT.o
 .ARM.attributes
                0x0000085a       0x39 Src/TouchScreen.o
 .ARM.attributes
                0x00000893       0x39 Src/bsp_driver_sd.o
 .ARM.attributes
                0x000008cc       0x39 Src/dwt_stm32_delay.o
 .ARM.attributes
                0x00000905       0x39 Src/fatfs.o
 .ARM.attributes
                0x0000093e       0x39 Src/main.o
 .ARM.attributes
                0x00000977       0x39 Src/sd_diskio.o
 .ARM.attributes
                0x000009b0       0x39 Src/sd_functions.o
 .ARM.attributes
                0x000009e9       0x39 Src/sensors_I2C.o
 .ARM.attributes
                0x00000a22       0x39 Src/stm32f4xx_hal_msp.o
 .ARM.attributes
                0x00000a5b       0x39 Src/stm32f4xx_it.o
 .ARM.attributes
                0x00000a94       0x39 Src/system_stm32f4xx.o
 .ARM.attributes
                0x00000acd       0x39 Src/usb_device.o
 .ARM.attributes
                0x00000b06       0x39 Src/usbd_cdc_if.o
 .ARM.attributes
                0x00000b3f       0x39 Src/usbd_conf.o
 .ARM.attributes
                0x00000b78       0x39 Src/usbd_desc.o
 .ARM.attributes
                0x00000bb1       0x21 startup/startup_stm32f427xx.o
 .ARM.attributes
                0x00000bd2       0x34 e:/stm/systemworkbenchforstm/plugins/fr.ac6.mcu.externaltools.arm-none.win32_1.17.0.201812190825/tools/compiler/bin/../lib/gcc/arm-none-eabi/7.3.1/../../../../arm-none-eabi/lib/thumb/v7e-m/fpv4-sp/hard\libm.a(lib_a-w_sqrt.o)
 .ARM.attributes
                0x00000c06       0x34 e:/stm/systemworkbenchforstm/plugins/fr.ac6.mcu.externaltools.arm-none.win32_1.17.0.201812190825/tools/compiler/bin/../lib/gcc/arm-none-eabi/7.3.1/../../../../arm-none-eabi/lib/thumb/v7e-m/fpv4-sp/hard\libm.a(lib_a-e_sqrt.o)
 .ARM.attributes
                0x00000c3a       0x34 e:/stm/systemworkbenchforstm/plugins/fr.ac6.mcu.externaltools.arm-none.win32_1.17.0.201812190825/tools/compiler/bin/../lib/gcc/arm-none-eabi/7.3.1/../../../../arm-none-eabi/lib/thumb/v7e-m/fpv4-sp/hard\libm.a(lib_a-s_lib_ver.o)
 .ARM.attributes
                0x00000c6e       0x34 e:/stm/systemworkbenchforstm/plugins/fr.ac6.mcu.externaltools.arm-none.win32_1.17.0.201812190825/tools/compiler/bin/../lib/gcc/arm-none-eabi/7.3.1/../../../../arm-none-eabi/lib/thumb/v7e-m/fpv4-sp/hard\libm.a(lib_a-s_matherr.o)
 .ARM.attributes
                0x00000ca2       0x22 e:/stm/systemworkbenchforstm/plugins/fr.ac6.mcu.externaltools.arm-none.win32_1.17.0.201812190825/tools/compiler/bin/../lib/gcc/arm-none-eabi/7.3.1/thumb/v7e-m/fpv4-sp/hard\libgcc.a(_arm_addsubdf3.o)
 .ARM.attributes
                0x00000cc4       0x22 e:/stm/systemworkbenchforstm/plugins/fr.ac6.mcu.externaltools.arm-none.win32_1.17.0.201812190825/tools/compiler/bin/../lib/gcc/arm-none-eabi/7.3.1/thumb/v7e-m/fpv4-sp/hard\libgcc.a(_arm_muldivdf3.o)
 .ARM.attributes
                0x00000ce6       0x22 e:/stm/systemworkbenchforstm/plugins/fr.ac6.mcu.externaltools.arm-none.win32_1.17.0.201812190825/tools/compiler/bin/../lib/gcc/arm-none-eabi/7.3.1/thumb/v7e-m/fpv4-sp/hard\libgcc.a(_arm_cmpdf2.o)
 .ARM.attributes
                0x00000d08       0x22 e:/stm/systemworkbenchforstm/plugins/fr.ac6.mcu.externaltools.arm-none.win32_1.17.0.201812190825/tools/compiler/bin/../lib/gcc/arm-none-eabi/7.3.1/thumb/v7e-m/fpv4-sp/hard\libgcc.a(_arm_unorddf2.o)
 .ARM.attributes
                0x00000d2a       0x22 e:/stm/systemworkbenchforstm/plugins/fr.ac6.mcu.externaltools.arm-none.win32_1.17.0.201812190825/tools/compiler/bin/../lib/gcc/arm-none-eabi/7.3.1/thumb/v7e-m/fpv4-sp/hard\libgcc.a(_aeabi_uldivmod.o)
 .ARM.attributes
                0x00000d4c       0x34 e:/stm/systemworkbenchforstm/plugins/fr.ac6.mcu.externaltools.arm-none.win32_1.17.0.201812190825/tools/compiler/bin/../lib/gcc/arm-none-eabi/7.3.1/thumb/v7e-m/fpv4-sp/hard\libgcc.a(_udivmoddi4.o)
 .ARM.attributes
                0x00000d80       0x22 e:/stm/systemworkbenchforstm/plugins/fr.ac6.mcu.externaltools.arm-none.win32_1.17.0.201812190825/tools/compiler/bin/../lib/gcc/arm-none-eabi/7.3.1/thumb/v7e-m/fpv4-sp/hard\libgcc.a(_dvmd_tls.o)
 .ARM.attributes
                0x00000da2       0x34 e:/stm/systemworkbenchforstm/plugins/fr.ac6.mcu.externaltools.arm-none.win32_1.17.0.201812190825/tools/compiler/bin/../lib/gcc/arm-none-eabi/7.3.1/../../../../arm-none-eabi/lib/thumb/v7e-m/fpv4-sp/hard\libc_nano.a(lib_a-errno.o)
 .ARM.attributes
                0x00000dd6       0x34 e:/stm/systemworkbenchforstm/plugins/fr.ac6.mcu.externaltools.arm-none.win32_1.17.0.201812190825/tools/compiler/bin/../lib/gcc/arm-none-eabi/7.3.1/../../../../arm-none-eabi/lib/thumb/v7e-m/fpv4-sp/hard\libc_nano.a(lib_a-impure.o)
 .ARM.attributes
                0x00000e0a       0x34 e:/stm/systemworkbenchforstm/plugins/fr.ac6.mcu.externaltools.arm-none.win32_1.17.0.201812190825/tools/compiler/bin/../lib/gcc/arm-none-eabi/7.3.1/../../../../arm-none-eabi/lib/thumb/v7e-m/fpv4-sp/hard\libc_nano.a(lib_a-init.o)
 .ARM.attributes
                0x00000e3e       0x34 e:/stm/systemworkbenchforstm/plugins/fr.ac6.mcu.externaltools.arm-none.win32_1.17.0.201812190825/tools/compiler/bin/../lib/gcc/arm-none-eabi/7.3.1/../../../../arm-none-eabi/lib/thumb/v7e-m/fpv4-sp/hard\libc_nano.a(lib_a-malloc.o)
 .ARM.attributes
                0x00000e72       0x34 e:/stm/systemworkbenchforstm/plugins/fr.ac6.mcu.externaltools.arm-none.win32_1.17.0.201812190825/tools/compiler/bin/../lib/gcc/arm-none-eabi/7.3.1/../../../../arm-none-eabi/lib/thumb/v7e-m/fpv4-sp/hard\libc_nano.a(lib_a-nano-freer.o)
 .ARM.attributes
                0x00000ea6       0x34 e:/stm/systemworkbenchforstm/plugins/fr.ac6.mcu.externaltools.arm-none.win32_1.17.0.201812190825/tools/compiler/bin/../lib/gcc/arm-none-eabi/7.3.1/../../../../arm-none-eabi/lib/thumb/v7e-m/fpv4-sp/hard\libc_nano.a(lib_a-nano-mallocr.o)
 .ARM.attributes
                0x00000eda       0x34 e:/stm/systemworkbenchforstm/plugins/fr.ac6.mcu.externaltools.arm-none.win32_1.17.0.201812190825/tools/compiler/bin/../lib/gcc/arm-none-eabi/7.3.1/../../../../arm-none-eabi/lib/thumb/v7e-m/fpv4-sp/hard\libc_nano.a(lib_a-sbrkr.o)
 .ARM.attributes
                0x00000f0e       0x34 e:/stm/systemworkbenchforstm/plugins/fr.ac6.mcu.externaltools.arm-none.win32_1.17.0.201812190825/tools/compiler/bin/../lib/gcc/arm-none-eabi/7.3.1/../../../../arm-none-eabi/lib/thumb/v7e-m/fpv4-sp/hard\libc_nano.a(lib_a-sprintf.o)
 .ARM.attributes
                0x00000f42       0x34 e:/stm/systemworkbenchforstm/plugins/fr.ac6.mcu.externaltools.arm-none.win32_1.17.0.201812190825/tools/compiler/bin/../lib/gcc/arm-none-eabi/7.3.1/../../../../arm-none-eabi/lib/thumb/v7e-m/fpv4-sp/hard\libc_nano.a(lib_a-mlock.o)
 .ARM.attributes
                0x00000f76       0x34 e:/stm/systemworkbenchforstm/plugins/fr.ac6.mcu.externaltools.arm-none.win32_1.17.0.201812190825/tools/compiler/bin/../lib/gcc/arm-none-eabi/7.3.1/../../../../arm-none-eabi/lib/thumb/v7e-m/fpv4-sp/hard\libc_nano.a(lib_a-nano-svfprintf.o)
 .ARM.attributes
                0x00000faa       0x34 e:/stm/systemworkbenchforstm/plugins/fr.ac6.mcu.externaltools.arm-none.win32_1.17.0.201812190825/tools/compiler/bin/../lib/gcc/arm-none-eabi/7.3.1/../../../../arm-none-eabi/lib/thumb/v7e-m/fpv4-sp/hard\libc_nano.a(lib_a-nano-vfprintf_i.o)
 .ARM.attributes
                0x00000fde       0x34 e:/stm/systemworkbenchforstm/plugins/fr.ac6.mcu.externaltools.arm-none.win32_1.17.0.201812190825/tools/compiler/bin/../lib/gcc/arm-none-eabi/7.3.1/../../../../arm-none-eabi/lib/thumb/v7e-m/fpv4-sp/hard\libc_nano.a(lib_a-reent.o)
 .ARM.attributes
                0x00001012       0x20 e:/stm/systemworkbenchforstm/plugins/fr.ac6.mcu.externaltools.arm-none.win32_1.17.0.201812190825/tools/compiler/bin/../lib/gcc/arm-none-eabi/7.3.1/../../../../arm-none-eabi/lib/thumb/v7e-m/fpv4-sp/hard\libc_nano.a(lib_a-memchr.o)
 .ARM.attributes
                0x00001032       0x34 e:/stm/systemworkbenchforstm/plugins/fr.ac6.mcu.externaltools.arm-none.win32_1.17.0.201812190825/tools/compiler/bin/../lib/gcc/arm-none-eabi/7.3.1/../../../../arm-none-eabi/lib/thumb/v7e-m/fpv4-sp/hard\libc_nano.a(lib_a-memcpy-stub.o)
 .ARM.attributes
                0x00001066       0x34 e:/stm/systemworkbenchforstm/plugins/fr.ac6.mcu.externaltools.arm-none.win32_1.17.0.201812190825/tools/compiler/bin/../lib/gcc/arm-none-eabi/7.3.1/../../../../arm-none-eabi/lib/thumb/v7e-m/fpv4-sp/hard\libc_nano.a(lib_a-memmove.o)
 .ARM.attributes
                0x0000109a       0x34 e:/stm/systemworkbenchforstm/plugins/fr.ac6.mcu.externaltools.arm-none.win32_1.17.0.201812190825/tools/compiler/bin/../lib/gcc/arm-none-eabi/7.3.1/../../../../arm-none-eabi/lib/thumb/v7e-m/fpv4-sp/hard\libc_nano.a(lib_a-nano-reallocr.o)
 .ARM.attributes
                0x000010ce       0x34 e:/stm/systemworkbenchforstm/plugins/fr.ac6.mcu.externaltools.arm-none.win32_1.17.0.201812190825/tools/compiler/bin/../lib/gcc/arm-none-eabi/7.3.1/../../../../arm-none-eabi/lib/thumb/v7e-m/fpv4-sp/hard\libc_nano.a(lib_a-nano-msizer.o)
 .ARM.attributes
                0x00001102       0x34 e:/stm/systemworkbenchforstm/plugins/fr.ac6.mcu.externaltools.arm-none.win32_1.17.0.201812190825/tools/compiler/bin/../lib/gcc/arm-none-eabi/7.3.1/../../../../arm-none-eabi/lib/thumb/v7e-m/fpv4-sp/hard\libnosys.a(sbrk.o)
 .ARM.attributes
                0x00001136       0x22 e:/stm/systemworkbenchforstm/plugins/fr.ac6.mcu.externaltools.arm-none.win32_1.17.0.201812190825/tools/compiler/bin/../lib/gcc/arm-none-eabi/7.3.1/thumb/v7e-m/fpv4-sp/hard/crtn.o
OUTPUT(AQS.elf elf32-littlearm)

.debug_info     0x00000000    0x67d11
 .debug_info    0x00000000     0x2115 Drivers/STM32F4xx_HAL_Driver/Src/stm32f4xx_hal.o
 .debug_info    0x00002115     0x1fb4 Drivers/STM32F4xx_HAL_Driver/Src/stm32f4xx_hal_adc.o
 .debug_info    0x000040c9     0x1e32 Drivers/STM32F4xx_HAL_Driver/Src/stm32f4xx_hal_adc_ex.o
 .debug_info    0x00005efb     0x2599 Drivers/STM32F4xx_HAL_Driver/Src/stm32f4xx_hal_cortex.o
 .debug_info    0x00008494     0x1e63 Drivers/STM32F4xx_HAL_Driver/Src/stm32f4xx_hal_dma.o
 .debug_info    0x0000a2f7     0x1e62 Drivers/STM32F4xx_HAL_Driver/Src/stm32f4xx_hal_gpio.o
 .debug_info    0x0000c159     0x3329 Drivers/STM32F4xx_HAL_Driver/Src/stm32f4xx_hal_i2c.o
 .debug_info    0x0000f482     0x2673 Drivers/STM32F4xx_HAL_Driver/Src/stm32f4xx_hal_pcd.o
 .debug_info    0x00011af5     0x1d0f Drivers/STM32F4xx_HAL_Driver/Src/stm32f4xx_hal_pcd_ex.o
 .debug_info    0x00013804     0x1fa8 Drivers/STM32F4xx_HAL_Driver/Src/stm32f4xx_hal_rcc.o
 .debug_info    0x000157ac     0x1e0a Drivers/STM32F4xx_HAL_Driver/Src/stm32f4xx_hal_rcc_ex.o
 .debug_info    0x000175b6     0x1f2f Drivers/STM32F4xx_HAL_Driver/Src/stm32f4xx_hal_rtc.o
 .debug_info    0x000194e5     0x2268 Drivers/STM32F4xx_HAL_Driver/Src/stm32f4xx_hal_rtc_ex.o
 .debug_info    0x0001b74d     0x2cbb Drivers/STM32F4xx_HAL_Driver/Src/stm32f4xx_hal_sd.o
 .debug_info    0x0001e408     0x27c5 Drivers/STM32F4xx_HAL_Driver/Src/stm32f4xx_hal_spi.o
 .debug_info    0x00020bcd     0x3722 Drivers/STM32F4xx_HAL_Driver/Src/stm32f4xx_hal_tim.o
 .debug_info    0x000242ef     0x24fc Drivers/STM32F4xx_HAL_Driver/Src/stm32f4xx_hal_tim_ex.o
 .debug_info    0x000267eb     0x26fb Drivers/STM32F4xx_HAL_Driver/Src/stm32f4xx_hal_uart.o
 .debug_info    0x00028ee6     0x27f5 Drivers/STM32F4xx_HAL_Driver/Src/stm32f4xx_ll_sdmmc.o
 .debug_info    0x0002b6db     0x2bf6 Drivers/STM32F4xx_HAL_Driver/Src/stm32f4xx_ll_usb.o
 .debug_info    0x0002e2d1     0x223d Middlewares/ST/STM32_USB_Device_Library/Class/CDC/Src/usbd_cdc.o
 .debug_info    0x0003050e     0x20e0 Middlewares/ST/STM32_USB_Device_Library/Core/Src/usbd_core.o
 .debug_info    0x000325ee     0x2041 Middlewares/ST/STM32_USB_Device_Library/Core/Src/usbd_ctlreq.o
 .debug_info    0x0003462f     0x1e41 Middlewares/ST/STM32_USB_Device_Library/Core/Src/usbd_ioreq.o
 .debug_info    0x00036470     0x1c18 Middlewares/Third_Party/FatFs/src/diskio.o
 .debug_info    0x00038088     0x3986 Middlewares/Third_Party/FatFs/src/ff.o
 .debug_info    0x0003ba0e     0x1bb0 Middlewares/Third_Party/FatFs/src/ff_gen_drv.o
 .debug_info    0x0003d5be     0x14e0 Src/Adafruit_GFX_AS.o
 .debug_info    0x0003ea9e     0x214f Src/Adafruit_HX8357.o
 .debug_info    0x00040bed     0x1b73 Src/DHT22.o
 .debug_info    0x00042760      0x757 Src/Font16.o
 .debug_info    0x00042eb7      0x797 Src/Font32.o
 .debug_info    0x0004364e      0x200 Src/Font64.o
 .debug_info    0x0004384e      0x18d Src/Font7s.o
 .debug_info    0x000439db     0x2012 Src/PMS5003ST.o
 .debug_info    0x000459ed     0x31fb Src/TFT.o
 .debug_info    0x00048be8     0x1b97 Src/TouchScreen.o
 .debug_info    0x0004a77f     0x1fcb Src/bsp_driver_sd.o
 .debug_info    0x0004c74a     0x1aa1 Src/dwt_stm32_delay.o
 .debug_info    0x0004e1eb     0x1cb5 Src/fatfs.o
 .debug_info    0x0004fea0     0x3cac Src/main.o
 .debug_info    0x00053b4c     0x1c50 Src/sd_diskio.o
 .debug_info    0x0005579c     0x1f86 Src/sd_functions.o
 .debug_info    0x00057722     0x1ac8 Src/sensors_I2C.o
 .debug_info    0x000591ea     0x28c0 Src/stm32f4xx_hal_msp.o
 .debug_info    0x0005baaa     0x1f7d Src/stm32f4xx_it.o
 .debug_info    0x0005da27     0x1cbc Src/system_stm32f4xx.o
 .debug_info    0x0005f6e3     0x1d70 Src/usb_device.o
 .debug_info    0x00061453     0x1f44 Src/usbd_cdc_if.o
 .debug_info    0x00063397     0x2d92 Src/usbd_conf.o
 .debug_info    0x00066129     0x1b88 Src/usbd_desc.o
 .debug_info    0x00067cb1       0x60 startup/startup_stm32f427xx.o

.debug_abbrev   0x00000000     0x8150
 .debug_abbrev  0x00000000      0x2bd Drivers/STM32F4xx_HAL_Driver/Src/stm32f4xx_hal.o
 .debug_abbrev  0x000002bd      0x2b0 Drivers/STM32F4xx_HAL_Driver/Src/stm32f4xx_hal_adc.o
 .debug_abbrev  0x0000056d      0x2ab Drivers/STM32F4xx_HAL_Driver/Src/stm32f4xx_hal_adc_ex.o
 .debug_abbrev  0x00000818      0x3b0 Drivers/STM32F4xx_HAL_Driver/Src/stm32f4xx_hal_cortex.o
 .debug_abbrev  0x00000bc8      0x2d4 Drivers/STM32F4xx_HAL_Driver/Src/stm32f4xx_hal_dma.o
 .debug_abbrev  0x00000e9c      0x29a Drivers/STM32F4xx_HAL_Driver/Src/stm32f4xx_hal_gpio.o
 .debug_abbrev  0x00001136      0x2ef Drivers/STM32F4xx_HAL_Driver/Src/stm32f4xx_hal_i2c.o
 .debug_abbrev  0x00001425      0x31d Drivers/STM32F4xx_HAL_Driver/Src/stm32f4xx_hal_pcd.o
 .debug_abbrev  0x00001742      0x250 Drivers/STM32F4xx_HAL_Driver/Src/stm32f4xx_hal_pcd_ex.o
 .debug_abbrev  0x00001992      0x316 Drivers/STM32F4xx_HAL_Driver/Src/stm32f4xx_hal_rcc.o
 .debug_abbrev  0x00001ca8      0x26f Drivers/STM32F4xx_HAL_Driver/Src/stm32f4xx_hal_rcc_ex.o
 .debug_abbrev  0x00001f17      0x29e Drivers/STM32F4xx_HAL_Driver/Src/stm32f4xx_hal_rtc.o
 .debug_abbrev  0x000021b5      0x2c9 Drivers/STM32F4xx_HAL_Driver/Src/stm32f4xx_hal_rtc_ex.o
 .debug_abbrev  0x0000247e      0x2e8 Drivers/STM32F4xx_HAL_Driver/Src/stm32f4xx_hal_sd.o
 .debug_abbrev  0x00002766      0x2fa Drivers/STM32F4xx_HAL_Driver/Src/stm32f4xx_hal_spi.o
 .debug_abbrev  0x00002a60      0x2fb Drivers/STM32F4xx_HAL_Driver/Src/stm32f4xx_hal_tim.o
 .debug_abbrev  0x00002d5b      0x2d8 Drivers/STM32F4xx_HAL_Driver/Src/stm32f4xx_hal_tim_ex.o
 .debug_abbrev  0x00003033      0x30b Drivers/STM32F4xx_HAL_Driver/Src/stm32f4xx_hal_uart.o
 .debug_abbrev  0x0000333e      0x2ad Drivers/STM32F4xx_HAL_Driver/Src/stm32f4xx_ll_sdmmc.o
 .debug_abbrev  0x000035eb      0x307 Drivers/STM32F4xx_HAL_Driver/Src/stm32f4xx_ll_usb.o
 .debug_abbrev  0x000038f2      0x2f0 Middlewares/ST/STM32_USB_Device_Library/Class/CDC/Src/usbd_cdc.o
 .debug_abbrev  0x00003be2      0x2b7 Middlewares/ST/STM32_USB_Device_Library/Core/Src/usbd_core.o
 .debug_abbrev  0x00003e99      0x2e7 Middlewares/ST/STM32_USB_Device_Library/Core/Src/usbd_ctlreq.o
 .debug_abbrev  0x00004180      0x227 Middlewares/ST/STM32_USB_Device_Library/Core/Src/usbd_ioreq.o
 .debug_abbrev  0x000043a7      0x25f Middlewares/Third_Party/FatFs/src/diskio.o
 .debug_abbrev  0x00004606      0x2ee Middlewares/Third_Party/FatFs/src/ff.o
 .debug_abbrev  0x000048f4      0x27b Middlewares/Third_Party/FatFs/src/ff_gen_drv.o
 .debug_abbrev  0x00004b6f      0x2db Src/Adafruit_GFX_AS.o
 .debug_abbrev  0x00004e4a      0x2df Src/Adafruit_HX8357.o
 .debug_abbrev  0x00005129      0x273 Src/DHT22.o
 .debug_abbrev  0x0000539c       0x8d Src/Font16.o
 .debug_abbrev  0x00005429       0x8d Src/Font32.o
 .debug_abbrev  0x000054b6       0x96 Src/Font64.o
 .debug_abbrev  0x0000554c       0x7c Src/Font7s.o
 .debug_abbrev  0x000055c8      0x259 Src/PMS5003ST.o
 .debug_abbrev  0x00005821      0x35a Src/TFT.o
 .debug_abbrev  0x00005b7b      0x268 Src/TouchScreen.o
 .debug_abbrev  0x00005de3      0x32f Src/bsp_driver_sd.o
 .debug_abbrev  0x00006112      0x223 Src/dwt_stm32_delay.o
 .debug_abbrev  0x00006335      0x235 Src/fatfs.o
 .debug_abbrev  0x0000656a      0x356 Src/main.o
 .debug_abbrev  0x000068c0      0x250 Src/sd_diskio.o
 .debug_abbrev  0x00006b10      0x296 Src/sd_functions.o
 .debug_abbrev  0x00006da6      0x253 Src/sensors_I2C.o
 .debug_abbrev  0x00006ff9      0x2b2 Src/stm32f4xx_hal_msp.o
 .debug_abbrev  0x000072ab      0x276 Src/stm32f4xx_it.o
 .debug_abbrev  0x00007521      0x230 Src/system_stm32f4xx.o
 .debug_abbrev  0x00007751      0x201 Src/usb_device.o
 .debug_abbrev  0x00007952      0x2bb Src/usbd_cdc_if.o
 .debug_abbrev  0x00007c0d      0x2bf Src/usbd_conf.o
 .debug_abbrev  0x00007ecc      0x272 Src/usbd_desc.o
 .debug_abbrev  0x0000813e       0x12 startup/startup_stm32f427xx.o

.debug_aranges  0x00000000     0x2670
 .debug_aranges
                0x00000000       0xf0 Drivers/STM32F4xx_HAL_Driver/Src/stm32f4xx_hal.o
 .debug_aranges
                0x000000f0       0xe8 Drivers/STM32F4xx_HAL_Driver/Src/stm32f4xx_hal_adc.o
 .debug_aranges
                0x000001d8       0x90 Drivers/STM32F4xx_HAL_Driver/Src/stm32f4xx_hal_adc_ex.o
 .debug_aranges
                0x00000268      0x118 Drivers/STM32F4xx_HAL_Driver/Src/stm32f4xx_hal_cortex.o
 .debug_aranges
                0x00000380       0x90 Drivers/STM32F4xx_HAL_Driver/Src/stm32f4xx_hal_dma.o
 .debug_aranges
                0x00000410       0x58 Drivers/STM32F4xx_HAL_Driver/Src/stm32f4xx_hal_gpio.o
 .debug_aranges
                0x00000468      0x268 Drivers/STM32F4xx_HAL_Driver/Src/stm32f4xx_hal_i2c.o
 .debug_aranges
                0x000006d0      0x120 Drivers/STM32F4xx_HAL_Driver/Src/stm32f4xx_hal_pcd.o
 .debug_aranges
                0x000007f0       0x28 Drivers/STM32F4xx_HAL_Driver/Src/stm32f4xx_hal_pcd_ex.o
 .debug_aranges
                0x00000818       0x88 Drivers/STM32F4xx_HAL_Driver/Src/stm32f4xx_hal_rcc.o
 .debug_aranges
                0x000008a0       0x58 Drivers/STM32F4xx_HAL_Driver/Src/stm32f4xx_hal_rcc_ex.o
 .debug_aranges
                0x000008f8       0xb8 Drivers/STM32F4xx_HAL_Driver/Src/stm32f4xx_hal_rtc.o
 .debug_aranges
                0x000009b0      0x130 Drivers/STM32F4xx_HAL_Driver/Src/stm32f4xx_hal_rtc_ex.o
 .debug_aranges
                0x00000ae0      0x168 Drivers/STM32F4xx_HAL_Driver/Src/stm32f4xx_hal_sd.o
 .debug_aranges
                0x00000c48      0x1c8 Drivers/STM32F4xx_HAL_Driver/Src/stm32f4xx_hal_spi.o
 .debug_aranges
                0x00000e10      0x368 Drivers/STM32F4xx_HAL_Driver/Src/stm32f4xx_hal_tim.o
 .debug_aranges
                0x00001178      0x140 Drivers/STM32F4xx_HAL_Driver/Src/stm32f4xx_hal_tim_ex.o
 .debug_aranges
                0x000012b8      0x1d0 Drivers/STM32F4xx_HAL_Driver/Src/stm32f4xx_hal_uart.o
 .debug_aranges
                0x00001488      0x178 Drivers/STM32F4xx_HAL_Driver/Src/stm32f4xx_ll_sdmmc.o
 .debug_aranges
                0x00001600      0x180 Drivers/STM32F4xx_HAL_Driver/Src/stm32f4xx_ll_usb.o
 .debug_aranges
                0x00001780       0x90 Middlewares/ST/STM32_USB_Device_Library/Class/CDC/Src/usbd_cdc.o
 .debug_aranges
                0x00001810       0xb8 Middlewares/ST/STM32_USB_Device_Library/Core/Src/usbd_core.o
 .debug_aranges
                0x000018c8       0x88 Middlewares/ST/STM32_USB_Device_Library/Core/Src/usbd_ctlreq.o
 .debug_aranges
                0x00001950       0x50 Middlewares/ST/STM32_USB_Device_Library/Core/Src/usbd_ioreq.o
 .debug_aranges
                0x000019a0       0x48 Middlewares/Third_Party/FatFs/src/diskio.o
 .debug_aranges
                0x000019e8      0x208 Middlewares/Third_Party/FatFs/src/ff.o
 .debug_aranges
                0x00001bf0       0x40 Middlewares/Third_Party/FatFs/src/ff_gen_drv.o
 .debug_aranges
                0x00001c30       0x90 Src/Adafruit_GFX_AS.o
 .debug_aranges
                0x00001cc0       0xf0 Src/Adafruit_HX8357.o
 .debug_aranges
                0x00001db0       0x60 Src/DHT22.o
 .debug_aranges
                0x00001e10       0x18 Src/Font16.o
 .debug_aranges
                0x00001e28       0x18 Src/Font32.o
 .debug_aranges
                0x00001e40       0x18 Src/Font64.o
 .debug_aranges
                0x00001e58       0x18 Src/Font7s.o
 .debug_aranges
                0x00001e70       0xd0 Src/PMS5003ST.o
 .debug_aranges
                0x00001f40      0x158 Src/TFT.o
 .debug_aranges
                0x00002098       0x40 Src/TouchScreen.o
 .debug_aranges
                0x000020d8       0xc0 Src/bsp_driver_sd.o
 .debug_aranges
                0x00002198       0x28 Src/dwt_stm32_delay.o
 .debug_aranges
                0x000021c0       0x28 Src/fatfs.o
 .debug_aranges
                0x000021e8       0xc8 Src/main.o
 .debug_aranges
                0x000022b0       0x48 Src/sd_diskio.o
 .debug_aranges
                0x000022f8       0x30 Src/sd_functions.o
 .debug_aranges
                0x00002328       0x38 Src/sensors_I2C.o
 .debug_aranges
                0x00002360       0x98 Src/stm32f4xx_hal_msp.o
 .debug_aranges
                0x000023f8       0x80 Src/stm32f4xx_it.o
 .debug_aranges
                0x00002478       0x28 Src/system_stm32f4xx.o
 .debug_aranges
                0x000024a0       0x20 Src/usb_device.o
 .debug_aranges
                0x000024c0       0x40 Src/usbd_cdc_if.o
 .debug_aranges
                0x00002500       0xf8 Src/usbd_conf.o
 .debug_aranges
                0x000025f8       0x50 Src/usbd_desc.o
 .debug_aranges
                0x00002648       0x28 startup/startup_stm32f427xx.o

.debug_ranges   0x00000000     0x2330
 .debug_ranges  0x00000000       0xe0 Drivers/STM32F4xx_HAL_Driver/Src/stm32f4xx_hal.o
 .debug_ranges  0x000000e0       0xd8 Drivers/STM32F4xx_HAL_Driver/Src/stm32f4xx_hal_adc.o
 .debug_ranges  0x000001b8       0x80 Drivers/STM32F4xx_HAL_Driver/Src/stm32f4xx_hal_adc_ex.o
 .debug_ranges  0x00000238      0x108 Drivers/STM32F4xx_HAL_Driver/Src/stm32f4xx_hal_cortex.o
 .debug_ranges  0x00000340       0x80 Drivers/STM32F4xx_HAL_Driver/Src/stm32f4xx_hal_dma.o
 .debug_ranges  0x000003c0       0x48 Drivers/STM32F4xx_HAL_Driver/Src/stm32f4xx_hal_gpio.o
 .debug_ranges  0x00000408      0x258 Drivers/STM32F4xx_HAL_Driver/Src/stm32f4xx_hal_i2c.o
 .debug_ranges  0x00000660      0x110 Drivers/STM32F4xx_HAL_Driver/Src/stm32f4xx_hal_pcd.o
 .debug_ranges  0x00000770       0x18 Drivers/STM32F4xx_HAL_Driver/Src/stm32f4xx_hal_pcd_ex.o
 .debug_ranges  0x00000788       0x78 Drivers/STM32F4xx_HAL_Driver/Src/stm32f4xx_hal_rcc.o
 .debug_ranges  0x00000800       0x48 Drivers/STM32F4xx_HAL_Driver/Src/stm32f4xx_hal_rcc_ex.o
 .debug_ranges  0x00000848       0xa8 Drivers/STM32F4xx_HAL_Driver/Src/stm32f4xx_hal_rtc.o
 .debug_ranges  0x000008f0      0x120 Drivers/STM32F4xx_HAL_Driver/Src/stm32f4xx_hal_rtc_ex.o
 .debug_ranges  0x00000a10      0x158 Drivers/STM32F4xx_HAL_Driver/Src/stm32f4xx_hal_sd.o
 .debug_ranges  0x00000b68      0x1b8 Drivers/STM32F4xx_HAL_Driver/Src/stm32f4xx_hal_spi.o
 .debug_ranges  0x00000d20      0x358 Drivers/STM32F4xx_HAL_Driver/Src/stm32f4xx_hal_tim.o
 .debug_ranges  0x00001078      0x130 Drivers/STM32F4xx_HAL_Driver/Src/stm32f4xx_hal_tim_ex.o
 .debug_ranges  0x000011a8      0x1c0 Drivers/STM32F4xx_HAL_Driver/Src/stm32f4xx_hal_uart.o
 .debug_ranges  0x00001368      0x168 Drivers/STM32F4xx_HAL_Driver/Src/stm32f4xx_ll_sdmmc.o
 .debug_ranges  0x000014d0      0x170 Drivers/STM32F4xx_HAL_Driver/Src/stm32f4xx_ll_usb.o
 .debug_ranges  0x00001640       0x80 Middlewares/ST/STM32_USB_Device_Library/Class/CDC/Src/usbd_cdc.o
 .debug_ranges  0x000016c0       0xa8 Middlewares/ST/STM32_USB_Device_Library/Core/Src/usbd_core.o
 .debug_ranges  0x00001768       0x78 Middlewares/ST/STM32_USB_Device_Library/Core/Src/usbd_ctlreq.o
 .debug_ranges  0x000017e0       0x40 Middlewares/ST/STM32_USB_Device_Library/Core/Src/usbd_ioreq.o
 .debug_ranges  0x00001820       0x38 Middlewares/Third_Party/FatFs/src/diskio.o
 .debug_ranges  0x00001858      0x1f8 Middlewares/Third_Party/FatFs/src/ff.o
 .debug_ranges  0x00001a50       0x30 Middlewares/Third_Party/FatFs/src/ff_gen_drv.o
 .debug_ranges  0x00001a80       0x98 Src/Adafruit_GFX_AS.o
 .debug_ranges  0x00001b18       0xe0 Src/Adafruit_HX8357.o
 .debug_ranges  0x00001bf8       0x50 Src/DHT22.o
 .debug_ranges  0x00001c48       0xc0 Src/PMS5003ST.o
 .debug_ranges  0x00001d08      0x148 Src/TFT.o
 .debug_ranges  0x00001e50       0x30 Src/TouchScreen.o
 .debug_ranges  0x00001e80       0xb0 Src/bsp_driver_sd.o
 .debug_ranges  0x00001f30       0x18 Src/dwt_stm32_delay.o
 .debug_ranges  0x00001f48       0x18 Src/fatfs.o
 .debug_ranges  0x00001f60       0xb8 Src/main.o
 .debug_ranges  0x00002018       0x38 Src/sd_diskio.o
 .debug_ranges  0x00002050       0x20 Src/sd_functions.o
 .debug_ranges  0x00002070       0x28 Src/sensors_I2C.o
 .debug_ranges  0x00002098       0x88 Src/stm32f4xx_hal_msp.o
 .debug_ranges  0x00002120       0x70 Src/stm32f4xx_it.o
 .debug_ranges  0x00002190       0x18 Src/system_stm32f4xx.o
 .debug_ranges  0x000021a8       0x10 Src/usb_device.o
 .debug_ranges  0x000021b8       0x30 Src/usbd_cdc_if.o
 .debug_ranges  0x000021e8       0xe8 Src/usbd_conf.o
 .debug_ranges  0x000022d0       0x40 Src/usbd_desc.o
 .debug_ranges  0x00002310       0x20 startup/startup_stm32f427xx.o

.debug_macro    0x00000000    0x3164d
 .debug_macro   0x00000000      0x427 Drivers/STM32F4xx_HAL_Driver/Src/stm32f4xx_hal.o
 .debug_macro   0x00000427      0xa60 Drivers/STM32F4xx_HAL_Driver/Src/stm32f4xx_hal.o
 .debug_macro   0x00000e87       0x32 Drivers/STM32F4xx_HAL_Driver/Src/stm32f4xx_hal.o
 .debug_macro   0x00000eb9       0x28 Drivers/STM32F4xx_HAL_Driver/Src/stm32f4xx_hal.o
 .debug_macro   0x00000ee1       0x22 Drivers/STM32F4xx_HAL_Driver/Src/stm32f4xx_hal.o
 .debug_macro   0x00000f03       0x8e Drivers/STM32F4xx_HAL_Driver/Src/stm32f4xx_hal.o
 .debug_macro   0x00000f91       0x51 Drivers/STM32F4xx_HAL_Driver/Src/stm32f4xx_hal.o
 .debug_macro   0x00000fe2       0xef Drivers/STM32F4xx_HAL_Driver/Src/stm32f4xx_hal.o
 .debug_macro   0x000010d1       0x6a Drivers/STM32F4xx_HAL_Driver/Src/stm32f4xx_hal.o
 .debug_macro   0x0000113b      0x1df Drivers/STM32F4xx_HAL_Driver/Src/stm32f4xx_hal.o
 .debug_macro   0x0000131a       0x35 Drivers/STM32F4xx_HAL_Driver/Src/stm32f4xx_hal.o
 .debug_macro   0x0000134f       0x50 Drivers/STM32F4xx_HAL_Driver/Src/stm32f4xx_hal.o
 .debug_macro   0x0000139f      0xe66 Drivers/STM32F4xx_HAL_Driver/Src/stm32f4xx_hal.o
 .debug_macro   0x00002205    0x17721 Drivers/STM32F4xx_HAL_Driver/Src/stm32f4xx_hal.o
 .debug_macro   0x00019926       0x43 Drivers/STM32F4xx_HAL_Driver/Src/stm32f4xx_hal.o
 .debug_macro   0x00019969     0x35a5 Drivers/STM32F4xx_HAL_Driver/Src/stm32f4xx_hal.o
 .debug_macro   0x0001cf0e       0x5e Drivers/STM32F4xx_HAL_Driver/Src/stm32f4xx_hal.o
 .debug_macro   0x0001cf6c       0x18 Drivers/STM32F4xx_HAL_Driver/Src/stm32f4xx_hal.o
 .debug_macro   0x0001cf84       0x35 Drivers/STM32F4xx_HAL_Driver/Src/stm32f4xx_hal.o
 .debug_macro   0x0001cfb9       0x34 Drivers/STM32F4xx_HAL_Driver/Src/stm32f4xx_hal.o
 .debug_macro   0x0001cfed       0x16 Drivers/STM32F4xx_HAL_Driver/Src/stm32f4xx_hal.o
 .debug_macro   0x0001d003       0x97 Drivers/STM32F4xx_HAL_Driver/Src/stm32f4xx_hal.o
 .debug_macro   0x0001d09a      0x330 Drivers/STM32F4xx_HAL_Driver/Src/stm32f4xx_hal.o
 .debug_macro   0x0001d3ca       0xfd Drivers/STM32F4xx_HAL_Driver/Src/stm32f4xx_hal.o
 .debug_macro   0x0001d4c7       0x10 Drivers/STM32F4xx_HAL_Driver/Src/stm32f4xx_hal.o
 .debug_macro   0x0001d4d7       0x58 Drivers/STM32F4xx_HAL_Driver/Src/stm32f4xx_hal.o
 .debug_macro   0x0001d52f       0x1f Drivers/STM32F4xx_HAL_Driver/Src/stm32f4xx_hal.o
 .debug_macro   0x0001d54e       0x43 Drivers/STM32F4xx_HAL_Driver/Src/stm32f4xx_hal.o
 .debug_macro   0x0001d591       0x20 Drivers/STM32F4xx_HAL_Driver/Src/stm32f4xx_hal.o
 .debug_macro   0x0001d5b1      0x18e Drivers/STM32F4xx_HAL_Driver/Src/stm32f4xx_hal.o
 .debug_macro   0x0001d73f       0x10 Drivers/STM32F4xx_HAL_Driver/Src/stm32f4xx_hal.o
 .debug_macro   0x0001d74f       0x1c Drivers/STM32F4xx_HAL_Driver/Src/stm32f4xx_hal.o
 .debug_macro   0x0001d76b       0x52 Drivers/STM32F4xx_HAL_Driver/Src/stm32f4xx_hal.o
 .debug_macro   0x0001d7bd       0x40 Drivers/STM32F4xx_HAL_Driver/Src/stm32f4xx_hal.o
 .debug_macro   0x0001d7fd       0x10 Drivers/STM32F4xx_HAL_Driver/Src/stm32f4xx_hal.o
 .debug_macro   0x0001d80d       0x40 Drivers/STM32F4xx_HAL_Driver/Src/stm32f4xx_hal.o
 .debug_macro   0x0001d84d       0xd7 Drivers/STM32F4xx_HAL_Driver/Src/stm32f4xx_hal.o
 .debug_macro   0x0001d924       0x1c Drivers/STM32F4xx_HAL_Driver/Src/stm32f4xx_hal.o
 .debug_macro   0x0001d940       0x3d Drivers/STM32F4xx_HAL_Driver/Src/stm32f4xx_hal.o
 .debug_macro   0x0001d97d       0x16 Drivers/STM32F4xx_HAL_Driver/Src/stm32f4xx_hal.o
 .debug_macro   0x0001d993      0x16f Drivers/STM32F4xx_HAL_Driver/Src/stm32f4xx_hal.o
 .debug_macro   0x0001db02       0x50 Drivers/STM32F4xx_HAL_Driver/Src/stm32f4xx_hal.o
 .debug_macro   0x0001db52      0x281 Drivers/STM32F4xx_HAL_Driver/Src/stm32f4xx_hal.o
 .debug_macro   0x0001ddd3       0x5f Drivers/STM32F4xx_HAL_Driver/Src/stm32f4xx_hal.o
 .debug_macro   0x0001de32      0x202 Drivers/STM32F4xx_HAL_Driver/Src/stm32f4xx_hal.o
 .debug_macro   0x0001e034      0x391 Drivers/STM32F4xx_HAL_Driver/Src/stm32f4xx_hal.o
 .debug_macro   0x0001e3c5      0x184 Drivers/STM32F4xx_HAL_Driver/Src/stm32f4xx_hal.o
 .debug_macro   0x0001e549       0xf9 Drivers/STM32F4xx_HAL_Driver/Src/stm32f4xx_hal.o
 .debug_macro   0x0001e642      0x1a7 Drivers/STM32F4xx_HAL_Driver/Src/stm32f4xx_hal.o
 .debug_macro   0x0001e7e9       0x22 Drivers/STM32F4xx_HAL_Driver/Src/stm32f4xx_hal.o
 .debug_macro   0x0001e80b       0xa5 Drivers/STM32F4xx_HAL_Driver/Src/stm32f4xx_hal.o
 .debug_macro   0x0001e8b0      0x31a Drivers/STM32F4xx_HAL_Driver/Src/stm32f4xx_hal.o
 .debug_macro   0x0001ebca      0x409 Drivers/STM32F4xx_HAL_Driver/Src/stm32f4xx_hal.o
 .debug_macro   0x0001efd3       0xe4 Drivers/STM32F4xx_HAL_Driver/Src/stm32f4xx_hal.o
 .debug_macro   0x0001f0b7      0x181 Drivers/STM32F4xx_HAL_Driver/Src/stm32f4xx_hal.o
 .debug_macro   0x0001f238      0x1a4 Drivers/STM32F4xx_HAL_Driver/Src/stm32f4xx_hal.o
 .debug_macro   0x0001f3dc      0xc6d Drivers/STM32F4xx_HAL_Driver/Src/stm32f4xx_hal.o
 .debug_macro   0x00020049      0xa02 Drivers/STM32F4xx_HAL_Driver/Src/stm32f4xx_hal.o
 .debug_macro   0x00020a4b      0x11e Drivers/STM32F4xx_HAL_Driver/Src/stm32f4xx_hal.o
 .debug_macro   0x00020b69      0x16f Drivers/STM32F4xx_HAL_Driver/Src/stm32f4xx_hal.o
 .debug_macro   0x00020cd8       0x27 Drivers/STM32F4xx_HAL_Driver/Src/stm32f4xx_hal.o
 .debug_macro   0x00020cff      0x23a Drivers/STM32F4xx_HAL_Driver/Src/stm32f4xx_hal.o
 .debug_macro   0x00020f39      0x13a Drivers/STM32F4xx_HAL_Driver/Src/stm32f4xx_hal.o
 .debug_macro   0x00021073      0x41d Drivers/STM32F4xx_HAL_Driver/Src/stm32f4xx_hal.o
 .debug_macro   0x00021490       0x2e Drivers/STM32F4xx_HAL_Driver/Src/stm32f4xx_hal.o
 .debug_macro   0x000214be      0x11e Drivers/STM32F4xx_HAL_Driver/Src/stm32f4xx_hal.o
 .debug_macro   0x000215dc       0xe2 Drivers/STM32F4xx_HAL_Driver/Src/stm32f4xx_hal.o
 .debug_macro   0x000216be       0x89 Drivers/STM32F4xx_HAL_Driver/Src/stm32f4xx_hal.o
 .debug_macro   0x00021747      0x845 Drivers/STM32F4xx_HAL_Driver/Src/stm32f4xx_hal.o
 .debug_macro   0x00021f8c      0x198 Drivers/STM32F4xx_HAL_Driver/Src/stm32f4xx_hal.o
 .debug_macro   0x00022124      0x6e0 Drivers/STM32F4xx_HAL_Driver/Src/stm32f4xx_hal.o
 .debug_macro   0x00022804       0x59 Drivers/STM32F4xx_HAL_Driver/Src/stm32f4xx_hal.o
 .debug_macro   0x0002285d      0x14d Drivers/STM32F4xx_HAL_Driver/Src/stm32f4xx_hal.o
 .debug_macro   0x000229aa      0x287 Drivers/STM32F4xx_HAL_Driver/Src/stm32f4xx_hal.o
 .debug_macro   0x00022c31      0x1df Drivers/STM32F4xx_HAL_Driver/Src/stm32f4xx_hal.o
 .debug_macro   0x00022e10      0x115 Drivers/STM32F4xx_HAL_Driver/Src/stm32f4xx_hal.o
 .debug_macro   0x00022f25      0x13b Drivers/STM32F4xx_HAL_Driver/Src/stm32f4xx_hal.o
 .debug_macro   0x00023060      0x3c8 Drivers/STM32F4xx_HAL_Driver/Src/stm32f4xx_hal_adc.o
 .debug_macro   0x00023428      0x3c7 Drivers/STM32F4xx_HAL_Driver/Src/stm32f4xx_hal_adc_ex.o
 .debug_macro   0x000237ef      0x3c7 Drivers/STM32F4xx_HAL_Driver/Src/stm32f4xx_hal_cortex.o
 .debug_macro   0x00023bb6      0x3ce Drivers/STM32F4xx_HAL_Driver/Src/stm32f4xx_hal_dma.o
 .debug_macro   0x00023f84      0x3ff Drivers/STM32F4xx_HAL_Driver/Src/stm32f4xx_hal_gpio.o
 .debug_macro   0x00024383      0x407 Drivers/STM32F4xx_HAL_Driver/Src/stm32f4xx_hal_i2c.o
 .debug_macro   0x0002478a      0x3d3 Drivers/STM32F4xx_HAL_Driver/Src/stm32f4xx_hal_pcd.o
 .debug_macro   0x00024b5d      0x3c7 Drivers/STM32F4xx_HAL_Driver/Src/stm32f4xx_hal_pcd_ex.o
 .debug_macro   0x00024f24      0x3eb Drivers/STM32F4xx_HAL_Driver/Src/stm32f4xx_hal_rcc.o
 .debug_macro   0x0002530f      0x3c7 Drivers/STM32F4xx_HAL_Driver/Src/stm32f4xx_hal_rcc_ex.o
 .debug_macro   0x000256d6      0x3c8 Drivers/STM32F4xx_HAL_Driver/Src/stm32f4xx_hal_rtc.o
 .debug_macro   0x00025a9e      0x3c7 Drivers/STM32F4xx_HAL_Driver/Src/stm32f4xx_hal_rtc_ex.o
 .debug_macro   0x00025e65      0x3c8 Drivers/STM32F4xx_HAL_Driver/Src/stm32f4xx_hal_sd.o
 .debug_macro   0x0002622d      0x3cf Drivers/STM32F4xx_HAL_Driver/Src/stm32f4xx_hal_spi.o
 .debug_macro   0x000265fc      0x3c7 Drivers/STM32F4xx_HAL_Driver/Src/stm32f4xx_hal_tim.o
 .debug_macro   0x000269c3      0x3c7 Drivers/STM32F4xx_HAL_Driver/Src/stm32f4xx_hal_tim_ex.o
 .debug_macro   0x00026d8a      0x3c8 Drivers/STM32F4xx_HAL_Driver/Src/stm32f4xx_hal_uart.o
 .debug_macro   0x00027152      0x3c8 Drivers/STM32F4xx_HAL_Driver/Src/stm32f4xx_ll_sdmmc.o
 .debug_macro   0x0002751a      0x3c7 Drivers/STM32F4xx_HAL_Driver/Src/stm32f4xx_ll_usb.o
 .debug_macro   0x000278e1      0x48c Middlewares/ST/STM32_USB_Device_Library/Class/CDC/Src/usbd_cdc.o
 .debug_macro   0x00027d6d       0x58 Middlewares/ST/STM32_USB_Device_Library/Class/CDC/Src/usbd_cdc.o
 .debug_macro   0x00027dc5       0x94 Middlewares/ST/STM32_USB_Device_Library/Class/CDC/Src/usbd_cdc.o
 .debug_macro   0x00027e59       0x57 Middlewares/ST/STM32_USB_Device_Library/Class/CDC/Src/usbd_cdc.o
 .debug_macro   0x00027eb0       0x16 Middlewares/ST/STM32_USB_Device_Library/Class/CDC/Src/usbd_cdc.o
 .debug_macro   0x00027ec6       0x35 Middlewares/ST/STM32_USB_Device_Library/Class/CDC/Src/usbd_cdc.o
 .debug_macro   0x00027efb       0x16 Middlewares/ST/STM32_USB_Device_Library/Class/CDC/Src/usbd_cdc.o
 .debug_macro   0x00027f11       0x29 Middlewares/ST/STM32_USB_Device_Library/Class/CDC/Src/usbd_cdc.o
 .debug_macro   0x00027f3a       0x16 Middlewares/ST/STM32_USB_Device_Library/Class/CDC/Src/usbd_cdc.o
 .debug_macro   0x00027f50       0x71 Middlewares/ST/STM32_USB_Device_Library/Class/CDC/Src/usbd_cdc.o
 .debug_macro   0x00027fc1      0x1c3 Middlewares/ST/STM32_USB_Device_Library/Class/CDC/Src/usbd_cdc.o
 .debug_macro   0x00028184       0x83 Middlewares/ST/STM32_USB_Device_Library/Class/CDC/Src/usbd_cdc.o
 .debug_macro   0x00028207      0x465 Middlewares/ST/STM32_USB_Device_Library/Core/Src/usbd_core.o
 .debug_macro   0x0002866c      0x1c9 Middlewares/ST/STM32_USB_Device_Library/Core/Src/usbd_core.o
 .debug_macro   0x00028835      0x46f Middlewares/ST/STM32_USB_Device_Library/Core/Src/usbd_ctlreq.o
 .debug_macro   0x00028ca4      0x46b Middlewares/ST/STM32_USB_Device_Library/Core/Src/usbd_ioreq.o
 .debug_macro   0x0002910f      0x44a Middlewares/Third_Party/FatFs/src/diskio.o
 .debug_macro   0x00029559       0x16 Middlewares/Third_Party/FatFs/src/diskio.o
 .debug_macro   0x0002956f       0x7c Middlewares/Third_Party/FatFs/src/diskio.o
 .debug_macro   0x000295eb       0x3a Middlewares/Third_Party/FatFs/src/diskio.o
 .debug_macro   0x00029625       0xe7 Middlewares/Third_Party/FatFs/src/diskio.o
 .debug_macro   0x0002970c       0x12 Middlewares/Third_Party/FatFs/src/diskio.o
 .debug_macro   0x0002971e       0xdb Middlewares/Third_Party/FatFs/src/diskio.o
 .debug_macro   0x000297f9      0x851 Middlewares/Third_Party/FatFs/src/ff.o
 .debug_macro   0x0002a04a       0x8e Middlewares/Third_Party/FatFs/src/ff.o
 .debug_macro   0x0002a0d8       0x4c Middlewares/Third_Party/FatFs/src/ff.o
 .debug_macro   0x0002a124      0x44a Middlewares/Third_Party/FatFs/src/ff_gen_drv.o
 .debug_macro   0x0002a56e      0x22d Src/Adafruit_GFX_AS.o
 .debug_macro   0x0002a79b      0x8bc Src/Adafruit_GFX_AS.o
 .debug_macro   0x0002b057       0x22 Src/Adafruit_GFX_AS.o
 .debug_macro   0x0002b079       0x22 Src/Adafruit_GFX_AS.o
 .debug_macro   0x0002b09b       0x87 Src/Adafruit_GFX_AS.o
 .debug_macro   0x0002b122       0x22 Src/Adafruit_GFX_AS.o
 .debug_macro   0x0002b144      0x1ac Src/Adafruit_GFX_AS.o
 .debug_macro   0x0002b2f0       0x58 Src/Adafruit_GFX_AS.o
 .debug_macro   0x0002b348       0x35 Src/Adafruit_GFX_AS.o
 .debug_macro   0x0002b37d       0x9c Src/Adafruit_GFX_AS.o
 .debug_macro   0x0002b419      0x330 Src/Adafruit_GFX_AS.o
 .debug_macro   0x0002b749       0x20 Src/Adafruit_GFX_AS.o
 .debug_macro   0x0002b769      0x187 Src/Adafruit_GFX_AS.o
 .debug_macro   0x0002b8f0       0x40 Src/Adafruit_GFX_AS.o
 .debug_macro   0x0002b930      0x18b Src/Adafruit_GFX_AS.o
 .debug_macro   0x0002babb       0x10 Src/Adafruit_GFX_AS.o
 .debug_macro   0x0002bacb       0x1c Src/Adafruit_GFX_AS.o
 .debug_macro   0x0002bae7       0x1c Src/Adafruit_GFX_AS.o
 .debug_macro   0x0002bb03       0x1c Src/Adafruit_GFX_AS.o
 .debug_macro   0x0002bb1f       0x1c Src/Adafruit_GFX_AS.o
 .debug_macro   0x0002bb3b      0x4a7 Src/Adafruit_HX8357.o
 .debug_macro   0x0002bfe2      0x174 Src/Adafruit_HX8357.o
 .debug_macro   0x0002c156       0x25 Src/Adafruit_HX8357.o
 .debug_macro   0x0002c17b      0x118 Src/Adafruit_HX8357.o
 .debug_macro   0x0002c293       0x3b Src/Adafruit_HX8357.o
 .debug_macro   0x0002c2ce      0x287 Src/Adafruit_HX8357.o
 .debug_macro   0x0002c555      0x3da Src/DHT22.o
 .debug_macro   0x0002c92f       0x20 Src/Font16.o
 .debug_macro   0x0002c94f       0x20 Src/Font32.o
 .debug_macro   0x0002c96f       0x20 Src/Font64.o
 .debug_macro   0x0002c98f       0x20 Src/Font7s.o
 .debug_macro   0x0002c9af      0x3d7 Src/PMS5003ST.o
 .debug_macro   0x0002cd86      0x425 Src/TFT.o
 .debug_macro   0x0002d1ab       0x3a Src/TFT.o
 .debug_macro   0x0002d1e5      0x273 Src/TFT.o
 .debug_macro   0x0002d458      0x1e1 Src/TFT.o
 .debug_macro   0x0002d639      0x3e3 Src/TouchScreen.o
 .debug_macro   0x0002da1c      0x3d6 Src/bsp_driver_sd.o
 .debug_macro   0x0002ddf2       0x34 Src/bsp_driver_sd.o
 .debug_macro   0x0002de26      0x3d0 Src/dwt_stm32_delay.o
 .debug_macro   0x0002e1f6      0x45d Src/fatfs.o
 .debug_macro   0x0002e653      0x508 Src/main.o
 .debug_macro   0x0002eb5b       0x40 Src/main.o
 .debug_macro   0x0002eb9b       0x10 Src/main.o
 .debug_macro   0x0002ebab      0x460 Src/sd_diskio.o
 .debug_macro   0x0002f00b      0x4b3 Src/sd_functions.o
 .debug_macro   0x0002f4be      0x3d1 Src/sensors_I2C.o
 .debug_macro   0x0002f88f      0x3c7 Src/stm32f4xx_hal_msp.o
 .debug_macro   0x0002fc56      0x3d1 Src/stm32f4xx_it.o
 .debug_macro   0x00030027      0x3d2 Src/system_stm32f4xx.o
 .debug_macro   0x000303f9      0x4a6 Src/usb_device.o
 .debug_macro   0x0003089f      0x490 Src/usbd_cdc_if.o
 .debug_macro   0x00030d2f      0x475 Src/usbd_conf.o
 .debug_macro   0x000311a4      0x4a9 Src/usbd_desc.o

.debug_line     0x00000000    0x25180
 .debug_line    0x00000000      0xaaa Drivers/STM32F4xx_HAL_Driver/Src/stm32f4xx_hal.o
 .debug_line    0x00000aaa      0xcbc Drivers/STM32F4xx_HAL_Driver/Src/stm32f4xx_hal_adc.o
 .debug_line    0x00001766      0xbae Drivers/STM32F4xx_HAL_Driver/Src/stm32f4xx_hal_adc_ex.o
 .debug_line    0x00002314      0xbc1 Drivers/STM32F4xx_HAL_Driver/Src/stm32f4xx_hal_cortex.o
 .debug_line    0x00002ed5      0xb74 Drivers/STM32F4xx_HAL_Driver/Src/stm32f4xx_hal_dma.o
 .debug_line    0x00003a49      0xaaf Drivers/STM32F4xx_HAL_Driver/Src/stm32f4xx_hal_gpio.o
 .debug_line    0x000044f8     0x1894 Drivers/STM32F4xx_HAL_Driver/Src/stm32f4xx_hal_i2c.o
 .debug_line    0x00005d8c      0xde3 Drivers/STM32F4xx_HAL_Driver/Src/stm32f4xx_hal_pcd.o
 .debug_line    0x00006b6f      0x8e4 Drivers/STM32F4xx_HAL_Driver/Src/stm32f4xx_hal_pcd_ex.o
 .debug_line    0x00007453      0xaef Drivers/STM32F4xx_HAL_Driver/Src/stm32f4xx_hal_rcc.o
 .debug_line    0x00007f42      0xa47 Drivers/STM32F4xx_HAL_Driver/Src/stm32f4xx_hal_rcc_ex.o
 .debug_line    0x00008989      0xc3e Drivers/STM32F4xx_HAL_Driver/Src/stm32f4xx_hal_rtc.o
 .debug_line    0x000095c7      0xf79 Drivers/STM32F4xx_HAL_Driver/Src/stm32f4xx_hal_rtc_ex.o
 .debug_line    0x0000a540     0x10c0 Drivers/STM32F4xx_HAL_Driver/Src/stm32f4xx_hal_sd.o
 .debug_line    0x0000b600     0x1216 Drivers/STM32F4xx_HAL_Driver/Src/stm32f4xx_hal_spi.o
 .debug_line    0x0000c816     0x1a3e Drivers/STM32F4xx_HAL_Driver/Src/stm32f4xx_hal_tim.o
 .debug_line    0x0000e254      0xe45 Drivers/STM32F4xx_HAL_Driver/Src/stm32f4xx_hal_tim_ex.o
 .debug_line    0x0000f099     0x118a Drivers/STM32F4xx_HAL_Driver/Src/stm32f4xx_hal_uart.o
 .debug_line    0x00010223      0xd1f Drivers/STM32F4xx_HAL_Driver/Src/stm32f4xx_ll_sdmmc.o
 .debug_line    0x00010f42      0xefd Drivers/STM32F4xx_HAL_Driver/Src/stm32f4xx_ll_usb.o
 .debug_line    0x00011e3f      0xb7f Middlewares/ST/STM32_USB_Device_Library/Class/CDC/Src/usbd_cdc.o
 .debug_line    0x000129be      0xb84 Middlewares/ST/STM32_USB_Device_Library/Core/Src/usbd_core.o
 .debug_line    0x00013542      0xbd2 Middlewares/ST/STM32_USB_Device_Library/Core/Src/usbd_ctlreq.o
 .debug_line    0x00014114      0xa1f Middlewares/ST/STM32_USB_Device_Library/Core/Src/usbd_ioreq.o
 .debug_line    0x00014b33      0x97f Middlewares/Third_Party/FatFs/src/diskio.o
 .debug_line    0x000154b2     0x1c84 Middlewares/Third_Party/FatFs/src/ff.o
 .debug_line    0x00017136      0x97e Middlewares/Third_Party/FatFs/src/ff_gen_drv.o
 .debug_line    0x00017ab4      0x836 Src/Adafruit_GFX_AS.o
 .debug_line    0x000182ea      0xd0a Src/Adafruit_HX8357.o
 .debug_line    0x00018ff4      0x972 Src/DHT22.o
 .debug_line    0x00019966       0x55 Src/Font16.o
 .debug_line    0x000199bb       0x55 Src/Font32.o
 .debug_line    0x00019a10       0x55 Src/Font64.o
 .debug_line    0x00019a65       0x55 Src/Font7s.o
 .debug_line    0x00019aba      0xa33 Src/PMS5003ST.o
 .debug_line    0x0001a4ed     0x1409 Src/TFT.o
 .debug_line    0x0001b8f6      0x96a Src/TouchScreen.o
 .debug_line    0x0001c260      0xa1f Src/bsp_driver_sd.o
 .debug_line    0x0001cc7f      0x8c4 Src/dwt_stm32_delay.o
 .debug_line    0x0001d543      0x960 Src/fatfs.o
 .debug_line    0x0001dea3      0xe3c Src/main.o
 .debug_line    0x0001ecdf      0x9db Src/sd_diskio.o
 .debug_line    0x0001f6ba      0xa1f Src/sd_functions.o
 .debug_line    0x000200d9      0x916 Src/sensors_I2C.o
 .debug_line    0x000209ef      0xa54 Src/stm32f4xx_hal_msp.o
 .debug_line    0x00021443      0x993 Src/stm32f4xx_it.o
 .debug_line    0x00021dd6      0x8c2 Src/system_stm32f4xx.o
 .debug_line    0x00022698      0xa04 Src/usb_device.o
 .debug_line    0x0002309c      0xa3b Src/usbd_cdc_if.o
 .debug_line    0x00023ad7      0xc29 Src/usbd_conf.o
 .debug_line    0x00024700      0xa01 Src/usbd_desc.o
 .debug_line    0x00025101       0x7f startup/startup_stm32f427xx.o

.debug_str      0x00000000    0xedea2
 .debug_str     0x00000000    0xe039f Drivers/STM32F4xx_HAL_Driver/Src/stm32f4xx_hal.o
                              0xe08c1 (size before relaxing)
 .debug_str     0x000e039f      0x2d8 Drivers/STM32F4xx_HAL_Driver/Src/stm32f4xx_hal_adc.o
                              0xdfec1 (size before relaxing)
 .debug_str     0x000e0677      0x302 Drivers/STM32F4xx_HAL_Driver/Src/stm32f4xx_hal_adc_ex.o
                              0xdfefb (size before relaxing)
 .debug_str     0x000e0979      0x3ec Drivers/STM32F4xx_HAL_Driver/Src/stm32f4xx_hal_cortex.o
                              0xe05f1 (size before relaxing)
 .debug_str     0x000e0d65      0x31d Drivers/STM32F4xx_HAL_Driver/Src/stm32f4xx_hal_dma.o
                              0xdfeca (size before relaxing)
 .debug_str     0x000e1082      0x243 Drivers/STM32F4xx_HAL_Driver/Src/stm32f4xx_hal_gpio.o
                              0xdff08 (size before relaxing)
 .debug_str     0x000e12c5      0xa31 Drivers/STM32F4xx_HAL_Driver/Src/stm32f4xx_hal_i2c.o
                              0xe0613 (size before relaxing)
 .debug_str     0x000e1cf6      0x790 Drivers/STM32F4xx_HAL_Driver/Src/stm32f4xx_hal_pcd.o
                              0xe036f (size before relaxing)
 .debug_str     0x000e2486       0x4a Drivers/STM32F4xx_HAL_Driver/Src/stm32f4xx_hal_pcd_ex.o
                              0xdfeba (size before relaxing)
 .debug_str     0x000e24d0      0x379 Drivers/STM32F4xx_HAL_Driver/Src/stm32f4xx_hal_rcc.o
                              0xe00ab (size before relaxing)
 .debug_str     0x000e2849      0x213 Drivers/STM32F4xx_HAL_Driver/Src/stm32f4xx_hal_rcc_ex.o
                              0xdfef2 (size before relaxing)
 .debug_str     0x000e2a5c      0x23e Drivers/STM32F4xx_HAL_Driver/Src/stm32f4xx_hal_rtc.o
                              0xdfe0c (size before relaxing)
 .debug_str     0x000e2c9a      0x56f Drivers/STM32F4xx_HAL_Driver/Src/stm32f4xx_hal_rtc_ex.o
                              0xe0152 (size before relaxing)
 .debug_str     0x000e3209      0x920 Drivers/STM32F4xx_HAL_Driver/Src/stm32f4xx_hal_sd.o
                              0xe05df (size before relaxing)
 .debug_str     0x000e3b29      0x500 Drivers/STM32F4xx_HAL_Driver/Src/stm32f4xx_hal_spi.o
                              0xe00c2 (size before relaxing)
 .debug_str     0x000e4029      0xe2e Drivers/STM32F4xx_HAL_Driver/Src/stm32f4xx_hal_tim.o
                              0xe0a84 (size before relaxing)
 .debug_str     0x000e4e57      0x52a Drivers/STM32F4xx_HAL_Driver/Src/stm32f4xx_hal_tim_ex.o
                              0xe034e (size before relaxing)
 .debug_str     0x000e5381      0x66f Drivers/STM32F4xx_HAL_Driver/Src/stm32f4xx_hal_uart.o
                              0xe026d (size before relaxing)
 .debug_str     0x000e59f0      0x435 Drivers/STM32F4xx_HAL_Driver/Src/stm32f4xx_ll_sdmmc.o
                              0xe0151 (size before relaxing)
 .debug_str     0x000e5e25      0x5c5 Drivers/STM32F4xx_HAL_Driver/Src/stm32f4xx_ll_usb.o
                              0xe0515 (size before relaxing)
 .debug_str     0x000e63ea     0x11f6 Middlewares/ST/STM32_USB_Device_Library/Class/CDC/Src/usbd_cdc.o
                              0xe0e73 (size before relaxing)
 .debug_str     0x000e75e0      0x1b5 Middlewares/ST/STM32_USB_Device_Library/Core/Src/usbd_core.o
                              0xe0ad3 (size before relaxing)
 .debug_str     0x000e7795      0x12b Middlewares/ST/STM32_USB_Device_Library/Core/Src/usbd_ctlreq.o
                              0xe0a59 (size before relaxing)
 .debug_str     0x000e78c0       0xc9 Middlewares/ST/STM32_USB_Device_Library/Core/Src/usbd_ioreq.o
                              0xe09e1 (size before relaxing)
 .debug_str     0x000e7989      0x809 Middlewares/Third_Party/FatFs/src/diskio.o
                              0xe044b (size before relaxing)
 .debug_str     0x000e8192     0x1211 Middlewares/Third_Party/FatFs/src/ff.o
                              0xe163d (size before relaxing)
 .debug_str     0x000e93a3       0xa2 Middlewares/Third_Party/FatFs/src/ff_gen_drv.o
                              0xe049c (size before relaxing)
 .debug_str     0x000e9445     0x122c Src/Adafruit_GFX_AS.o
                               0x7fb6 (size before relaxing)
 .debug_str     0x000ea671      0x8ca Src/Adafruit_HX8357.o
                              0xe0b4d (size before relaxing)
 .debug_str     0x000eaf3b      0x105 Src/DHT22.o
                              0xdfc8f (size before relaxing)
 .debug_str     0x000eb040      0x430 Src/Font16.o
                               0x2a25 (size before relaxing)
 .debug_str     0x000eb470      0x430 Src/Font32.o
                               0x2a25 (size before relaxing)
 .debug_str     0x000eb8a0       0xcb Src/Font64.o
                               0x26c0 (size before relaxing)
 .debug_str     0x000eb96b       0x9f Src/Font7s.o
                               0x2694 (size before relaxing)
 .debug_str     0x000eba0a      0x280 Src/PMS5003ST.o
                              0xdff99 (size before relaxing)
 .debug_str     0x000ebc8a     0x150a Src/TFT.o
                              0xe1886 (size before relaxing)
 .debug_str     0x000ed194       0xa8 Src/TouchScreen.o
                              0xdfd55 (size before relaxing)
